:020000040800F2
:100000000000022045150008391400083F140008BC
:10001000451400084B1400085114000800000000AB
:10002000000000000000000000000000571400085D
:100030006514000800000000731400088114000813
:1000400095150008951500089515000895150008E8
:1000500095150008951500089515000895150008D8
:1000600095150008951500089515000895150008C8
:1000700095150008951500089515000895150008B8
:10008000951500089515000895150008000000005A
:1000900000000000000000000000000095150008AE
:1000A0009515000895150008951500089515000888
:1000B0009515000895150008951500089515000878
:1000C0009515000895150008951500089515000868
:1000D000951500088D140008951500080000000013
:1000E00095150008951500089515000800000000FA
:1000F000000000000000000000000000951500084E
:1001000000000000951500089515000895150008D9
:1001100000000000000000000000000000000000DF
:100120009515000895150008951500089515000807
:10013000951500080000000000000000000000000D
:10014000000000000000000000000000A1140008F2
:1001500095150008951500089515000895150008D7
:10016000951500089515000800000000000000002B
:10017000000000000000000000000000000000007F
:1001800000000000951500080000000000000000BD
:08019000951500089515000803
:1001A00010B5054C237833B9044B13B10448AFF3B1
:1001B00000800123237010BDBC040020000000005B
:1001C00060CF000808B5034B1BB103490348AFF3E8
:1001D000008008BD00000000C004002060CF0008BF
:1001E000034613F8012B002AFBD1181A0138704777
:1001F00001F0FF01102A2BDB10F0070F08D010F8D8
:10020000013B013A8B422DD010F0070F42B3F6D1DB
:10021000F0B441EA012141EA014122F007047FF0F4
:1002200000070023F0E80256083C85EA010586EA4B
:10023000010685FA47F5A3FA87F586FA47F6A5FA87
:1002400087F68EB9EED1F0BC01F0FF0102F0070293
:1002500032B110F8013B013A83EA010313B1F8D13E
:100260000020704701387047002D06BF354603381F
:10027000073815F0010F07D1013015F4807F02BF58
:10028000013015F4C03F0130F0BC0138704700BFA9
:1002900081F0004102E000BF83F0004330B54FEA37
:1002A00041044FEA430594EA050F08BF90EA020FA4
:1002B0001FBF54EA000C55EA020C7FEA645C7FEA37
:1002C000655C00F0E2804FEA5454D4EB5555B8BF5A
:1002D0006D420CDD2C4480EA020281EA030382EACB
:1002E000000083EA010180EA020281EA0303362D5D
:1002F00088BF30BD11F0004F4FEA01314FF4801C30
:100300004CEA113102D0404261EB410113F0004F41
:100310004FEA03334CEA133302D0524263EB4303F8
:1003200094EA050F00F0A780A4F10104D5F1200E96
:100330000DDB02FA0EFC22FA05F2801841F10001F1
:1003400003FA0EF2801843FA05F359410EE0A5F1C5
:1003500020050EF1200E012A03FA0EFC28BF4CF0F6
:10036000020C43FA05F3C01851EBE37101F00045AC
:1003700007D54FF0000EDCF1000C7EEB00006EEBB9
:100380000101B1F5801F1BD3B1F5001F0CD3490843
:100390005FEA30004FEA3C0C04F101044FEA44529A
:1003A00012F5800F80F09A80BCF1004F08BF5FEA21
:1003B000500C50F1000041EB045141EA050130BD01
:1003C0005FEA4C0C404141EB0101013C28BFB1F513
:1003D000801FE9D291F0000F04BF01460020B1FA5E
:1003E00081F308BF2033A3F10B03B3F120020CDA31
:1003F0000C3208DD02F1140CC2F10C0201FA0CF00F
:1004000021FA02F10CE002F11402D8BFC2F1200C73
:1004100001FA02F120FA0CFCDCBF41EA0C01904029
:10042000E41AA2BF01EB0451294330BD6FEA040472
:100430001F3C1CDA0C340EDC04F11404C4F120025D
:1004400020FA04F001FA02F340EA030021FA04F36F
:1004500045EA030130BDC4F10C04C4F1200220FAC6
:1004600002F001FA04F340EA0300294630BD21FA04
:1004700004F0294630BD94F0000F83F4801306BFCA
:1004800081F480110134013D4EE77FEA645C18BFBE
:100490007FEA655C29D094EA050F08BF90EA020F55
:1004A00005D054EA000C04BF1946104630BD91EA4D
:1004B000030F1EBF0021002030BD5FEA545C05D150
:1004C0004000494128BF41F0004130BD14F580048F
:1004D0003CBF01F5801130BD01F0004545F0FE4103
:1004E00041F470014FF0000030BD7FEA645C1ABF38
:1004F000194610467FEA655C1CBF0B46024650EA6F
:10050000013406BF52EA033591EA030F41F400219A
:1005100030BD00BF90F0000F04BF0021704730B520
:100520004FF4806404F132044FF000054FF00001F5
:1005300050E700BF90F0000F04BF0021704730B5B6
:100540004FF4806404F1320410F0004548BF40428B
:100550004FF000013EE700BF42004FEAE2014FEAE0
:1005600031014FEA02701FBF12F07F4393F07F4FBB
:1005700081F06051704732F07F4208BF704793F0BE
:100580007F4F04BF41F40021704730B54FF46074D1
:1005900001F0004521F000411CE700BF50EA0102D4
:1005A00008BF704730B54FF000050AE050EA01027D
:1005B00008BF704730B511F0004502D5404261EBED
:1005C00041014FF4806404F132045FEA915C3FF42E
:1005D000D8AE4FF003025FEADC0C18BF03325FEACB
:1005E000DC0C18BF033202EBDC02C2F1200300FA7C
:1005F00003FC20FA02F001FA03FE40EA0E0021FAA1
:1006000002F11444BDE600BF4A0011D212F50012F7
:1006100011D20DD56FF47873B3EB62520ED44FEA5A
:10062000C12343F0004343EA505323FA02F07047DA
:100630004FF00000704750EA013002D14FF0FF3018
:1006400070474FF00000704753B94AB9002908BFFE
:1006500000281CBF4FF0FF314FF0FF3000F06EB9A3
:10066000ADF1080C6DE904CE00F006F8DDF804E009
:10067000DDE9022304B070472DE9F047089D0446E8
:100680008C46002B40F083808A42174647D9B2FA45
:1006900082F242B1C2F1200024FA00F0914097406A
:1006A00040EA010C94404FEA1748230CBCFBF8F6D3
:1006B0001FFA87FE08FB16C143EA014306FB0EF151
:1006C000994209D9FB1806F1FF3080F0198199424F
:1006D00040F21681023E3B445B1AA4B2B3FBF8F031
:1006E00008FB103344EA034400FB0EFEA64509D97B
:1006F0003C1900F1FF3380F00581A64540F20281EC
:1007000002383C4440EA0640A4EB0E0400261DB12A
:10071000D4400023C5E900433146BDE8F08702B963
:10072000FFDEB2FA82F2002A50D1CB1B4FEA174EFD
:100730001FFA87F80126B3FBFEFC210C0EFB1C33CD
:1007400041EA034108FB0CF38B4207D979180CF1FD
:10075000FF3002D28B4200F2E9808446C91AA3B26C
:10076000B1FBFEF00EFB101143EA014408FB00F858
:10077000A04507D93C1900F1FF3302D2A04500F291
:10078000D9801846A4EB080440EA0C40BFE78B422E
:1007900009D9002D00F0B1800026C5E900013046DE
:1007A0003146BDE8F087B3FA83F6002E4AD18B427A
:1007B00002D3824200F2B880841A61EB0301012067
:1007C0008C46002DA8D0C5E9004CA5E7C2F1200356
:1007D00020FA03F6974001FA02F04FEA174ED9408B
:1007E0003043030CB1FBFEF61FFA87F80EFB16111F
:1007F00043EA014306FB08F1994204FA02F409D9DD
:10080000FB1806F1FF3C80F08D80994240F28A800F
:10081000023E3B445B1A81B2B3FBFEF00EFB103389
:1008200041EA034100FB08F38B4207D9791800F134
:10083000FF3C73D28B4271D902383944CB1A40EA5B
:10084000064678E7C6F1200C03FA06F422FA0CF308
:100850001C4320FA0CF701FA06F34FEA144E21FA72
:100860000CF11F433B0CB1FBFEF91FFA84F80EFBA1
:10087000191143EA014109FB08FA8A4502FA06F216
:1008800000FA06F308D9611809F1FF3048D28A4509
:1008900046D9A9F102092144A1EB0A01BFB2B1FB7B
:1008A000FEF00EFB101147EA014700FB08F8B845BF
:1008B00007D9E71900F1FF312ED2B8452CD90238FB
:1008C000274440EA0940A7EB0807A0FB02894F45EF
:1008D000C64649461AD317D05DB1B3EB0E0267EB9B
:1008E000010707FA0CFCF2404CEA0202F740C5E9A6
:1008F000002700263146BDE8F0872E4628460BE744
:100900000646E9E61846FDE64345E5D2B8EB020E99
:1009100069EB04010138DFE70846D2E760468DE75E
:100920008146B9E7664675E730464AE7ACF1020C06
:10093000394413E702383C4424E700BF704700BF46
:1009400080B582B000AF3B4683E803003B68BA88BD
:100950001146184602F0D7FE00BF0837BD4680BDDD
:1009600080B48BB000AF87ED030AB8607960BB68D4
:100970007B627B6A3B627B68042B01DD04237B6026
:10098000D7ED037AF5EEC07AF1EE10FA0AD5D7ED7D
:10099000037AF1EE677AC7ED037A7B6A5A1C7A62B2
:1009A0002D221A707B68002B31DAD7ED037AB7EE6F
:1009B000007AF4EEC77AF1EE10FA02D504237B60D8
:1009C00025E0D7ED037AB2EE047AF4EEC77AF1EEC1
:1009D00010FA02D503237B6019E0D7ED037A9FED6F
:1009E0005A7AF4EEC77AF1EE10FA02D502237B6050
:1009F0000DE0D7ED037A9FED557AF4EEC77AF1EE6C
:100A000010FA02D501237B6001E000237B607B6844
:100A1000002B0BD04E4A7B689B001344D3ED007A29
:100A200097ED037A77EE277AC7ED037AD7ED037A4D
:100A3000FDEEE77A17EE903AFB61FB6907EE903A1C
:100A4000F8EEE77A97ED037A77EE677AC7ED037AE7
:100A5000FB69002B05D17B6A5A1C7A6230221A701E
:100A600038E07B6A3B621AE0FA693A4B83FB021377
:100A70009910D317C91A0B469B000B445B00D11A7F
:100A8000CAB23B6A591C39623032D2B21A70FB6961
:100A9000304A82FB03129210DB17D31AFB61FB6909
:100AA000002BE1D13B6ABB610EE03B6A013B3B623C
:100AB0003B6A1B78FB757B6A1A783B6A1A707B6A03
:100AC0005A1C7A62FA7D1A703A6A7B6A9A42ECD8AA
:100AD000BB697B627B68002B2CD07B6A5A1C7A62D4
:100AE0002E221A7021E0D7ED037AB2EE047A67EE77
:100AF000877AC7ED037AD7ED037AFCEEE77AC7ED84
:100B0000007A3B68FB757B6A5A1C7A62FA7D303248
:100B1000D2B21A70FB7D07EE903AF8EEE77A97EDC5
:100B2000037A77EE677AC7ED037A7B685A1E7A609C
:100B3000002BD8D17B6A00221A70BB6818462C376C
:100B4000BD465DF8047B70470000C84200007A444F
:100B500048D0000867666666F0B5D5B002AF02F00F
:100B6000CDF800F075F900F0C3FA00F097FA00F044
:100B700045FA00F01DFA0AF023FF00F0EBF9A34A52
:100B800007F59A7392E80300186004331980A04AAD
:100B900007F5967392E803001860043319809D4AA4
:100BA00007F5927392E803001860043319809A4B9A
:100BB0009A4A1A609A4B1B6898479A4BD3F820328E
:100BC0004FF41650984700F037FF974B974A1A603A
:100BD000954B5C6807F58A7019230193B7F830319B
:100BE000ADF80030D7F82C3107F5927206CAA0474D
:100BF0008F4B8A4A1A608E4B8E4A5A608C4B9B6888
:100C000007F1680038228C499847834B5C6807F1EC
:100C100078004FF47A7359228749A047874A07F131
:100C2000540307CA03C31A800233120C1A7007F167
:100C30005F0300221A605A601A72794B5B6A984708
:100C400003463F2B02D9764B9B6A984707F1100366
:100C500000221A60744BDB6807F1100107F58A70F7
:100C60004FF47A7298470346002B15D107F1100311
:100C70001A6807F11403724918460BF0D1FD684B4E
:100C80001C6907F114031846FFF7AAFA024607F198
:100C9000140311461846A047654B1B6907F168020B
:100CA0006421104698470346002B2FD107F1140307
:100CB000644918460BF0B4FD594B1C6907F1140345
:100CC0001846FFF78DFA024607F11403114618463D
:100CD000A047D7ED1B7A3B1D03211846B0EE670AEB
:100CE000FFF73EFE024607F11403574918460BF082
:100CF00097FD4B4B1C6907F114031846FFF770FA78
:100D0000024607F1140311461846A04707F10E03E7
:100D100000221A80404B9B6907F10E0107F1780011
:100D20004FF47A7298470346002B16D107F10E0351
:100D30001B881A4607F11403444918460BF070FD4E
:100D4000374B1C6907F114031846FFF749FA0246AE
:100D500007F1140311461846A0474FF4FA7002F049
:100D60003FF807F59A7393E80300FFF7E9FD2D4B71
:100D7000D3F8283298470346002B7FF75EAF6B46C7
:100D80001E46284BD3F8283298470346C7F844310B
:100D9000D7F844412346013BC7F8403120464FF085
:100DA00000014FF000024FF00003CB0043EA507304
:100DB000C20020464FF000014FF000024FF0000348
:100DC000CB0043EA5073C200E31DDB08DB00ADEB50
:100DD000030D02AB0033C7F83C31124BD3F850324D
:100DE000D7F83C21D7F84411104698470C4B1C69A2
:100DF000D7F83C51D7F83C311846FFF7F1F90346D4
:100E000019462846A047B54617E700BFD4CF0008CB
:100E1000DCCF0008E4CF0008C0020020E12D00086C
:100E20008C02002034000020200000208D1A0008D1
:100E300004000020C92D000810070020ECCF000896
:100E400094CF0008ACCF0008B8CF0008C8CF000886
:100E500080B59AB000AF07F1380330220021184660
:100E60000BF01CFC07F1240300221A605A609A6000
:100E7000DA601A6107F10C0300221A605A609A6066
:100E8000DA601A615A610023BB60304B1B6C2F4A39
:100E900043F0805313642D4B1B6C03F08053BB60F5
:100EA000BB6800237B602A4B1B68294A43F44043FC
:100EB0001360274B1B6803F440437B607B6805236A
:100EC000BB634FF48033FB6301233B6402233B6528
:100ED0004FF480037B650F23BB659023FB650423E0
:100EE0003B6605237B6607F13803184604F06CFE69
:100EF0000346002B01D000F07FF90F237B62022311
:100F0000BB620023FB624FF480533B6300237B638F
:100F100007F124030121184605F0CEF80346002B03
:100F200001D000F069F90223FB604FF48073FB618C
:100F300007F10C03184605F08FFA0346002B01D089
:100F400000F05AF900BF6837BD4680BD0038024046
:100F50000070004080B500AF124B134A1A60114B6D
:100F6000124A5A600F4B00229A600E4B0022DA6040
:100F70000C4B4FF480421A610A4B00225A61094B14
:100F800000229A61074B0022DA61064B00221A62A6
:100F9000044802F0D3FB0346002B01D000F02CF9EB
:100FA00000BF80BD1007002000540040A086010053
:100FB00080B500AF0F4B104A1A600E4B00225A60EA
:100FC0000C4B7F229A600B4BFF22DA60094B002208
:100FD0001A61084B00225A61064B00229A610548AB
:100FE00005F02AFB0346002B01D000F005F900BFF5
:100FF00080BD00BFA80700200028004080B586B053
:1010000000AF07F1080300221A605A609A60DA60A4
:101010003B4600221A605A601E4B1F4A1A601D4B45
:1010200047225A601B4B00229A601A4B4FF6FE7201
:10103000DA60184B00221A61164B00225A61154BD8
:1010400000229A61134805F0DCFB0346002B01D017
:1010500000F0D2F84FF48053BB6007F10803194643
:101060000C4805F01DFC0346002B01D000F0C4F82D
:1010700000233B6000237B603B461946054805F092
:10108000EDFD0346002B01D000F0B6F800BF183785
:10109000BD4680BDC80700200000014080B500AFFC
:1010A000114B124A1A60104B4FF416525A600E4BF5
:1010B00000229A600C4B0022DA600B4B00221A616E
:1010C000094B0C225A61084B00229A61064B002200
:1010D000DA61054805F030FE0346002B01D000F030
:1010E0008BF800BF80BD00BF6407002000100140E6
:1010F00080B58AB000AF07F1140300221A605A606D
:101100009A60DA601A6100233B61384B1B6B374AE7
:1011100043F004031363354B1B6B03F004033B6183
:101120003B690023FB60314B1B6B304A43F080036B
:1011300013632E4B1B6B03F08003FB60FB680023E3
:10114000BB602A4B1B6B294A43F001031363274BF7
:101150001B6B03F00103BB60BB6800237B60234B68
:101160001B6B224A43F002031363204B1B6B03F0FB
:1011700002037B607B6800224FF400511C4802F0A0
:10118000A9FA00224FF480711A4802F0A3FA4FF432
:1011900000537B610123BB610023FB6100233B62A1
:1011A00007F114031946124802F014F84FF4807343
:1011B0007B610123BB610123FB6100233B6207F1DB
:1011C000140319460B4802F005F84FF400737B61D5
:1011D0000023BB610123FB6107F114031946054895
:1011E00001F0F8FF00BF2837BD4680BD003802403F
:1011F000000802400004024080B400AF72B600BF95
:10120000FEE7000080B483B000AF00237B60104B8A
:101210005B6C0F4A43F4804353640D4B5B6C03F4E7
:1012200080437B607B6800233B60094B1B6C084A52
:1012300043F080531364064B1B6C03F080533B60F8
:101240003B6800BF0C37BD465DF8047B704700BFAC
:101250000038024080B58AB000AF786007F114030F
:1012600000221A605A609A60DA601A617B681B6813
:10127000194A93422BD100233B61184B1B6B174A31
:1012800043F002031363154B1B6B03F002033B6136
:101290003B69C0237B611223BB610123FB610323F4
:1012A0003B6204237B6207F1140319460C4801F0EA
:1012B00091FF0023FB60094B1B6C084A43F40013A9
:1012C0001364064B1B6C03F40013FB60FB6800BF48
:1012D0002837BD4680BD00BF0054004000380240A2
:1012E0000004024080B483B000AF78607B681B6864
:1012F000054A934202D1054B01221A6000BF0C3708
:10130000BD465DF8047B7047002800403C0E474214
:1013100080B485B000AF78607B681B680B4A93424D
:101320000DD10023FB600A4B5B6C094A43F00103BB
:101330005364074B5B6C03F00103FB60FB6800BF69
:101340001437BD465DF8047B704700BF00000140C4
:101350000038024080B58AB000AF786007F114030E
:1013600000221A605A609A60DA601A617B681B6812
:101370001D4A934234D100233B611C4B5B6C1B4ADA
:1013800043F010035364194B5B6C03F010033B6193
:101390003B690023FB60154B1B6B144A43F00103B0
:1013A0001363124B1B6B03F00103FB60FB684FF4EC
:1013B000C0637B610223BB610023FB6103233B62AB
:1013C00007237B6207F114031946094801F002FF65
:1013D00000220021252001F026FE252001F03FFEFD
:1013E00000BF2837BD4680BD0010014000380240D4
:1013F0000000024080B582B000AF78607B681B6857
:101400000A4A93420DD10A4B5B6C094A23F0100340
:1014100053644FF4C061074802F060F8252001F0E2
:101420002CFE00BF0837BD4680BD00BF0010014044
:10143000003802400000024080B400AFFEE780B4F4
:1014400000AFFEE780B400AFFEE780B400AFFEE778
:1014500080B400AFFEE780B400AF00BFBD465DF8CA
:10146000047B704780B400AF00BFBD465DF8047BCD
:10147000704780B400AF00BFBD465DF8047B704785
:1014800080B500AF01F08CFC00BF80BD80B500AF1F
:10149000024805F043FD00BF80BD00BF6407002087
:1014A00080B500AF024803F05CFB00BF80BD00BF09
:1014B000341F002080B586B000AF7860144A154B09
:1014C000D31A7B617B693B61134B1B68002B02D1F4
:1014D000114B124A1A60104B1A687B6813443A6920
:1014E0009A4207D20BF092F803460C221A604FF092
:1014F000FF3309E0084B1B68FB60074B1A687B68E9
:101500001344054A1360FB6818461837BD4680BD72
:101510000000022000040000D80400205023002016
:1015200080B400AF064BD3F88830054A43F470030B
:10153000C2F8883000BFBD465DF8047B704700BF2D
:1015400000ED00E0DFF834D00D480E490E4A0023CC
:1015500002E0D458C4500433C4188C42F9D30B4A67
:101560000B4C002301E013600432A242FBD3FFF7CF
:10157000D7FF0BF051F8FFF7EFFA70470000022099
:1015800000000020BC040020D8D00008BC040020CB
:101590004C230020FEE7000080B582B000AF7860E9
:1015A000074B1B68002B04D0054B1B6878689847D5
:1015B00002E0786801F014FC00BF0837BD4680BD2A
:1015C0000400002080B500AF064B5B68002B04D000
:1015D000044B5B689847034602E001F0F5FB0346C5
:1015E000184680BD0400002080B586B002AFF860C8
:1015F000B9607A603B607B68202B01D901230DE044
:10160000FB681868FB681B7B99B27B689AB23B68E1
:1016100000931346BA6802F0D3FA0346184610370F
:10162000BD4680BD80B586B002AFF860B9607A6013
:101630003B607B68202B01D901230DE0FB68186813
:10164000FB681B7B99B27B689AB23B680093134698
:10165000BA6802F0B7F9034618461037BD4680BD98
:1016600080B584B000AF78607B681B68002B01D127
:1016700000230BE07B6818687B681B7B99B26423AE
:10168000052202F0C3FC0346FB73FB7B18461037B0
:10169000BD4680BD80B588B000AFF860B960134624
:1016A000FB71FB68BA681A60FB795B00DAB2FB6811
:1016B0001A73FB684FF000025A60FB684FF000029B
:1016C0009A60F868FFF7CCFF0346FB77FB7F002B9F
:1016D00001D0FB7F63E003200AF0C2FF0346BB6139
:1016E000BB69002B04D003220021B8690AF0D6FFA1
:1016F000BB69BA221A704FF4FA730122B969F8680B
:10170000FFF790FF0346FB77FB7F002B01D0FB7FA9
:1017100045E01420FFF740FFBB69E1221A70BB6966
:10172000013308221A70BB69023300221A704FF489
:10173000FA730322B969F868FFF774FF0346FB7771
:10174000FB7F002B01D0FB7F29E0FFF73BFF786197
:1017500010E00520FFF720FFFFF734FF02467B690A
:101760009B1A41F28732934204D9B8690AF080FF8C
:10177000032314E0F86800F02BF903465BB2002B5A
:10178000E7DBB8690AF074FFF86800F021F9034656
:1017900003F00803002B01D1012300E000231846C9
:1017A0002037BD4680BD000080B58CB000AF7860AA
:1017B00039607B685B7B092B1BD97B681B7B5B08D3
:1017C00087F82B307B681B687B6297F82B301A46B2
:1017D000796A7868FFF75EFF034687F8233097F849
:1017E0002330002B02D097F82330E3E07B680022FF
:1017F0005A73724A07F108031268114619800233BE
:10180000120C1A7003200AF02BFF0346FB61FB69E0
:10181000002B21D0FB69AC221A70FB690133332203
:101820001A70FB69023300221A704FF4FA73032214
:10183000F9697868FFF7F6FE034687F8233097F8D2
:101840002330002B0AD07B685B7B0133DAB27B68E4
:101850005A7397F82330ADE00123ABE0F8690AF042
:1018600007FFFFF7AFFEF8621BE00A20FFF794FEC8
:10187000FFF7A8FEF860FA68FB6A9A4201D2FB689B
:10188000FB62FFF79FFE0246FB6AD31A3A689A4250
:1018900007D87B685B7B0133DAB27B685A7303231A
:1018A00088E0786800F094F803465BB2002BDCDB3C
:1018B00006200AF0D5FE0346BB61BB69002B04D0AD
:1018C00006220021B8690AF0E9FE3B680622B969E0
:1018D0007868FFF789FE034687F8233097F82330AE
:1018E000002B0BD07B685B7B0133DAB27B685A73C9
:1018F000B8690AF0BDFE97F823305BE0BB6901339D
:101900001B787B617B691B027B61BB6902331B789F
:101910001A467B6913437B617B691B017B61BB6951
:1019200003331B781B09DBB21A467B6913437B61C7
:101930007B6907EE903AF8EE677A9FED217A27EE01
:10194000877ADFED206AC7EE267A7B68C3ED027ADC
:10195000BB6903331B7803F00F033B613B691B0238
:101960003B61BB6904331B781A463B6913433B61F7
:101970003B691B023B61BB6905331B781A463B6917
:1019800013433B613B6907EE903AF8EE677A9FEDAF
:101990000E7A27EE877ADFED0B6AC7EE267A9FED87
:1019A0000B7A77EEC77A7B68C3ED017AB8690AF0E3
:1019B0005FFE002318463037BD4680BD00D00008CA
:1019C0000000C8420000804900004843000048422F
:1019D00080B584B000AF786007F10F014FF4FA735F
:1019E00001227868FFF700FE0346002B01D0FF2399
:1019F00000E0FB7B18461037BD4680BD80B483B045
:101A000000AF78607B685B6807EE903AB0EE670ADB
:101A10000C37BD465DF8047B704780B483B000AFDF
:101A200078607B689B6807EE903AB0EE670A0C37E7
:101A3000BD465DF8047B704780B400AF114BDB6896
:101A400003F08073002B0ED10E4BDB680D4A43F080
:101A50008073D3600C4B00225A600B4B1B680A4A00
:101A600043F00103136000BF00BF00BF064B5B687B
:101A7000002B01D0002300E001231846BD465DF88D
:101A8000047B7047F0ED00E0001000E090B585B0F9
:101A900000AF7860154B5B68FB60144B5C6804F02A
:101AA000A7FC0346124AA2FB03239B0C7A6802FBA5
:101AB00003F32344BB60BA68FB689A4206D900BFAF
:101AC0000A4B5B68BA689A42FAD80AE000BF074B33
:101AD0005B68FA689A42FAD3044B5B68BA689A4228
:101AE000F5D800BF1437BD4690BD00BF001000E020
:101AF00083DE1B4380B584B000AF07F1080383E8A1
:101B000003001346FB71BB68B989FA79184601F0E6
:101B1000E1FD00BF1037BD4680BD80B582B000AF8B
:101B20003B4683E803003B68BA881146184601F03B
:101B3000B9FD034618460837BD4680BD80B584B060
:101B400000AF7860396001F03FF9F86023E001F000
:101B50003BF9B860BA68FB689A4206D2BA68FB687B
:101B6000D31A002BB8BF5B42FB6001F02DF902468F
:101B7000FB689B1A3A689A4201D803231FE0124B74
:101B80001B68002B04D0104B1B680A20984702E00A
:101B9000052001F025F97B68D3F8062000211146C5
:101BA0009A7ADB7A1B021A43002362F30F0308467A
:101BB0001946FFF7B2FF0346002BC8D10023184691
:101BC0001037BD4680BD00BF2000002080B586B024
:101BD00000AFF860B9607A60FB681A6800211146AE
:101BE0001A795B791B021A43002362F30F03002268
:101BF00008461946FFF77EFF7968F868FFF79EFFF1
:101C00000346002B69D10023FB7500233B610023B1
:101C1000FB7545E000BF00BF00BFFB681A680021EC
:101C200011461A795B791B021A43002362F30F03F2
:101C3000012208461946FFF75DFF00BF00BF00BF45
:101C4000FB681A68002111461A795B791B021A4356
:101C5000002362F30F03002208461946FFF74AFFEC
:101C6000FB7D172B19D83B695B003B61FB68D3F800
:101C70000620002111469A7ADB7A1B021A430023C0
:101C800062F30F0308461946FFF747FF0346012B8F
:101C900003D13B6943F001033B61FB7D0133FB75DD
:101CA000FB681B7BFA7D9A42B4D3FB681A6800215B
:101CB00011461A795B791B021A43002362F30F0362
:101CC000012208461946FFF715FF3B6983F400031C
:101CD0001A46BB681A60002300E003231846183731
:101CE000BD4680BD80B582B000AF78600B46FB700A
:101CF0001346BB70BB781A4600217868FFF766FF71
:101D0000034618460837BD4680BD82B080B584B012
:101D100000AFF860381D80E80600FB61FB68063301
:101D200007F11C021068186092889A80FB681A46B6
:101D30003B1D186810609B889380FB6897F82420EF
:101D40001A7397F82430F4221946F868FFF7CAFF8F
:101D5000034618461037BD46BDE8804002B07047C4
:101D600080B582B000AF7860154800F02FF9144BB1
:101D700000221A7400BF124B5B7CDBB21A46114B77
:101D8000134401221946104805F097F80346022B28
:101D9000F1D00B4BDB687A685A60094800F09FF974
:101DA0004FF480720749094805F087F84FF48072B4
:101DB0000749064805F03CF800BF0837BD4680BD1E
:101DC0003400002054000020640700204000002060
:101DD0005401002080B483B000AF7860044A7B686F
:101DE000536000BF0C37BD465DF8047B704700BFF1
:101DF0003400002080B500AF024800F091F900BF28
:101E000080BD00BF3400002080B500AF024800F064
:101E100097F90346184680BD3400002080B500AF16
:101E2000024800F0A1F90346184680BD34000020A6
:101E300080B500AF024800F0DAF90346184680BDCD
:101E40003400002080B500AF024800F0EEF900BF7A
:101E500080BD00BF3400002080B582B000AF0346D3
:101E6000FB71FB791946044800F006FA0346184650
:101E70000837BD4680BD00BF3400002080B582B069
:101E800000AF786039603A687968044800F040FA39
:101E9000034618460837BD4680BD00BF3400002009
:101EA00080B500AF024800F07CF90346184680BDBB
:101EB0003400002080B584B000AF0346B9607A607A
:101EC000FB73F97B7B68BA68034800F0AFFA0346FE
:101ED00018461037BD4680BD3400002080B500AFE5
:101EE000024800F057FA0346184680BD340000202F
:101EF00080B582B000AF786039603A68796804488C
:101F000000F070FA034618460837BD4680BD00BF92
:101F1000340000200FB480B582B000AF07F1140385
:101F20003B603B683A694FF480710A480AF0C4FC90
:101F30000848FEF755F9034619460648FFF79EFF85
:101F400078607B6818460837BD46BDE8804004B01D
:101F5000704700BF1008002080B582B000AF7860E5
:101F60007B68002B0FD07B681B68094A934202D123
:101F7000084800F047F87B681B68074A934202D183
:101F8000044800F03FF800BF0837BD4680BD00BFE1
:101F900000100140340000200044004080B582B0B1
:101FA00000AF78607B68002B08D07B681B68054A0F
:101FB000934204D1044800F050F800E000BF083715
:101FC000BD4680BD001001403400002080B582B0C5
:101FD00000AF7860786800F05EFA7B6800225A747F
:101FE0007B6800229A747B680022DA747B68002286
:101FF0001A757B68024ADA6000BF0837BD4680BDAB
:102000006407002080B584B000AF78607B68DB682F
:102010009B6A03F580727B682033D31AFB737B685D
:102020009B7CDBB2FA7B9A4202D07B68FA7B5A74C3
:1020300000BF7B68D8687B6820337A68527CD2B254
:1020400013440122194604F038FF0346022BF0D056
:1020500000BF00BF1037BD4680BD80B584B000AF63
:1020600078607B68DB681B6A03F580727B6803F528
:102070009073D31ADAB27B681A757B68DB7CDAB2AC
:102080007B681B7DDBB29A4207D27B681B7DDBB28B
:102090009BB2C3F58073FB8109E07B68DB7CDBB21C
:1020A0009AB27B681B7DDBB29BB2D31AFB81FB89A2
:1020B000002B10D000BF7B68D8687B6803F5907355
:1020C0007A68127DD2B21344FA89194604F0B0FE40
:1020D0000346022BEFD000BF1037BD4680BD80B550
:1020E00082B000AF78607B6800221A747B68DB687E
:1020F000184604F021FE00BF7B68D8687B68203357
:102100007A68527CD2B213440122194604F0D5FEFB
:102110000346022BF0D000BF00BF0837BD4680BD8C
:1021200080B582B000AF7860786800F07EF87B6898
:10213000DB68184604F04DFE00BF0837BD4680BD81
:1021400080B483B000AF78607B685B7CDBB203F562
:1021500080737A68927CD2B29B1ADBB218460C3735
:10216000BD465DF8047B704780B483B000AF7860F3
:102170007B685B7CDAB27B689B7CDBB29A4202D1E3
:102180004FF0FF3307E07B689B7CDBB21A467B682D
:10219000134493F8203018460C37BD465DF8047B95
:1021A000704780B485B000AF78607B685B7CDAB242
:1021B0007B689B7CDBB29A4202D14FF0FF3310E088
:1021C0007B689B7CDBB21A467B68134493F8203013
:1021D000FB737B689B7CDBB20133DAB27B689A7459
:1021E000FB7B18461437BD465DF8047B704780B40E
:1021F00085B000AF78607B68DB7CFB737B681B7D00
:10220000BB73FA7BBB7B9A4205D3FB7BC3F1FF0216
:10221000BB7B134403E0BA7BFB7BD31A013B18461C
:102220001437BD465DF8047B704780B584B000AFBD
:1022300078607B681B7C002B1AD0786800F090F8DF
:10224000F86003E00121786800F096F87B68DB7C99
:10225000DAB27B681B7DDBB29A420AD0786800F064
:102260007FF80246FB68D31AB3F57A7FEAD300E021
:1022700000BF1037BD4680BD80B584B000AF786028
:102280000B46FB707B6801221A747B68DB7CDBB237
:1022900001335A42DBB2D2B258BF5342FB7303E060
:1022A0000121786800F068F87B681B7DDBB2FA7B5F
:1022B0009A42F5D07B68DB7CDBB21A467B6813441C
:1022C000FA7883F820217B68DB7CDAB27B681B7D9F
:1022D000DBB29A4214D103E00121786800F04CF897
:1022E0007B68D8687B6803F590737A68127DD2B2F8
:1022F00013440122194604F09BFD0346022BEBD048
:102300007B68FA7BDA74012318461037BD4680BD1E
:1023100080B586B000AFF860B9607A60BB68002B0A
:1023200001D1002318E000237B610DE0BB685A1C3B
:10233000BA601B781946F868FFF79EFF0346002B2A
:1023400008D07B6901337B617B685A1E7A60002B61
:10235000ECD100E000BF7B6918461837BD4680BD50
:1023600080B582B000AF78607B689B699847034670
:1023700018460837BD4680BD80B582B000AF786092
:1023800039607B68DB693868984703461846083728
:10239000BD4680BD80B584B000AF78607868FFF737
:1023A000DFFF02467B689A607868FFF7FAFEF86004
:1023B000FB68002B01DBFB6810E001217868FFF768
:1023C000DBFF7868FFF7CCFF02467B689B68D21A78
:1023D0007B685B689A42E7D34FF0FF3318461037AB
:1023E000BD4680BD80B586B000AFF860B9607A6048
:1023F00000237B610FE0F868FFF7CCFF38613B6991
:10240000002B0DDBBB685A1CBA603A69D2B21A7055
:102410007B6901337B617A697B689A42EBD300E088
:1024200000BF7B6918461837BD4680BD80B586B0B1
:1024300000AFF8607A603B600B46FB7200237B6163
:1024400013E0F868FFF7A6FF38613B69002B10DB4B
:10245000FB7A3A699A420CD07B685A1C7A603A69D6
:10246000D2B21A707B6901337B617A693B689A4208
:10247000E7D37B6918461837BD4680BD80B483B06A
:1024800000AF78607B6800221A6000BF0C37BD4641
:102490005DF8047B704780B582B000AF78607868E3
:1024A000FFF7ECFF7B684FF47A725A6000BF083781
:1024B000BD4680BD80B500AF09F06EFC00BF80BD99
:1024C00080B500AF09F06FFC00BF80BD80B500AFE4
:1024D000024800F005F90346184680BDE40B0020D1
:1024E00080B582B000AF0346FB71FB1D0121184689
:1024F00000F006F8034618460837BD4680BD0000C8
:1025000080B584B000AF786039603B68FB601CE048
:10251000154800F0E5F80346BB60FA68BB689A42CC
:1025200001D2FB68BB60BB68002B0ED0BA6879682B
:102530000D4800F00CF9FA68BB68D31AFB607A68A2
:10254000BB6813447B6009F0CFFBFB68002B04D011
:1025500009F09EFB0346002BDAD13A68FB68D31AD8
:1025600018461037BD4680BDE40B002080B500AF93
:10257000024800F01CFA0346184680BD6C1C00207F
:1025800080B582B000AF054800F041FA786009F0EC
:10259000D9FB7B6818460837BD4680BD6C1C0020FF
:1025A00080B586B000AF786039603B689BB27B61D4
:1025B00000F00AFC38617B699BB21A4679681148C1
:1025C00000F09CFA0346FB8109F0BCFBFB897A69A9
:1025D000D31A7B61FB897A6813447B607B69002B8B
:1025E00001D13B6809E000F0EFFB02463B69D31ADA
:1025F000312BE0D97B693A68D31A18461837BD46A3
:1026000080BD00BF6C1C002080B58AB002AF0346BD
:10261000B9607A60FB737B689BB2FB6100F0D4FB0E
:10262000B861FB699AB2F97B07F114030093134672
:10263000BA68154800F0C5FA0346FB7509F082FB3D
:10264000BB8A1A46FB699B1AFB61BB8A1A46BB68A8
:102650001344BB60FB7D002B03D0FB697A68D31A5F
:102660000EE0FB69002B01D17B6809E000F0ACFBB8
:102670000246BB69D31A312BD3D9FB697A68D31AC6
:1026800018462037BD4680BD6C1C002080B500AFC9
:10269000024800F001FA0346184680BD6C1C002079
:1026A00080B500AF00BF044800F036F80346002BA9
:1026B000F9DC00BF00BF80BDE40B002080B483B014
:1026C00000AF78607B680022A3F882207B6800223C
:1026D000A3F8802000BF0C37BD465DF8047B70472F
:1026E00080B483B000AF78607B68B3F882309BB26F
:1026F00080337A68B2F8802092B29B1A013B5A422A
:1027000003F07F0302F07F0258BF534218460C3794
:10271000BD465DF8047B704780B483B000AF78603D
:102720007B68B3F880309BB280337A68B2F882203D
:1027300092B29B1A5A4203F07F0302F07F0258BF05
:10274000534218460C37BD465DF8047B704780B590
:1027500086B000AFF860B9607A60FB68B3F880308B
:102760009BB2C3F180037B617A697B689A420CD982
:10277000FB68B3F880309BB21A46FB6813447A6852
:10278000B968184609F07CFF15E0FB68B3F88030A3
:102790009BB21A46FB6813447A69B968184609F077
:1027A0006FFFF868BA687B69D1187A687B69D31AB9
:1027B0001A4609F065FFFB68B3F880309BB21A46F1
:1027C0007B6813449BB203F07F039AB2FB68A3F8C3
:1027D000802000BF1837BD4680BD80B483B000AFF5
:1027E000786039607B68B3F880309AB27B68B3F860
:1027F00082309BB29A420CD37B68B3F880309AB295
:102800007B68B3F882309BB2D31A9AB23B681A80C5
:1028100008E07B68B3F882309BB2C3F180039AB2C0
:102820003B681A803B681A887B68A3F884207B6821
:10283000B3F882309BB21A467B68134418460C37B3
:10284000BD465DF8047B704780B483B000AF78600C
:102850007B68B3F882309AB27B68B3F884309BB25D
:1028600013449BB203F07F039AB27B68A3F88220E3
:1028700000BF0C37BD465DF8047B704780B483B061
:1028800000AF78607B680022A3F8C2207B6800223A
:10289000A3F8C0207B68C022A3F8C42000BF0C3777
:1028A000BD465DF8047B704780B485B000AF7860AA
:1028B0008023FB817B68B3F8C230BB817B68B3F8AF
:1028C000C0309BB2BA899A422CD87B68B3F8C0302A
:1028D0009BB2FA899A4209D87B68B3F8C0309BB2A0
:1028E000FA899A4209D1BB89002B06D07B687A68A5
:1028F000B2F8C02092B2134425E0BB89402B21D905
:102900007B68B3F8C0309AB27B68A3F8C4207B68B8
:102910000022A3F8C0207B687A68B2F8C02092B287
:10292000134410E07B68B3F8C0309BB203F140025F
:10293000BB899A4206D27B687A68B2F8C02092B20C
:10294000134400E0002318461437BD465DF8047BAD
:10295000704780B483B000AF78600B467B807B68A3
:10296000B3F8C0309AB27B8813449AB27B68A3F85C
:10297000C0207B68B3F8C0309AB27B68B3F8C4302B
:102980009BB29A4203D37B68C022A3F8C4207B6821
:10299000B3F8C0309BB2BF2B03D97B680022A3F8E9
:1029A000C02000BF0C37BD465DF8047B704780B483
:1029B00085B000AF78607B68B3F8C0309BB2FB8114
:1029C0007B68B3F8C4309BB2BB817B68B3F8C2307C
:1029D0009AB2FB899BB29A4208D8FB899BB21A46ED
:1029E0007B68B3F8C2309BB2D31A0AE0BB899BB2B2
:1029F0001A46FB899BB213447A68B2F8C22092B29D
:102A00009B1A18461437BD465DF8047B704780B4A6
:102A100085B000AF78607B68B3F8C0309BB2BB81F3
:102A20007B68B3F8C4309BB27B817B68B3F8C2305B
:102A30009AB27B899BB29A4203D17B680022A3F8A9
:102A4000C2207B68B3F8C2309AB2BB899BB29A426B
:102A500002D14FF0FF3319E07B68B3F8C2309BB26C
:102A60005A1C91B27A68A2F8C2101A467B689B5C25
:102A7000FB737B68B3F8C2309AB27B899BB29A42EF
:102A800003D37B680022A3F8C220FB7B18461437CF
:102A9000BD465DF8047B704780B485B000AF7860B8
:102AA0007B68B3F8C0309BB2FB817B68B3F8C4305D
:102AB0009BB2BB817B68B3F8C2309AB2BB899BB230
:102AC0009A4203D37B680022A3F8C2207B68B3F844
:102AD000C2309AB2FB899BB29A4202D14FF0FF33C7
:102AE00006E07B68B3F8C2309BB21A467B689B5CF9
:102AF00018461437BD465DF8047B704780B586B034
:102B000000AFF860B9601346FB80FB68B3F8C030D3
:102B10009BB2BB82FB68B3F8C4309BB27B82FB687C
:102B2000B3F8C2309AB27B8A9BB29A4203D3FB6855
:102B30000022A3F8C220FB68B3F8C2309AB2BB8A65
:102B40009BB29A4208D8BB8A9AB2FB68B3F8C230EB
:102B50009BB2D31AFB8207E07B8A9AB2FB68B3F878
:102B6000C2309BB2D31AFB82FA8AFB889A4201D206
:102B7000FB8AFB80FB68B3F8C2309BB21A46FB6845
:102B80001344FA881946B86809F07AFDFB68B3F86F
:102B9000C2309AB2FB8813449AB2FB68A3F8C220F1
:102BA000FB68B3F8C2309AB27B8A9BB29A4203D3D5
:102BB000FB680022A3F8C220FB8818461837BD46E0
:102BC00080BD80B489B000AFF8607A601A460B46C9
:102BD000FB7213463B81FB68B3F8C0309BB2BB82EB
:102BE000FB68B3F8C4309BB27B82FB68B3F8C23099
:102BF0009AB27B8A9BB29A4203D3FB680022A3F865
:102C0000C220FB68B3F8C2309AB2BB8A9BB29A4228
:102C100008D8BB8A9AB2FB68B3F8C2309BB2D31A09
:102C2000FB8307E07B8A9AB2FB68B3F8C2309BB2A1
:102C3000D31AFB83FA8B3B899A4201D2FB8B3B81EF
:102C4000FB68B3F8C2309BB21A46FB681344BB6101
:102C50000023BB832DE0BB8BBA6913441B78FB7543
:102C6000FA7DFB7A9A421CD1FB68B3F8C2309AB263
:102C7000BB8B13449BB201339AB2FB68A3F8C2200A
:102C8000FB68B3F8C2309AB27B8A9BB29A4203D3F4
:102C9000FB680022A3F8C220BB6ABA8B1A8001230A
:102CA00025E0BB8B7A681344FA7D1A70BB8B013325
:102CB000BB83BA8B3B899A42CDD3BB6A3A891A80CF
:102CC000FB68B3F8C2309AB23B8913449AB2FB68EE
:102CD000A3F8C220FB68B3F8C2309AB27B8A9BB2D9
:102CE0009A4203D3FB680022A3F8C22000231846AF
:102CF0002437BD465DF8047B7047000080B500AF07
:102D00000E4B1B680D4A43F4007313600B4B1B689A
:102D10000A4A43F480631360084B1B68074A43F474
:102D200080731360032000F073F9002000F008F8AE
:102D3000FEF768FA0023184680BD00BF003C024041
:102D400080B582B000AF7860124B1A68124B1B78C6
:102D500019464FF47A73B3FBF1F3B2FBF3F3184661
:102D600000F099F90346002B01D001230EE07B68A7
:102D70000F2B0AD8002279684FF0FF3000F053F98A
:102D8000064A7B681360002300E0012318460837D9
:102D9000BD4680BD00000020BC020020B80200201B
:102DA00080B400AF064B1B781A46064B1B681344D1
:102DB000044A136000BFBD465DF8047B704700BF46
:102DC000BC0200201009002080B400AF034B1B6838
:102DD0001846BD465DF8047B704700BF100900200F
:102DE00080B584B000AF7860FFF7EEFFB8607B6815
:102DF000FB60FB68B3F1FF3F05D00A4B1B781A4616
:102E0000FB681344FB6000BFFFF7DEFF0246BB68B0
:102E1000D31AFA689A42F7D800BF00BF1037BD46F0
:102E200080BD00BFBC02002080B485B000AF7860D8
:102E30007B6803F00703FB600C4BDB68BB60BA6880
:102E40004FF6FF031340BB60FB681A02BB681343D5
:102E500043F0BF6343F40033BB60044ABB68D360F4
:102E600000BF1437BD465DF8047B704700ED00E0FD
:102E700080B400AF044BDB681B0A03F0070318465D
:102E8000BD465DF8047B704700ED00E080B483B080
:102E900000AF0346FB7197F90730002B0BDBFB7982
:102EA00003F01F02074997F907305B09012000FA78
:102EB00002F241F8232000BF0C37BD465DF8047BC9
:102EC000704700BF00E100E080B483B000AF03466C
:102ED000FB7197F90730002B12DBFB7903F01F021F
:102EE0000A4997F907305B09012000FA02F2203302
:102EF00041F82320BFF34F8F00BFBFF36F8F00BF98
:102F000000BF0C37BD465DF8047B704700E100E070
:102F100080B483B000AF03463960FB7197F9073086
:102F2000002B0ADB3B68DAB20C4997F90730120133
:102F3000D2B20B4483F800230AE03B68DAB20849B6
:102F4000FB7903F00F03043B1201D2B20B441A7653
:102F500000BF0C37BD465DF8047B704700E100E020
:102F600000ED00E080B489B000AFF860B9607A602D
:102F7000FB6803F00703FB61FB69C3F10703042B44
:102F800028BF0423BB61FB690433062B02D9FB690C
:102F9000033B00E000237B614FF0FF32BB6902FA84
:102FA00003F3DA43BB681A407B699A404FF0FF3164
:102FB0007B6901FA03F3D9437B680B40134318463E
:102FC0002437BD465DF8047B7047000080B582B0B1
:102FD00000AF78607B68013BB3F1807F01D30123B0
:102FE0000FE00A4A7B68013B53600F214FF0FF302E
:102FF000FFF78EFF054B00229A60044B07221A60F0
:10300000002318460837BD4680BD00BF10E000E031
:1030100080B582B000AF78607868FFF705FF00BF29
:103020000837BD4680BD80B586B000AF0346B960A5
:103030007A60FB7300237B61FFF71AFF78617A687F
:10304000B9687869FFF78EFF024697F90F3011468D
:103050001846FFF75DFF00BF1837BD4680BD80B53D
:1030600082B000AF0346FB7197F907301846FFF7AF
:103070000DFF00BF0837BD4680BD80B582B000AFF0
:103080000346FB7197F907301846FFF71DFF00BF95
:103090000837BD4680BD80B582B000AF78607868E3
:1030A000FFF794FF034618460837BD4680BD80B53C
:1030B00084B000AF78607B689B6DFB60FFF784FE97
:1030C000B8607B6893F83530DBB2022B08D07B68A0
:1030D00080225A657B68002283F83420012352E065
:1030E0007B681B681A687B681B6822F016021A60EE
:1030F0007B681B685A697B681B6822F080025A61F2
:103100007B681B6C002B03D17B689B6C002B07D06A
:103110007B681B681A687B681B6822F008021A60CB
:103120007B681B681A687B681B6822F001021A60C2
:1031300013E0FFF749FE0246BB68D31A052B0CD9F2
:103140007B6820225A657B68002283F834207B68E4
:10315000032283F83520032315E07B681B681B6876
:1031600003F00103002BE4D17B68DB6D3F229A4022
:10317000FB689A607B68002283F834207B68012218
:1031800083F83520002318461037BD4680BD80B433
:1031900083B000AF78607B6893F83530DBB2022BE8
:1031A00004D07B6880225A6501230CE07B680522ED
:1031B00083F835207B681B681A687B681B6822F0DF
:1031C00001021A60002318460C37BD465DF8047BE7
:1031D0007047000080B489B000AF78603960002388
:1031E0007B6100233B610023BB610023FB6159E14C
:1031F0000122FB6902FA03F37B613B681B687A6971
:1032000013403B613A697B699A4240F048813B68D0
:103210005B6803F00303012B05D03B685B6803F098
:103220000303022B30D17B689B68BB61FB695B00A9
:10323000032202FA03F3DB43BA691340BB613B6824
:10324000DA68FB695B0002FA03F3BA691343BB61F6
:103250007B68BA699A607B685B68BB610122FB6925
:1032600002FA03F3DB43BA691340BB613B685B6856
:103270001B0903F00102FB6902FA03F3BA69134365
:10328000BB617B68BA695A603B685B6803F0030303
:10329000032B17D07B68DB68BB61FB695B000322F3
:1032A00002FA03F3DB43BA691340BB613B689A68D7
:1032B000FB695B0002FA03F3BA691343BB617B68E5
:1032C000BA69DA603B685B6803F00303022B23D121
:1032D000FB69DA087B68083253F82230BB61FB696E
:1032E00003F007039B000F2202FA03F3DB43BA69E2
:1032F0001340BB613B681A69FB6903F007039B003D
:1033000002FA03F3BA691343BB61FB69DA087B680D
:103310000832B96943F822107B681B68BB61FB69FE
:103320005B00032202FA03F3DB43BA691340BB617B
:103330003B685B6803F00302FB695B0002FA03F37E
:10334000BA691343BB617B68BA691A603B685B6802
:1033500003F08053002B00F0A2800023FB60574B4A
:103360005B6C564A43F480435364544B5B6C03F4E8
:103370008043FB60FB68524AFB699B08023352F8AA
:103380002330BB61FB6903F003039B000F2202FAA9
:1033900003F3DB43BA691340BB617B68494A93423C
:1033A00019D07B68484A934213D07B68474A9342BE
:1033B0000DD07B68464A934207D07B68454A9342CA
:1033C00001D1042308E0072306E0032304E00223DD
:1033D00002E0012300E00023FA6902F003029200F8
:1033E0009340BA691343BB613549FB699B080233BB
:1033F000BA6941F82320384B1B68BB613B69DB434A
:10340000BA691340BB613B685B6803F48033002BEF
:1034100003D0BA693B691343BB612F4ABB69136090
:103420002D4B5B68BB613B69DB43BA691340BB61F1
:103430003B685B6803F40033002B03D0BA693B6937
:103440001343BB61244ABB695360234B9B68BB6138
:103450003B69DB43BA691340BB613B685B6803F4BB
:103460008013002B03D0BA693B691343BB611A4A2E
:10347000BB699360184BDB68BB613B69DB43BA698E
:103480001340BB613B685B6803F40013002B03D05F
:10349000BA693B691343BB610F4ABB69D360FB69DF
:1034A0000133FB61FB690F2B7FF6A2AE00BF00BFAB
:1034B0002437BD465DF8047B704700BF00380240EA
:1034C00000380140000002400004024000080240B1
:1034D000000C024000100240003C014080B487B064
:1034E00000AF7860396000233B610023FB6000235C
:1034F000BB6000237B61BBE001227B6902FA03F31E
:103500003B613A683B691340FB60FA683B699A4249
:1035100040F0AB805C4A7B699B08023352F8233051
:10352000BB607B6903F003039B000F2202FA03F3E5
:10353000BA681340BB607B68544A934219D07B68D9
:10354000534A934213D07B68524A93420DD07B6812
:10355000514A934207D07B68504A934201D10423D9
:1035600008E0072306E0032304E0022302E001232E
:1035700000E000237A6902F0030292009340BA68E7
:103580009A4232D1464B1A68FB68DB4344491340E8
:103590000B60434B5A68FB68DB43414913404B6067
:1035A0003F4B9A68FB68DB433D4913408B603C4BC3
:1035B000DA68FB68DB433A491340CB607B6903F070
:1035C00003039B000F2202FA03F3BB602E4A7B69C0
:1035D0009B08023352F82310BB68DA432A487B6900
:1035E0009B080A40023340F823207B681A687B69F5
:1035F0005B00032101FA03F3DB431A407B681A6086
:103600007B69DA087B68083253F822107B6903F083
:1036100007039B000F2202FA03F3DB437A69D20807
:1036200019407B68083243F822107B68DA687B69AE
:103630005B00032101FA03F3DB431A407B68DA6085
:103640007B685A6801217B6901FA03F3DB431A4066
:103650007B685A607B689A687B695B00032101FA8A
:1036600003F3DB431A407B689A607B6901337B611B
:103670007B690F2B7FF640AF00BF00BF1C37BD46F4
:103680005DF8047B704700BF003801400000024035
:103690000004024000080240000C024000100240FA
:1036A000003C014080B485B000AF78600B467B8061
:1036B0007B681A697B881340002B02D00123FB73BF
:1036C00001E00023FB73FB7B18461437BD465DF811
:1036D000047B704780B483B000AF78600B467B807A
:1036E00013467B707B78002B03D07A887B689A61C5
:1036F00003E07B881A047B689A6100BF0C37BD46E3
:103700005DF8047B704780B485B000AF78600B46ED
:103710007B807B685B69FB607A88FB6813401A04D6
:10372000FB68D9437B880B401A437B689A6100BFD2
:103730001437BD465DF8047B7047000080B584B047
:1037400000AF78607B68002B01D101232BE17B68FF
:1037500093F83D30DBB2002B06D17B68002283F862
:103760003C207868FDF776FD7B68242283F83D20B5
:103770007B681B681A687B681B6822F001021A606C
:103780007B681B681A687B681B6842F400421A60F9
:103790007B681B681A687B681B6822F400421A6009
:1037A00002F032FEF8607B685B68814A934207D87A
:1037B000FB68804A934294BF01230023DBB206E0FA
:1037C000FB687D4A934294BF01230023DBB2002BA8
:1037D00001D00123E7E0FB68784AA2FB03239B0C9E
:1037E000BB607B681B685B6823F03F017B681B68DC
:1037F000BA680A435A607B681B681B6A23F03F0162
:103800007B685B686A4A934202D8BB68013309E06F
:10381000BB684FF4967202FB03F3694AA2FB0323D1
:103820009B0901337A6812680B4313627B681B683B
:10383000DB6923F44F4222F0FF027B685B685C493E
:103840008B4219D8FB68591E7B685B685B00B1FB33
:10385000F3F3591C40F6FC730B40002B0AD0FB68B5
:10386000591E7B685B685B00B1FBF3F30133C3F364
:103870000B0351E004234FE07B689B68002B11D1C0
:10388000FB68581E7B6859680B465B000B44B0FB15
:10389000F3F30133C3F30B03002B0CBF012300230D
:1038A000DBB212E0FB68581E7B6859680B469B0030
:1038B0000B4499000B44B0FBF3F30133C3F30B0348
:1038C000002B0CBF01230023DBB2002B01D001230E
:1038D00022E07B689B68002B0ED1FB68581E7B683A
:1038E00059680B465B000B44B0FBF3F30133C3F3A1
:1038F0000B0343F400430FE0FB68581E7B685968D4
:103900000B469B000B4499000B44B0FBF3F30133CF
:10391000C3F30B0343F44043796809681343CB6155
:103920007B681B681B6823F0C0017B68DA697B68D1
:103930001B6A1A437B681B680A431A607B681B6812
:103940009B6823F4034323F0FF037A6811697A68C4
:10395000D26811437A6812680B4393607B681B68D6
:10396000DB6823F0FF017B685A697B689B691A4317
:103970007B681B680A43DA607B681B681A687B688F
:103980001B6842F001021A607B6800221A647B689F
:10399000202283F83D207B6800221A637B68002286
:1039A00083F83E20002318461037BD4680BD00BF77
:1039B000A08601007F841E00FF083D0083DE1B43BC
:1039C000D34D621080B588B002AFF8607A601A46B5
:1039D0000B467B8113463B81FFF7F6F97861FB6864
:1039E00093F83D30DBB2202B40F0E0807B69009300
:1039F000192301227049F86800F086FD0346002B68
:103A000001D00223D3E0FB6893F83C30012B01D1B5
:103A10000223CCE0FB68012283F83C20FB681B6892
:103A20001B6803F00103012B07D0FB681B681A68B1
:103A3000FB681B6842F001021A60FB681B681A6889
:103A4000FB681B6822F400621A60FB68212283F87D
:103A50003D20FB68102283F83E20FB6800221A6498
:103A6000FB687A685A62FB683A895A85FB685B8D05
:103A70009AB2FB681A85FB68504ADA6279897B69D9
:103A80003A6AF86800F0F0FB0346002B01D00123EE
:103A90008DE000233B61FB681B685B693B61FB6851
:103AA0001B689B693B613B6966E07A69396AF86823
:103AB00000F000FE0346002B0DD0FB681B6C042BAE
:103AC00007D1FB681B681A68FB681B6842F4007228
:103AD0001A6001236BE0FB685B6A1A78FB681B685D
:103AE0001A61FB685B6A5A1CFB685A62FB685B8D53
:103AF0009BB2013B9AB2FB685A85FB681B8D013B68
:103B00009AB2FB681A85FB681B685B6903F00403C3
:103B1000042B1BD1FB681B8D002B17D0FB685B6A45
:103B20001A78FB681B681A61FB685B6A5A1CFB68A1
:103B30005A62FB685B8D9BB2013B9AB2FB685A8567
:103B4000FB681B8D013B9AB2FB681A857A69396A5A
:103B5000F86800F0F0FD0346002B0DD0FB681B6CED
:103B6000042B07D1FB681B681A68FB681B6842F4CA
:103B700000721A6001231AE0FB681B8D002B94D1A0
:103B8000FB681B681A68FB681B6842F400721A60C5
:103B9000FB68202283F83D20FB68002283F83E204A
:103BA000FB68002283F83C20002300E00223184633
:103BB0001837BD4680BD00BF020010000000FFFFA7
:103BC00080B58CB002AFF8607A601A460B467B81F4
:103BD00013463B81FFF7F8F87862FB6893F83D30B5
:103BE000DBB2202B40F00B827B6A00931923012269
:103BF0007C49F86800F088FC0346002B01D00223C2
:103C0000FEE1FB6893F83C30012B01D10223F7E180
:103C1000FB68012283F83C20FB681B681B6803F0EB
:103C20000103012B07D0FB681B681A68FB681B683F
:103C300042F001021A60FB681B681A68FB681B6887
:103C400022F400621A60FB68222283F83D20FB68A0
:103C5000102283F83E20FB6800221A64FB687A6811
:103C60005A62FB683A895A85FB685B8D9AB2FB6899
:103C70001A85FB685C4ADA6279897B6A3A6BF86874
:103C800000F074FB0346002B01D00123B8E1FB6870
:103C90001B8D002B13D100233B62FB681B685B6903
:103CA0003B62FB681B689B693B623B6AFB681B6865
:103CB0001A68FB681B6842F400721A608CE1FB68AA
:103CC0001B8D012B1BD1FB681B681A68FB681B68E6
:103CD00022F480621A600023FB61FB681B685B6949
:103CE000FB61FB681B689B69FB61FB69FB681B68E8
:103CF0001A68FB681B6842F400721A606CE1FB688A
:103D00001B8D022B1BD1FB681B681A68FB681B68A4
:103D100022F480621A60FB681B681A68FB681B68E3
:103D200042F400621A600023BB61FB681B685B6998
:103D3000BB61FB681B689B69BB61BB694CE1FB68AD
:103D40001B681A68FB681B6842F480621A600023D3
:103D50007B61FB681B685B697B61FB681B689B6917
:103D60007B617B6938E1FB681B8D032B00F2F180DE
:103D7000FB681B8D012B23D17A6A396BF86800F040
:103D80001BFD0346002B01D0012339E1FB681B68B2
:103D90001A69FB685B6AD2B21A70FB685B6A5A1CCC
:103DA000FB685A62FB681B8D013B9AB2FB681A855F
:103DB000FB685B8D9BB2013B9AB2FB685A850BE1B5
:103DC000FB681B8D022B4ED17B6A00933B6B00225C
:103DD0000649F86800F098FB0346002B08D0012341
:103DE0000EE100BF020010000000FFFF0400010010
:103DF000FB681B681A68FB681B6842F400721A6053
:103E0000FB681B681A69FB685B6AD2B21A70FB68B0
:103E10005B6A5A1CFB685A62FB681B8D013B9AB2B5
:103E2000FB681A85FB685B8D9BB2013B9AB2FB680D
:103E30005A85FB681B681A69FB685B6AD2B21A7004
:103E4000FB685B6A5A1CFB685A62FB681B8D013B6E
:103E50009AB2FB681A85FB685B8D9BB2013B9AB2F4
:103E6000FB685A85B8E07B6A00933B6B0022664989
:103E7000F86800F049FB0346002B01D00123BFE0A6
:103E8000FB681B681A68FB681B6822F480621A6072
:103E9000FB681B681A69FB685B6AD2B21A70FB6820
:103EA0005B6A5A1CFB685A62FB681B8D013B9AB225
:103EB000FB681A85FB685B8D9BB2013B9AB2FB687D
:103EC0005A857B6A00933B6B00224F49F86800F0EB
:103ED0001BFB0346002B01D0012391E0FB681B680C
:103EE0001A68FB681B6842F400721A60FB681B6862
:103EF0001A69FB685B6AD2B21A70FB685B6A5A1C6B
:103F0000FB685A62FB681B8D013B9AB2FB681A85FD
:103F1000FB685B8D9BB2013B9AB2FB685A85FB68DC
:103F20001B681A69FB685B6AD2B21A70FB685B6A2D
:103F30005A1CFB685A62FB681B8D013B9AB2FB68F6
:103F40001A85FB685B8D9BB2013B9AB2FB685A8570
:103F500042E07A6A396BF86800F02EFC0346002BC9
:103F600001D001234CE0FB681B681A69FB685B6A9F
:103F7000D2B21A70FB685B6A5A1CFB685A62FB6813
:103F80001B8D013B9AB2FB681A85FB685B8D9BB267
:103F9000013B9AB2FB685A85FB681B685B6903F0BA
:103FA0000403042B18D1FB681B681A69FB685B6A61
:103FB000D2B21A70FB685B6A5A1CFB685A62FB68D3
:103FC0001B8D013B9AB2FB681A85FB685B8D9BB227
:103FD000013B9AB2FB685A85FB681B8D002B7FF46E
:103FE000C2AEFB68202283F83D20FB68002283F8E4
:103FF0003E20FB68002283F83C20002300E00223DF
:1040000018462837BD4680BD0400010080B58AB03F
:1040100002AFF8607A603B600B467B81FEF7D4FE0E
:10402000F8610123BB61FB6893F83D30DBB2202BC4
:1040300040F01181FB690093192301228849F86837
:1040400000F062FA0346002B01D0022304E1FB6872
:1040500093F83C30012B01D10223FDE0FB680122E3
:1040600083F83C20FB681B681B6803F00103012BED
:1040700007D0FB681B681A68FB681B6842F00102E6
:104080001A60FB681B681A68FB681B6822F40062F0
:104090001A60FB68242283F83D20FB6800221A6422
:1040A000FB68704ADA62FB681B681A68FB681B6869
:1040B00042F480721A60FB6900933B6800224FF063
:1040C0000111F86800F020FA0346002B0DD0FB68C0
:1040D0001B681B6803F48073B3F5807F03D1FB6812
:1040E0004FF400721A640323B6E07B89DBB21A46F0
:1040F000FB681B6802F0FE021A61FEF765FEF861BC
:10410000FB681B685B6903F00203022B0CBF0123F1
:104110000023DBB2FB75FB681B685B6903F48063FB
:10412000B3F5806F0CBF01230023DBB2BB7525E024
:10413000FEF74AFE0246FB69D31A3A689A4202D356
:104140003B68002B03D1FB68A02283F83D20FB686D
:104150001B685B6903F00203022B0CBF01230023E1
:10416000DBB2FB75FB681B685B6903F48063B3F526
:10417000806F0CBF01230023DBB2BB75FB6893F893
:104180003D30DBB2A02B05D0FB7D002B02D1BB7DE7
:10419000002BCDD0FB68202283F83D20FB681B68F4
:1041A0005B6903F00203022B29D1FB681B681A68C4
:1041B000FB681B6842F400721A6000233B61FB68D5
:1041C0001B685B693B61FB681B689B693B613B69E2
:1041D000FB690093192301222149F86800F094F942
:1041E0000346002B01D0012336E0FB68202283F830
:1041F0003D20FB68002283F83C2000232CE0FB6874
:104200001B681A68FB681B6842F400721A60FB683E
:104210001B686FF480625A61FB69009319230122C5
:104220000F49F86800F070F90346002B01D0012314
:1042300012E0BB690133BB61BA697B689A42FFF443
:1042400032AFFB68202283F83D20FB68002283F810
:104250003C20012300E0022318462037BD4680BDE4
:10426000020010000000FFFF80B588B002AFF860C8
:104270007A603B600B467B81FB68DB6A7B617B6914
:10428000082B06D07B69012B03D07B6913F5803F97
:1042900008D1FB681B681A68FB681B6842F48072CF
:1042A0001A600BE0FB681B6B122B07D1FB681B68C5
:1042B0001A68FB681B6842F480721A603B680093BE
:1042C0007B6800224FF00111F86800F01DF90346E9
:1042D000002B0DD0FB681B681B6803F48073B3F5DB
:1042E000807F03D1FB684FF400721A64032335E02A
:1042F000FB681B69B3F5804F08D17B89DBB21A4696
:10430000FB681B6802F0FE021A611BE07B89DB116F
:10431000DBB203F00603DBB263F00F03DAB2FB6833
:104320001B681A613B687A680E49F86800F043F927
:104330000346002B01D0012310E07B89DAB2FB6831
:104340001B681A613B687A680749F86800F033F91E
:104350000346002B01D0012300E000231846183744
:10436000BD4680BD080001000200010080B588B094
:1043700002AFF8607A603B600B467B81FB68DB6ACA
:104380007B61FB681B681A68FB681B6842F48062EB
:104390001A607B69082B06D07B69012B03D07B69EF
:1043A00013F5803F08D1FB681B681A68FB681B681F
:1043B00042F480721A600BE0FB681B6B112B07D173
:1043C000FB681B681A68FB681B6842F480721A60FD
:1043D0003B6800937B6800224FF00111F86800F001
:1043E00093F80346002B0DD0FB681B681B6803F491
:1043F0008073B3F5807F03D1FB684FF400721A64B9
:10440000032379E0FB681B69B3F5804F08D17B89F2
:10441000DBB243F00103DAB2FB681B681A615FE0AC
:104420007B89DB11DBB203F00603DBB263F00F0321
:10443000DAB2FB681B681A613B687A683049F86831
:1044400000F0B9F80346002B01D0012354E07B892A
:10445000DAB2FB681B681A613B687A682949F86818
:1044600000F0A9F80346002B01D0012344E000230B
:104470003B61FB681B685B693B61FB681B689B6970
:104480003B613B69FB681B681A68FB681B6842F468
:1044900080721A603B6800937B6800224FF0011124
:1044A000F86800F031F80346002B0DD0FB681B685C
:1044B0001B6803F48073B3F5807F03D1FB684FF46E
:1044C00000721A64032317E07B89DB11DBB203F06F
:1044D0000603DBB263F00E03DAB2FB681B681A61F5
:1044E0003B687A680749F86800F065F80346002BD6
:1044F00001D0012300E0002318461837BD4680BDD7
:10450000080001000200010080B584B000AFF8602F
:10451000B9603B601346FB7125E03B68B3F1FF3F98
:1045200021D0FEF751FC0246BB69D31A3A689A4281
:1045300002D33B68002B16D1FB6800221A63FB688C
:10454000202283F83D20FB68002283F83E20FB6890
:104550001B6C43F02002FB681A64FB68002283F89E
:104560003C20012323E0BB681B0CDBB2012B0DD1E7
:10457000FB681B685B69DA43BB6813409BB2002B86
:104580000CBF01230023DBB21A460CE0FB681B685A
:104590009B69DA43BB6813409BB2002B0CBF01231D
:1045A0000023DBB21A46FB799A42B6D000231846A4
:1045B0001037BD4680BD80B584B000AFF860B960EB
:1045C0007A603B6051E0FB681B685B6903F48063C1
:1045D000B3F5806F23D1FB681B681A68FB681B6802
:1045E00042F400721A60FB681B686FF480625A61C3
:1045F000FB6800221A63FB68202283F83D20FB68D9
:10460000002283F83E20FB681B6C43F00402FB6829
:104610001A64FB68002283F83C20012346E07B6893
:10462000B3F1FF3F21D0FEF7CFFB02463B68D31A20
:104630007A689A4202D37B68002B16D1FB6800226D
:104640001A63FB68202283F83D20FB68002283F870
:104650003E20FB681B6C43F02002FB681A64FB6879
:10466000002283F83C20012320E0BB681B0CDBB256
:10467000012B0CD1FB681B685B69DA43BB681340F4
:104680009BB2002B14BF01230023DBB20BE0FB68BD
:104690001B689B69DA43BB6813409BB2002B14BFB5
:1046A00001230023DBB2002B8DD1002318461037E5
:1046B000BD4680BD80B584B000AFF860B9607A6057
:1046C0002DE0F86800F0CEF80346002B01D001235E
:1046D0002DE0BB68B3F1FF3F21D0FEF775FB02462A
:1046E0007B68D31ABA689A4202D3BB68002B16D1F2
:1046F000FB6800221A63FB68202283F83D20FB68D8
:10470000002283F83E20FB681B6C43F02002FB680C
:104710001A64FB68002283F83C20012307E0FB6851
:104720001B685B6903F08003802BCAD10023184605
:104730001037BD4680BD80B584B000AFF860B96069
:104740007A602DE0F86800F08DF80346002B01D068
:1047500001232DE0BB68B3F1FF3F21D0FEF734FB0E
:1047600002467B68D31ABA689A4202D3BB68002B10
:1047700016D1FB6800221A63FB68202283F83D20D3
:10478000FB68002283F83E20FB681B6C43F020028C
:10479000FB681A64FB68002283F83C20012307E0D1
:1047A000FB681B685B6903F00403042BCAD1002378
:1047B00018461037BD4680BD80B584B000AFF860A4
:1047C000B9607A6042E0FB681B685B6903F0100324
:1047D000102B19D1FB681B686FF010025A61FB683F
:1047E00000221A63FB68202283F83D20FB68002228
:1047F00083F83E20FB681A6CFB681A64FB68002291
:1048000083F83C20012329E0FEF7DEFA02467B68AC
:10481000D31ABA689A4202D3BB68002B16D1FB6840
:1048200000221A63FB68202283F83D20FB680022E7
:1048300083F83E20FB681B6C43F02002FB681A647F
:10484000FB68002283F83C20012307E0FB681B681B
:104850005B6903F04003402BB5D1002318461037A5
:10486000BD4680BD80B483B000AF78607B681B68B4
:104870005B6903F48063B3F5806F1BD17B681B68B1
:104880006FF480625A617B6800221A637B68202281
:1048900083F83D207B68002283F83E207B681B6CF8
:1048A00043F004027B681A647B68002283F83C2092
:1048B000012300E0002318460C37BD465DF8047B59
:1048C0007047F0B58FB00AAF78607B68002B01D1DC
:1048D00001230FE17B681B68BB607B6893F8BD33E5
:1048E000DBB2002B06D17B68002283F8BC237868FA
:1048F00007F082FB7B68032283F8BD23BB68DB6B78
:1049000003F48073002B02D17B6800221A617B685C
:104910001B68184603F01BF97B681B683B607E68C8
:104920006D4606F110040FCC0FC50FCC0FC594E8EF
:10493000030085E80300331D0ECB386802F0F2FF58
:104940000346002B05D07B68022283F8BD23012398
:10495000D0E07B681B680021184603F009F90023AA
:10496000FB734AE0FA7B79681346DB009B1A9B00D5
:104970000B443D3301221A70FA7B79681346DB0041
:104980009B1A9B000B443C33FA7B1A70FA7BFB7B2F
:1049900098B279681346DB009B1A9B000B444233A4
:1049A00002461A80FA7B79681346DB009B1A9B004B
:1049B0000B443F3300221A70FA7B79681346DB0000
:1049C0009B1A9B000B44443300221A60FA7B7968DF
:1049D0001346DB009B1A9B000B44483300221A60ED
:1049E000FA7B79681346DB009B1A9B000B4450331B
:1049F00000221A60FB7B0133FB73FA7B7B685B68E8
:104A00009A42AFD30023FB7344E0FA7B79681346E4
:104A1000DB009B1A9B000B4403F2FD1300221A706B
:104A2000FA7B79681346DB009B1A9B000B4403F565
:104A3000FE73FA7B1A70FA7B79681346DB009B1AC7
:104A40009B000B4403F2FF1300221A70FA7B796873
:104A50001346DB009B1A9B000B4403F501730022F5
:104A60001A60FA7B79681346DB009B1A9B000B44A3
:104A700003F5027300221A60FA7B79681346DB00A3
:104A80009B1A9B000B4403F5047300221A60FB7B06
:104A90000133FB73FA7B7B685B689A42B5D37B6812
:104AA0001B683B607E686D4606F110040FCC0FC595
:104AB0000FCC0FC594E8030085E80300331D0ECB2F
:104AC000386803F07FF80346002B05D07B6802228C
:104AD00083F8BD2301230DE07B68002283F8382092
:104AE0007B68012283F8BD237B681B68184604F0AD
:104AF000C7F8002318461437BD46F0BD80B584B012
:104B000000AF78607B681B68FB607B6893F8BC3300
:104B1000012B01D1022320E07B68012283F8BC2312
:104B20007B689B6A012B09D17B689B69012B05D0AF
:104B3000FB689B6B43F48032FB689A637B681B685D
:104B4000184602F0F3FF7B681B68184604F077F8FC
:104B50007B68002283F8BC23002318461037BD462B
:104B600080BD90B58DB000AF78607B681B683B62FC
:104B70003B6AFB617B681B68184604F035F9034605
:104B8000002B40F09D837B681B68184604F099F861
:104B90000346002B00F093837B681B68184604F0E3
:104BA00090F8034603F00203022B07D17B681B68D1
:104BB0005A697B681B6802F002025A617B681B68B5
:104BC000184604F07EF8034603F01003102B61D161
:104BD0007B681B689A697B681B6822F010029A61E7
:104BE0003B6A1B6ABB61BB6903F00F021346DB0023
:104BF0009B1A9B0003F5FC737A68134404337B61B2
:104C0000BB695B0C03F00F03022B24D1BA6947F692
:104C1000F0731340002B35D07B69D968BB691B0941
:104C20009BB2C3F30A039BB21A46386A03F0E4FE50
:104C30007B69DA68BB691B09C3F30A031A447B6901
:104C4000DA607B699A69BB691B09C3F30A031A44DA
:104C50007B699A6116E0BB695B0C03F00F03062BBE
:104C600010D17B6803F5717308221946386A03F086
:104C7000C3FE7B699A69BB691B09C3F30A031A4423
:104C80007B699A617B681B689A697B681B6842F044
:104C900010029A617B681B68184604F012F80346FC
:104CA00003F40023B3F5002F6ED100237B627B68F1
:104CB0001B68184604F018F8B86262E0BB6A03F09B
:104CC0000103002B57D07B681B687A6AD2B2114669
:104CD000184604F03DF838613B6903F00103002BEE
:104CE0000CD07B6A5A01FB69134403F530631A4602
:104CF00001239360796A786800F0B0FD3B6903F0A6
:104D00000803002B0CD07B6A5A01FB69134403F59E
:104D100030631A4608239360796A786800F0AAFE27
:104D20003B6903F01003002B08D07B6A5A01FB6932
:104D3000134403F530631A46102393603B6903F074
:104D40002003002B08D07B6A5A01FB69134403F54A
:104D500030631A46202393603B6903F40053002B11
:104D600009D07B6A5A01FB69134403F530631A4684
:104D70004FF4005393607B6A01337B62BB6A5B082C
:104D8000BB62BB6A002B99D17B681B68184603F095
:104D900098FF034603F48023B3F5802F40F0C080D2
:104DA0007B681B68184603F0B9FFB86200237B627A
:104DB000B2E0BB6A03F00103002B00F0A7807B6820
:104DC0001B687A6AD2B21146184603F0DFFF3861D9
:104DD0003B6903F00103002B57D07B6A03F00F03FC
:104DE000012202FA03F3FB60FB6903F500635A6BCF
:104DF000FB68DB43F96901F5006113404B637B6A93
:104E00005A01FB69134403F510631A4601239360AA
:104E10007B681B69012B32D179687A6A1346DB0003
:104E20009B1A9B000B444833196878687A6A1346CA
:104E3000DB009B1A9B00034444331B6819447868C9
:104E40007A6A1346DB009B1A9B00034448331960BF
:104E50007B6A002B13D179687A6A1346DB009B1AB0
:104E60009B000B4450331B68002B08D17B681868EB
:104E70007B6803F571731A46012103F0E7FF7B6A33
:104E8000DBB21946786807F038F93B6903F008038C
:104E9000002B08D07B6A5A01FB69134403F51063A9
:104EA0001A46082393603B6903F01003002B08D0D7
:104EB0007B6A5A01FB69134403F510631A461023F9
:104EC00093603B6903F04003002B08D07B6A5A01D2
:104ED000FB69134403F510631A46402393603B6952
:104EE00003F00203002B08D07B6A5A01FB691344CC
:104EF00003F510631A46022393603B6903F08003B5
:104F0000002B03D0796A786800F01BFC7B6A0133C0
:104F10007B62BB6A5B08BB62BB6A002B7FF449AF54
:104F20007B681B68184603F0CCFE034603F0004381
:104F3000B3F1004F22D1FB6903F500635B68FA69A6
:104F400002F5006223F0010353607B6893F8F433A9
:104F5000012B08D17B68002283F8F42300217868B4
:104F600000F026FE02E0786807F034F97B681B68E1
:104F70005A697B681B6802F000425A617B681B68B3
:104F8000184603F09EFE034603F40063B3F5006F7A
:104F900012D1FB6903F500639B6803F00103012B49
:104FA00002D1786807F0F0F87B681B685A697B6863
:104FB0001B6802F400625A617B681B68184603F0A4
:104FC00080FE034603F48053B3F5805F40F0C78052
:104FD000FB6903F500635B68FA6902F5006223F080
:104FE000010353607B681B681021184602F04EFFD6
:104FF0000023FB6256E0FB6A5A01FB69134403F588
:1050000010631A464FF67F339360FB6A5A01FB69BF
:10501000134403F510631B68FA6A5101FA690A44E4
:1050200002F5106223F400131360FB6A5A01FB6956
:10503000134403F510631B68FA6A5101FA690A44C4
:1050400002F5106243F000631360FB6A5A01FB69CA
:10505000134403F530631A464FF67F339360FB6ABF
:105060005A01FB69134403F530631B68FA6A510166
:10507000FA690A4402F5306223F400131360FB6AF4
:105080005A01FB69134403F530631B68FA6A510146
:10509000FA690A4402F5306243F000631360FB6A68
:1050A0000133FB627B685B68FA6A9A42A3D3FB69AF
:1050B00003F50063DB69FA6902F5006243F001134E
:1050C000D3617B681B6B002B16D0FB6903F5006373
:1050D000D3F88430FA6902F5006243F00B03C2F89A
:1050E0008430FB6903F500635B6CFA6902F50062CA
:1050F00043F00B03536415E0FB6903F500635B6940
:10510000FA6902F5006243F4005343F02B03536144
:10511000FB6903F500631B69FA6902F5006243F05D
:105120000B031361FB6903F500631B68FA6902F561
:10513000006223F4FE6313607B6818687B681B6958
:10514000D9B27B6803F571731A4603F07FFE7B6862
:105150001B685A697B681B6802F480525A617B683D
:105160001B68184603F0ADFD034603F40053B3F586
:10517000005F24D17B681B68184603F043FE7B6800
:105180001B68184602F0E3FE03461A467B68DA60A5
:105190007B681C6801F02CF901467B68DB68DBB298
:1051A0001A46204602F020FC786806F0CEFF7B68A5
:1051B0001B685A697B681B6802F400525A617B685D
:1051C0001B68184603F07DFD034603F00803082B17
:1051D0000AD1786806F0ABFF7B681B685A697B6868
:1051E0001B6802F008025A617B681B68184603F0CE
:1051F00068FD034603F48013B3F5801F0FD100232D
:105200007B627B6ADBB21946786807F003F87B683B
:105210001B685A697B681B6802F480125A617B68BC
:105220001B68184603F04DFD034603F40013B3F565
:10523000001F0FD100237B627B6ADBB219467868BE
:1052400006F0D6FF7B681B685A697B681B6802F40E
:1052500000125A617B681B68184603F032FD034652
:1052600003F08043B3F1804F0AD1786806F0E4FF81
:105270007B681B685A697B681B6802F080425A6130
:105280007B681B68184603F01CFD034603F004030B
:10529000042B15D17B681B685B68BB61BB6903F09D
:1052A0000403002B02D0786806F0D4FF7B681B68EB
:1052B00059687B681B68BA690A435A6000E000BFFE
:1052C0003437BD4690BD80B582B000AF78600B46E4
:1052D000FB707B6893F8BC33012B01D1022313E0F0
:1052E0007B68012283F8BC237B68FA7883F8382036
:1052F0007B681B68FA781146184603F07AFC7B68D5
:10530000002283F8BC23002318460837BD4680BD21
:1053100080B584B000AF7860084611461A4603464F
:10532000FB700B463B801346BB700023FB7297F962
:105330000330002B0FDAFB7803F00F021346DB007B
:105340009B1A9B0038337A6813440433FB60FB6874
:1053500001225A700FE0FB7803F00F021346DB00C6
:105360009B1A9B0003F5FC737A6813440433FB60BB
:10537000FB6800225A70FB7803F00F03DAB2FB6877
:105380001A703A88FB689A60FB68BA78DA70FB6832
:105390005B78002B04D0FB681B789AB2FB68DA803C
:1053A000BB78022B02D1FB6800221A717B6893F84C
:1053B000BC33012B01D102230EE07B68012283F86C
:1053C000BC237B681B68F968184602F0E5FD7B6822
:1053D000002283F8BC23FB7A18461037BD4680BDF7
:1053E00080B584B000AF78600B46FB7097F903304E
:1053F000002B0FDAFB7803F00F021346DB009B1A39
:105400009B0038337A6813440433FB60FB68012245
:105410005A700FE0FB7803F00F021346DB009B1A73
:105420009B0003F5FC737A6813440433FB60FB684C
:1054300000225A70FB7803F00F03DAB2FB681A708F
:105440007B6893F8BC33012B01D102230EE07B680B
:10545000012283F8BC237B681B68F968184602F0B8
:1054600023FE7B68002283F8BC23002318461037F4
:10547000BD4680BD80B586B000AFF8607A603B6005
:105480000B46FB72FB7A03F00F021346DB009B1AFC
:105490009B0003F5FC73FA68134404337B617B695A
:1054A0007A68DA607B693A685A617B6900229A619E
:1054B0007B6900225A70FB7A03F00F03DAB27B6932
:1054C0001A70FB681B69012B02D17A687B691A612B
:1054D000FB7A03F00F03002B09D1FB681868FB6807
:1054E0001B69DBB21A46796903F0FEF808E0FB6835
:1054F0001868FB681B69DBB21A46796902F0B0FED6
:10550000002318461837BD4680BD80B483B000AF75
:1055100078600B46FB70FB7803F00F027968134646
:10552000DB009B1A9B000B4403F505731B681846B0
:105530000C37BD465DF8047B704780B586B000AF80
:10554000F8607A603B600B46FB72FB7A03F00F0257
:105550001346DB009B1A9B003833FA68134404336C
:105560007B617B697A68DA607B693A685A617B693A
:1055700000229A617B6901225A70FB7A03F00F03C3
:10558000DAB27B691A70FB681B69012B02D17A6859
:105590007B691A61FB7A03F00F03002B09D1FB68CA
:1055A0001868FB681B69DBB21A46796903F09CF83E
:1055B00008E0FB681868FB681B69DBB21A4679696A
:1055C00002F04EFE002318461837BD4680BD80B558
:1055D00084B000AF78600B46FB70FB7803F00F02DD
:1055E0007B685B689A4201D9012350E097F9033048
:1055F000002B0FDAFB7803F00F021346DB009B1A37
:105600009B0038337A6813440433FB60FB68012243
:105610005A700DE0FA781346DB009B1A9B0003F5E5
:10562000FC737A6813440433FB60FB6800225A70F1
:10563000FB6801229A70FB7803F00F03DAB2FB6873
:105640001A707B6893F8BC33012B01D102231EE052
:105650007B68012283F8BC237B681B68F9681846C5
:1056600003F0F3F9FB7803F00F03002B0AD17B68FA
:1056700018687B681B69D9B27B6803F571731A4699
:1056800003F0E4FB7B68002283F8BC230023184668
:105690001037BD4680BD80B584B000AF78600B4642
:1056A000FB70FB7803F00F027B685B689A4201D9BC
:1056B000012342E097F90330002B0FDAFB7803F067
:1056C0000F021346DB009B1A9B0038337A681344A1
:1056D0000433FB60FB6801225A700FE0FB7803F093
:1056E0000F021346DB009B1A9B0003F5FC737A68DC
:1056F00013440433FB60FB6800225A70FB680022ED
:105700009A70FB7803F00F03DAB2FB681A707B68BB
:1057100093F8BC33012B01D102230EE07B680122F8
:1057200083F8BC237B681B68F968184603F0FBF913
:105730007B68002283F8BC23002318461037BD463F
:1057400080BD80B58AB002AF786039607B681B6825
:105750007B617B693B613A681346DB009B1A9B00C7
:1057600038337A6813440433FB60FB689A69FB683A
:105770005B699A4201D901236CE0FB685A69FB68B6
:105780009B69D31AFB61FB689B68FA699A4202D94C
:10579000FB689B68FB61FB6903339B08BB612BE0E3
:1057A000FB685A69FB689B69D31AFB61FB689B68BD
:1057B000FA699A4202D9FB689B68FB61FB69033373
:1057C0009B08BB61FB68D9683B68DAB2FB6998B299
:1057D0007B681B69DBB200930346786903F0D7F856
:1057E000FB68DA68FB691A44FB68DA60FB689A694F
:1057F000FB691A44FB689A613B685A013B69134490
:1058000003F510639B699BB2BA699A4209D8FB6899
:105810009A69FB685B699A4203D2FB685B69002B5B
:10582000BED1FB685A69FB689B699A4211D83B68F4
:1058300003F00F03012202FA03F3BB603B6903F597
:1058400000635A6BBB68DB43396901F500611340A3
:105850004B63002318462037BD4680BD80B586B017
:1058600000AF786039607B681B687B617B693B6156
:105870007B693C3304331B68FB603B685A013B691E
:10588000134403F530639B68BB607B681B69012B85
:1058900040F0A080BB6803F00803002B15D0FB6824
:1058A000724A934240F2DD80BB6803F40043002B50
:1058B00000F0D7803B685A013B69134403F530631D
:1058C0001A464FF400439360CBE0BB6803F020031B
:1058D000002B09D03B685A013B69134403F5306340
:1058E0001A4620239360BCE0BB6803F02803002B1A
:1058F00040F0B780FB685D4A93420FD9BB6803F460
:105900000043002B0AD03B685A013B69134403F55E
:1059100030631A464FF400439360A2E079683A6816
:105920001346DB009B1A9B000B4403F501731A68B6
:105930003B6859013B690B4403F530631B69C3F3B2
:105940001203D11A78683A681346DB009B1A9B0051
:10595000034403F50573196079683A681346DB0060
:105960009B1A9B000B4403F50273196878683A6828
:105970001346DB009B1A9B00034403F501731B686D
:10598000194478683A681346DB009B1A9B0003446D
:1059900003F5027319603B68002B14D179683A68EB
:1059A0001346DB009B1A9B000B4403F504731B6832
:1059B000002B08D17B6818687B6803F571731A4661
:1059C000012103F043FA3B68DBB21946786806F020
:1059D00079FB46E0FB68264A934224D1BB6803F476
:1059E0000043002B0AD03B685A013B69134403F57E
:1059F00030631A464FF40043936032E0BB6803F013
:105A00002003002B08D03B685A013B69134403F57F
:105A100030631A46202393603B68DBB219467868EE
:105A200006F050FB1DE03B68002B14D179683A6802
:105A30001346DB009B1A9B000B4403F504731B68A1
:105A4000002B08D17B6818687B6803F571731A46D0
:105A5000002103F0FBF93B68DBB21946786806F0D9
:105A600031FB002318461837BD4680BD0A30544F1D
:105A70000A31544F80B586B000AF786039607B68DA
:105A80001B687B617B693B617B693C3304331B682A
:105A9000FB603B685A013B69134403F530639B6824
:105AA000BB60FB68154A93420ED9BB6803F4004300
:105AB000002B09D03B685A013B69134403F530635E
:105AC0001A464FF400439360786806F0E9FAFB68E1
:105AD0000A4A93420CD97B681B69012B08D17B6869
