:020000040800F2
:1000000000000220D9130008B9120008BF1200082E
:10001000C5120008CB120008D11200080000000031
:10002000000000000000000000000000D7120008DF
:10003000E512000800000000F31200080113000898
:10004000291400082914000829140008291400089C
:10005000291400082914000829140008291400088C
:10006000291400082914000829140008291400087C
:10007000291400082914000829140008291400086C
:1000800029140008291400082914000800000000A1
:10009000000000000000000000000000291400081B
:1000A000291400082914000829140008291400083C
:1000B000291400082914000829140008291400082C
:1000C000291400082914000829140008291400081C
:1000D000291400080D130008211300080000000077
:1000E0002914000829140008291400080000000041
:1000F00000000000000000000000000029140008BB
:100100000000000029140008291400082914000820
:1001100000000000000000000000000000000000DF
:1001200029140008291400082914000829140008BB
:10013000291400080000000000000000000000007A
:10014000000000000000000000000000351300085F
:10015000291400082914000829140008291400088B
:100160002914000829140008000000000000000005
:10017000000000000000000000000000000000007F
:10018000000000002914000800000000000000002A
:080190002914000829140008DD
:1001A00010B5054C237833B9044B13B10448AFF3B1
:1001B00000800123237010BD7405002000000000A2
:1001C00004E8000808B5034B1BB103490348AFF32B
:1001D000008008BD000000007805002004E8000849
:1001E000034613F8012B002AFBD1181A0138704777
:1001F00001F0FF01102A2BDB10F0070F08D010F8D8
:10020000013B013A8B422DD010F0070F42B3F6D1DB
:10021000F0B441EA012141EA014122F007047FF0F4
:1002200000070023F0E80256083C85EA010586EA4B
:10023000010685FA47F5A3FA87F586FA47F6A5FA87
:1002400087F68EB9EED1F0BC01F0FF0102F0070293
:1002500032B110F8013B013A83EA010313B1F8D13E
:100260000020704701387047002D06BF354603381F
:10027000073815F0010F07D1013015F4807F02BF58
:10028000013015F4C03F0130F0BC0138704700BFA9
:1002900081F0004102E000BF83F0004330B54FEA37
:1002A00041044FEA430594EA050F08BF90EA020FA4
:1002B0001FBF54EA000C55EA020C7FEA645C7FEA37
:1002C000655C00F0E2804FEA5454D4EB5555B8BF5A
:1002D0006D420CDD2C4480EA020281EA030382EACB
:1002E000000083EA010180EA020281EA0303362D5D
:1002F00088BF30BD11F0004F4FEA01314FF4801C30
:100300004CEA113102D0404261EB410113F0004F41
:100310004FEA03334CEA133302D0524263EB4303F8
:1003200094EA050F00F0A780A4F10104D5F1200E96
:100330000DDB02FA0EFC22FA05F2801841F10001F1
:1003400003FA0EF2801843FA05F359410EE0A5F1C5
:1003500020050EF1200E012A03FA0EFC28BF4CF0F6
:10036000020C43FA05F3C01851EBE37101F00045AC
:1003700007D54FF0000EDCF1000C7EEB00006EEBB9
:100380000101B1F5801F1BD3B1F5001F0CD3490843
:100390005FEA30004FEA3C0C04F101044FEA44529A
:1003A00012F5800F80F09A80BCF1004F08BF5FEA21
:1003B000500C50F1000041EB045141EA050130BD01
:1003C0005FEA4C0C404141EB0101013C28BFB1F513
:1003D000801FE9D291F0000F04BF01460020B1FA5E
:1003E00081F308BF2033A3F10B03B3F120020CDA31
:1003F0000C3208DD02F1140CC2F10C0201FA0CF00F
:1004000021FA02F10CE002F11402D8BFC2F1200C73
:1004100001FA02F120FA0CFCDCBF41EA0C01904029
:10042000E41AA2BF01EB0451294330BD6FEA040472
:100430001F3C1CDA0C340EDC04F11404C4F120025D
:1004400020FA04F001FA02F340EA030021FA04F36F
:1004500045EA030130BDC4F10C04C4F1200220FAC6
:1004600002F001FA04F340EA0300294630BD21FA04
:1004700004F0294630BD94F0000F83F4801306BFCA
:1004800081F480110134013D4EE77FEA645C18BFBE
:100490007FEA655C29D094EA050F08BF90EA020F55
:1004A00005D054EA000C04BF1946104630BD91EA4D
:1004B000030F1EBF0021002030BD5FEA545C05D150
:1004C0004000494128BF41F0004130BD14F580048F
:1004D0003CBF01F5801130BD01F0004545F0FE4103
:1004E00041F470014FF0000030BD7FEA645C1ABF38
:1004F000194610467FEA655C1CBF0B46024650EA6F
:10050000013406BF52EA033591EA030F41F400219A
:1005100030BD00BF90F0000F04BF0021704730B520
:100520004FF4806404F132044FF000054FF00001F5
:1005300050E700BF90F0000F04BF0021704730B5B6
:100540004FF4806404F1320410F0004548BF40428B
:100550004FF000013EE700BF42004FEAE2014FEAE0
:1005600031014FEA02701FBF12F07F4393F07F4FBB
:1005700081F06051704732F07F4208BF704793F0BE
:100580007F4F04BF41F40021704730B54FF46074D1
:1005900001F0004521F000411CE700BF50EA0102D4
:1005A00008BF704730B54FF000050AE050EA01027D
:1005B00008BF704730B511F0004502D5404261EBED
:1005C00041014FF4806404F132045FEA915C3FF42E
:1005D000D8AE4FF003025FEADC0C18BF03325FEACB
:1005E000DC0C18BF033202EBDC02C2F1200300FA7C
:1005F00003FC20FA02F001FA03FE40EA0E0021FAA1
:1006000002F11444BDE600BF4A0011D212F50012F7
:1006100011D20DD56FF47873B3EB62520ED44FEA5A
:10062000C12343F0004343EA505323FA02F07047DA
:100630004FF00000704750EA013002D14FF0FF3018
:1006400070474FF00000704753B94AB9002908BFFE
:1006500000281CBF4FF0FF314FF0FF3000F06EB9A3
:10066000ADF1080C6DE904CE00F006F8DDF804E009
:10067000DDE9022304B070472DE9F047089D0446E8
:100680008C46002B40F083808A42174647D9B2FA45
:1006900082F242B1C2F1200024FA00F0914097406A
:1006A00040EA010C94404FEA1748230CBCFBF8F6D3
:1006B0001FFA87FE08FB16C143EA014306FB0EF151
:1006C000994209D9FB1806F1FF3080F0198199424F
:1006D00040F21681023E3B445B1AA4B2B3FBF8F031
:1006E00008FB103344EA034400FB0EFEA64509D97B
:1006F0003C1900F1FF3380F00581A64540F20281EC
:1007000002383C4440EA0640A4EB0E0400261DB12A
:10071000D4400023C5E900433146BDE8F08702B963
:10072000FFDEB2FA82F2002A50D1CB1B4FEA174EFD
:100730001FFA87F80126B3FBFEFC210C0EFB1C33CD
:1007400041EA034108FB0CF38B4207D979180CF1FD
:10075000FF3002D28B4200F2E9808446C91AA3B26C
:10076000B1FBFEF00EFB101143EA014408FB00F858
:10077000A04507D93C1900F1FF3302D2A04500F291
:10078000D9801846A4EB080440EA0C40BFE78B422E
:1007900009D9002D00F0B1800026C5E900013046DE
:1007A0003146BDE8F087B3FA83F6002E4AD18B427A
:1007B00002D3824200F2B880841A61EB0301012067
:1007C0008C46002DA8D0C5E9004CA5E7C2F1200356
:1007D00020FA03F6974001FA02F04FEA174ED9408B
:1007E0003043030CB1FBFEF61FFA87F80EFB16111F
:1007F00043EA014306FB08F1994204FA02F409D9DD
:10080000FB1806F1FF3C80F08D80994240F28A800F
:10081000023E3B445B1A81B2B3FBFEF00EFB103389
:1008200041EA034100FB08F38B4207D9791800F134
:10083000FF3C73D28B4271D902383944CB1A40EA5B
:10084000064678E7C6F1200C03FA06F422FA0CF308
:100850001C4320FA0CF701FA06F34FEA144E21FA72
:100860000CF11F433B0CB1FBFEF91FFA84F80EFBA1
:10087000191143EA014109FB08FA8A4502FA06F216
:1008800000FA06F308D9611809F1FF3048D28A4509
:1008900046D9A9F102092144A1EB0A01BFB2B1FB7B
:1008A000FEF00EFB101147EA014700FB08F8B845BF
:1008B00007D9E71900F1FF312ED2B8452CD90238FB
:1008C000274440EA0940A7EB0807A0FB02894F45EF
:1008D000C64649461AD317D05DB1B3EB0E0267EB9B
:1008E000010707FA0CFCF2404CEA0202F740C5E9A6
:1008F000002700263146BDE8F0872E4628460BE744
:100900000646E9E61846FDE64345E5D2B8EB020E99
:1009100069EB04010138DFE70846D2E760468DE75E
:100920008146B9E7664675E730464AE7ACF1020C06
:10093000394413E702383C4424E700BF704700BF46
:1009400080B582B000AF3B4683E803003B68BA88BD
:100950001146184604F025FA00BF0837BD4680BD91
:1009600080B59EB000AF78600023FB6007F11003F4
:100970006022002118460DF0FDF97B687B6707F1C6
:100980000C036422002118460DF0F4F91B4B5B6840
:1009900007F10C016422786F9847194B5B6A07F1E5
:1009A0000C021046984707F10C0318460DF07CF92D
:1009B0000346A7F87230B7F872300133A7F87230E7
:1009C00007F10C036422002118460DF0D3F9B7F8A3
:1009D000723007F10C010A2218460DF0ABF9074BF3
:1009E0009B6807F10C021146786F98474FF47A70B4
:1009F00003F044FD00BF7837BD4680BD34000020C1
:100A00004003002090B5D9B002AF03F0C5FC00F060
:100A1000E5F800F05DFA00F007FA00F0B5F900F033
:100A20008DF90CF01BFB00F05BF900F027FA574A38
:100A300007F5A87392E80300186004331980544A3C
:100A400007F5A47392E80300186004331980514A33
:100A500007F5A07392E803001860043319804E4B29
:100A60004E4A1A604E4B1B6898474E4BD3F82032C3
:100A70004FF41650984700F029FF4B4B4B4A1A6031
:100A8000494B5C6807F5987019230193B7F84C310E
:100A9000ADF80030D7F8483107F5A07206CAA04774
:100AA000434B3E4A1A60424B424A5A60404B9B6855
:100AB00007F18400382240499847374B5C6807F1BA
:100AC000940042F2107359223B49A0473B4A07F178
:100AD000700307CA03C31A800233120C1A7007F19D
:100AE0007B0300221A605A601A72354B2D4A1A6035
:100AF000334B2A4A5A60334B1C6807F11800324BBB
:100B000001220021A04707F1100307F118021A6023
:100B100007F1100300225A60294B9B6898472B4B22
:100B20009B6907F1180207F118002949984700232B
:100B300087F85731224BDB6807F1100210469847BF
:100B400097F857213B1D234918460DF0D5F91D4B49
:100B50009B68391D07F11802104698470346002B81
:100B600003D00F4B5B6A1C48984797F85731013305
:100B700087F8573141F2883003F080FC07F5A873FD
:100B800093E80300FFF7DCFED4E700BF54E8000859
:100B90005CE8000864E80008780300207D44000851
:100BA00040030020E400002020000020211900085C
:100BB0000400002065440008D00700206CE800080D
:100BC000980000203400002038E80008B800002019
:100BD000610900083CE8000848E8000880B59AB0C0
:100BE00000AF07F138033022002118460DF0C2F89B
:100BF00007F1240300221A605A609A60DA601A61D1
:100C000007F10C0300221A605A609A60DA601A61D8
:100C10005A610023BB60304B1B6C2F4A43F080535A
:100C200013642D4B1B6C03F08053BB60BB68002327
:100C30007B602A4B1B68294A43F440431360274BCF
:100C40001B6803F440437B607B680523BB634FF460
:100C50008033FB6301233B6402233B654FF4800335
:100C60007B650F23BB659023FB6504233B6605234F
:100C70007B6607F13803184606F0F4FA0346002BAA
:100C800001D000F0A9F90F237B620223BB6200238D
:100C9000FB624FF480533B6300237B6307F1240323
:100CA0000121184606F056FD0346002B01D000F046
:100CB00093F90223FB604FF48073FB6107F10C038F
:100CC000184606F017FF0346002B01D000F084F908
:100CD00000BF6837BD4680BD00380240007000404C
:100CE00080B500AF124B134A1A60114B124A5A607A
:100CF0000F4B00229A600E4B0022DA600C4B4FF42F
:100D000080421A610A4B00225A61094B00229A6103
:100D1000074B0022DA61064B00221A62044804F0F5
:100D20005BF80346002B01D000F056F900BF80BDF0
:100D3000D007002000540040A086010080B500AF1D
:100D40000F4B104A1A600E4B00225A600C4B7F2248
:100D50009A600B4BFF22DA60094B00221A61084BA4
:100D600000225A61064B00229A61054806F0B2FF44
:100D70000346002B01D000F02FF900BF80BD00BF5B
:100D8000680800200028004080B586B000AF07F159
:100D9000080300221A605A609A60DA603B4600221B
:100DA0001A605A601E4B1F4A1A601D4B47225A6038
:100DB0001B4B00229A601A4B4FF6FE72DA60184BFA
:100DC00000221A61164B00225A61154B00229A61CB
:100DD000134807F064F80346002B01D000F0FCF83C
:100DE0004FF48053BB6007F1080319460C4807F025
:100DF000A5F80346002B01D000F0EEF800233B607D
:100E000000237B603B461946054807F075FA034608
:100E1000002B01D000F0E0F800BF1837BD4680BDC0
:100E2000880800200000014080B500AF114B124A35
:100E30001A60104B4FF416525A600E4B00229A6003
:100E40000C4B0022DA600B4B00221A61094B0C227A
:100E50005A61084B00229A61064B0022DA6105486C
:100E600007F0B8FA0346002B01D000F0B5F800BF38
:100E700080BD00BF240800200010014080B500AFF5
:100E8000114B124A1A60104B4FF496425A600E4BA7
:100E900000229A600C4B0022DA600B4B00221A6190
:100EA000094B0C225A61084B00229A61064B002222
:100EB000DA61054807F08EFA0346002B01D000F0F6
:100EC0008BF800BF80BD00BFD00800200044004068
:100ED00080B58AB000AF07F1140300221A605A608F
:100EE0009A60DA601A6100233B61384B1B6B374A0A
:100EF00043F004031363354B1B6B03F004033B61A6
:100F00003B690023FB60314B1B6B304A43F080038D
:100F100013632E4B1B6B03F08003FB60FB68002305
:100F2000BB602A4B1B6B294A43F001031363274B19
:100F30001B6B03F00103BB60BB6800237B60234B8A
:100F40001B6B224A43F002031363204B1B6B03F01D
:100F500002037B607B6800224FF400511C4803F0C1
:100F600007FF00224FF480711A4803F001FF4FF48D
:100F700000537B610123BB610023FB6100233B62C3
:100F800007F114031946124803F072FC4FF4807302
:100F90007B610123BB610123FB6100233B6207F1FD
:100FA000140319460B4803F063FC4FF400737B6194
:100FB0000023BB610123FB6107F1140319460548B7
:100FC00003F056FC00BF2837BD4680BD0038024004
:100FD000000802400004024080B400AF72B600BFB7
:100FE000FEE7000080B483B000AF00237B60104BAD
:100FF0005B6C0F4A43F4804353640D4B5B6C03F40A
:1010000080437B607B6800233B60094B1B6C084A74
:1010100043F080531364064B1B6C03F080533B601A
:101020003B6800BF0C37BD465DF8047B704700BFCE
:101030000038024080B58AB000AF786007F1140331
:1010400000221A605A609A60DA601A617B681B6835
:10105000194A93422BD100233B61184B1B6B174A53
:1010600043F002031363154B1B6B03F002033B6158
:101070003B69C0237B611223BB610123FB61032316
:101080003B6204237B6207F1140319460C4803F00A
:10109000EFFB0023FB60094B1B6C084A43F4001371
:1010A0001364064B1B6C03F40013FB60FB6800BF6A
:1010B0002837BD4680BD00BF0054004000380240C4
:1010C0000004024080B483B000AF78607B681B6886
:1010D000054A934202D1054B01221A6000BF0C372A
:1010E000BD465DF8047B7047002800403C0E474237
:1010F00080B485B000AF78607B681B680B4A934270
:101100000DD10023FB600A4B5B6C094A43F00103DD
:101110005364074B5B6C03F00103FB60FB6800BF8B
:101120001437BD465DF8047B704700BF00000140E6
:101130000038024080B58CB000AF786007F11C0326
:1011400000221A605A609A60DA601A617B681B6834
:101150003A4A934235D10023BB61394B5B6C384A24
:1011600043F010035364364B5B6C03F01003BB6118
:10117000BB6900237B61324B1B6B314A43F0010397
:1011800013632F4B1B6B03F001037B617B694FF4EF
:10119000C063FB6102233B6200237B620323BB62CB
:1011A0000723FB6207F11C031946264803F060FB86
:1011B00000220021252003F084FA252003F09DFA67
:1011C00038E07B681B68204A934233D100233B619F
:1011D0001B4B1B6C1A4A43F400331364184B1B6CF3
:1011E00003F400333B613B690023FB60144B1B6B32
:1011F000134A43F001031363114B1B6B03F001030C
:10120000FB60FB680C23FB6102233B6200237B62D3
:101210000323BB620723FB6207F11C03194609483D
:1012200003F026FB00220021262003F04AFA2620A4
:1012300003F063FA00BF3037BD4680BD00100140A7
:1012400000380240000002400044004080B582B0F7
:1012500000AF78607B681B68134A93420ED1134B32
:101260005B6C124A23F0100353644FF4C0611048C2
:1012700003F082FC252003F04EFA11E07B681B6826
:101280000C4A93420CD1094B1B6C084A23F40033DF
:1012900013640C21064803F06FFC262003F03BFA90
:1012A00000BF0837BD4680BD001001400038024035
:1012B000000002400044004080B400AFFEE780B46C
:1012C00000AFFEE780B400AFFEE780B400AFFEE7FA
:1012D00080B400AFFEE780B400AF00BFBD465DF84C
:1012E000047B704780B400AF00BFBD465DF8047B4F
:1012F000704780B400AF00BFBD465DF8047B704707
:1013000080B500AF03F09AF800BF80BD80B500AF94
:10131000024807F051F900BF80BD00BF240800203B
:1013200080B500AF024807F047F900BF80BD00BF9D
:10133000D008002080B500AF024804F060FF00BF75
:1013400080BD00BF3820002080B586B000AF786037
:10135000144A154BD31A7B617B693B61134B1B68A5
:10136000002B02D1114B124A1A60104B1A687B688D
:1013700013443A699A4207D20CF09AFC03460C22B5
:101380001A604FF0FF3309E0084B1B68FB60074B06
:101390001A687B681344054A1360FB6818461837BF
:1013A000BD4680BD00000220000400009005002022
:1013B0005024002080B400AF064BD3F88830054A93
:1013C00043F47003C2F8883000BFBD465DF8047B6B
:1013D000704700BF00ED00E0DFF834D00D480E4943
:1013E0000E4A002302E0D458C4500433C4188C427F
:1013F000F9D30B4A0B4C002301E013600432A242E4
:10140000FBD3FFF7D7FF0CF059FCFFF7FBFA70474F
:10141000000002200000002074050020F0EB00080E
:101420007405002050240020FEE7000080B582B043
:1014300000AF7860074B1B68002B04D0054B1B687E
:101440007868984702E0786803F018F800BF08371A
:10145000BD4680BD0400002080B500AF064B5B6830
:10146000002B04D0044B5B689847034602E002F06F
:10147000F9FF0346184680BD0400002080B586B001
:1014800002AFF860B9607A603B607B68202B01D9BD
:1014900001230DE0FB681868FB681B7B99B27B6831
:1014A0009AB23B6800931346BA6803F0D7FE03462E
:1014B00018461037BD4680BD80B586B002AFF860D3
:1014C000B9607A603B607B68202B01D901230DE075
:1014D000FB681868FB681B7B99B27B689AB23B6813
:1014E00000931346BA6803F0BBFD03461846103755
:1014F000BD4680BD80B584B000AF78607B681B6856
:10150000002B01D100230BE07B6818687B681B7BF4
:1015100099B26423052204F0C7F80346FB73FB7BF2
:1015200018461037BD4680BD80B588B000AFF86062
:10153000B9601346FB71FB68BA681A60FB795B00FF
:10154000DAB2FB681A73FB684FF000025A60FB685E
:101550004FF000029A60F868FFF7CCFF0346FB7774
:10156000FB7F002B01D0FB7F63E003200CF0E4FB4A
:101570000346BB61BB69002B04D003220021B8697C
:101580000CF0F8FBBB69BA221A704FF4FA7301220F
:10159000B969F868FFF790FF0346FB77FB7F002BE4
:1015A00001D0FB7F45E01420FFF740FFBB69E1223B
:1015B0001A70BB69013308221A70BB69023300221A
:1015C0001A704FF4FA730322B969F868FFF774FFD1
:1015D0000346FB77FB7F002B01D0FB7F29E0FFF761
:1015E0003BFF786110E00520FFF720FFFFF734FF95
:1015F00002467B699B1A41F28732934204D9B8694B
:101600000CF0A2FB032314E0F86800F02BF903466A
:101610005BB2002BE7DBB8690CF096FBF86800F0D2
:1016200021F9034603F00803002B01D1012300E058
:10163000002318462037BD4680BD000080B58CB021
:1016400000AF786039607B685B7B092B1BD97B68B6
:101650001B7B5B0887F82B307B681B687B6297F8E5
:101660002B301A46796A7868FFF75EFF034687F8E1
:10167000233097F82330002B02D097F82330E3E093
:101680007B6800225A73724A07F1080312681146F8
:1016900019800233120C1A7003200CF04DFB034624
:1016A000FB61FB69002B21D0FB69AC221A70FB693E
:1016B000013333221A70FB69023300221A704FF48F
:1016C000FA730322F9697868FFF7F6FE034687F894
:1016D000233097F82330002B0AD07B685B7B0133E3
:1016E000DAB27B685A7397F82330ADE00123ABE0A0
:1016F000F8690CF029FBFFF7AFFEF8621BE00A2047
:10170000FFF794FEFFF7A8FEF860FA68FB6A9A42BA
:1017100001D2FB68FB62FFF79FFE0246FB6AD31A09
:101720003A689A4207D87B685B7B0133DAB27B6800
:101730005A73032388E0786800F094F803465BB29C
:10174000002BDCDB06200CF0F7FA0346BB61BB691B
:10175000002B04D006220021B8690CF00BFB3B687B
:101760000622B9697868FFF789FE034687F82330B7
:1017700097F82330002B0BD07B685B7B0133DAB208
:101780007B685A73B8690CF0DFFA97F823305BE096
:10179000BB6901331B787B617B691B027B61BB6981
:1017A00002331B781A467B6913437B617B691B01FB
:1017B0007B61BB6903331B781B09DBB21A467B696B
:1017C00013437B617B6907EE903AF8EE677A9FEDF1
:1017D000217A27EE877ADFED206AC7EE267A7B68CA
:1017E000C3ED027ABB6903331B7803F00F033B613F
:1017F0003B691B023B61BB6904331B781A463B699A
:1018000013433B613B691B023B61BB6905331B789A
:101810001A463B6913433B613B6907EE903AF8EE89
:10182000677A9FED0E7A27EE877ADFED0B6AC7EEB7
:10183000267A9FED0B7A77EEC77A7B68C3ED017A43
:10184000B8690CF081FA002318463037BD4680BDD8
:1018500080E800080000C8420000804900004843BA
:101860000000484280B584B000AF786007F10F01F6
:101870004FF4FA7301227868FFF700FE0346002B4D
:1018800001D0FF2300E0FB7B18461037BD4680BD2A
:1018900080B483B000AF78607B685B6807EE903AF5
:1018A000B0EE670A0C37BD465DF8047B704780B424
:1018B00083B000AF78607B689B6807EE903AB0EE2B
:1018C000670A0C37BD465DF8047B704780B400AFF3
:1018D000114BDB6803F08073002B0ED10E4BDB68DD
:1018E0000D4A43F08073D3600C4B00225A600B4BBF
:1018F0001B680A4A43F00103136000BF00BF00BF2A
:10190000064B5B68002B01D0002300E00123184642
:10191000BD465DF8047B7047F0ED00E0001000E08C
:1019200090B585B000AF7860154B5B68FB60144BD9
:101930005C6806F0ABF80346124AA2FB03239B0C3B
:101940007A6802FB03F32344BB60BA68FB689A42DF
:1019500006D900BF0A4B5B68BA689A42FAD80AE017
:1019600000BF074B5B68FA689A42FAD3044B5B6886
:10197000BA689A42F5D800BF1437BD4690BD00BF83
:10198000001000E083DE1B4380B584B000AF07F198
:10199000080383E803001346FB71BB68B989FA7931
:1019A000184603F0E5F900BF1037BD4680BD80B58D
:1019B00082B000AF3B4683E803003B68BA8811461B
:1019C000184603F0BDF9034618460837BD4680BDEA
:1019D00080B584B000AF7860396002F043FDF860F4
:1019E00023E002F03FFDB860BA68FB689A4206D275
:1019F000BA68FB68D31A002BB8BF5B42FB6002F0E9
:101A000031FD0246FB689B1A3A689A4201D80323CB
:101A10001FE0124B1B68002B04D0104B1B680A20E0
:101A2000984702E0052002F029FD7B68D3F80620E4
:101A3000002111469A7ADB7A1B021A43002362F3D3
:101A40000F0308461946FFF7B2FF0346002BC8D123
:101A5000002318461037BD4680BD00BF200000207F
:101A600080B586B000AFF860B9607A60FB681A682C
:101A7000002111461A795B791B021A43002362F395
:101A80000F03002208461946FFF77EFF7968F868C1
:101A9000FFF79EFF0346002B69D10023FB7500234F
:101AA0003B610023FB7545E000BF00BF00BFFB6842
:101AB0001A68002111461A795B791B021A43002328
:101AC00062F30F03012208461946FFF75DFF00BFCE
:101AD00000BF00BFFB681A68002111461A795B79C4
:101AE0001B021A43002362F30F0300220846194623
:101AF000FFF74AFFFB7D172B19D83B695B003B6161
:101B0000FB68D3F80620002111469A7ADB7A1B0283
:101B10001A43002362F30F0308461946FFF747FFF5
:101B20000346012B03D13B6943F001033B61FB7D7D
:101B30000133FB75FB681B7BFA7D9A42B4D3FB68CB
:101B40001A68002111461A795B791B021A43002397
:101B500062F30F03012208461946FFF715FF3B69A0
:101B600083F400031A46BB681A60002300E00323D5
:101B700018461837BD4680BD80B582B000AF78608A
:101B80000B46FB701346BB70BB781A460021786881
:101B9000FFF766FF034618460837BD4680BD82B092
:101BA00080B584B000AFF860381D80E80600FB61A6
:101BB000FB68063307F11C021068186092889A804F
:101BC000FB681A463B1D186810609B889380FB6871
:101BD00097F824201A7397F82430F4221946F868ED
:101BE000FFF7CAFF034618461037BD46BDE88040E0
:101BF00002B0704790B585B000AFF8607B600B46CF
:101C0000FB721346BB72054B1C68BA7AF97A7B6883
:101C1000F868A04700BF1437BD4690BDB80000204B
:101C2000B0B588B000AFF860B9601346FB806B4672
:101C30001D460023FB61FB685B681846FEF7D0FA7F
:101C400003460A33FB61FC692346013BBB61204626
:101C50004FF000014FF000024FF00003CB0043EAC9
:101C60005073C20020464FF000014FF000024FF0C9
:101C70000003CB0043EA5073C200E31DDB08DB0026
:101C8000ADEB030D6B4600337B617869FB685B68E5
:101C90001A460A490CF030F9094B9B697A691046DB
:101CA0009847074B5B69F9886422B86898470346F0
:101CB000AD4618462037BD46B0BD00BF84E80008D9
:101CC00098000020B0B586B000AF786039606B46F0
:101CD0001D467B685B681846FEF782FA0446386842
:101CE000FEF77EFA0346234408337B617C69234672
:101CF000013B3B6120464FF000014FF000024FF0E6
:101D00000003CB0043EA5073C20020464FF00001AD
:101D10004FF000024FF00003CB0043EA5073C200C3
:101D2000E31DDB08DB00ADEB030D6B460033FB600E
:101D3000F8687B685A683B6809490CF0DDF8094B84
:101D40009B69FA6810469847064BDB694FF47A7036
:101D500098470346AD4618461837BD46B0BD00BF8C
:101D600090E8000898000020B0B586B000AF786019
:101D700039606B461D467B685B681846FEF730FA93
:101D800003460A337B617C692346013B3B61204665
:101D90004FF000014FF000024FF00003CB0043EA88
:101DA0005073C20020464FF000014FF000024FF088
:101DB0000003CB0043EA5073C200E31DDB08DB00E5
:101DC000ADEB030D6B460033FB60F8687B685B6826
:101DD0001A4609490CF090F8084B9B69FA681046BE
:101DE0009847064B1B696421386898470346AD46FF
:101DF00018461837BD46B0BD9CE800089800002082
:101E0000B0B588B000AF786039606B461D460023DE
:101E1000BB6007F10C0300221A609A807B685B6844
:101E20001846FEF7DDF903461433FB61FC692346CF
:101E3000013BBB6120464FF000014FF000024FF024
:101E40000003CB0043EA5073C20020464FF000016C
:101E50004FF000024FF00003CB0043EA5073C20082
:101E6000E31DDB08DB00ADEB030D6B4600337B614C
:101E700007F108030A22194638680CF041F978691D
:101E80007B685A6807F1080311490CF035F8114BCB
:101E90009B697A69104698477B69FA690021184660
:101EA0000BF068FF78697B685B681A460A490CF09A
:101EB00023F8084B9B697A6910469847054BDB6904
:101EC000642098470346AD4618462037BD46B0BD4E
:101ED000A8E8000898000020B4E80008B0B586B073
:101EE00000AF786039606B461D467B685B681846BA
:101EF000FEF776F903460C337B617C692346013B90
:101F00003B6120464FF000014FF000024FF000030C
:101F1000CB0043EA5073C20020464FF000014FF05F
:101F200000024FF00003CB0043EA5073C200E31DF0
:101F3000DB08DB00ADEB030D6B460033FB60F8689C
:101F40007B685B681A4609490BF0D6FF084B9B6912
:101F5000FA6810469847064B1B6964213868984711
:101F60000346AD4618461837BD46B0BDBCE800086C
:101F700098000020B0B588B000AF786039606B463B
:101F80001D460023BB6007F10C0300221A609A80F3
:101F90007B685B681846FEF723F903461433FB6140
:101FA000FC692346013BBB6120464FF000014FF026
:101FB00000024FF00003CB0043EA5073C2002046FA
:101FC0004FF000014FF000024FF00003CB0043EA56
:101FD0005073C200E31DDB08DB00ADEB030D6B4665
:101FE00000337B6107F108030A22194638680CF0B8
:101FF00087F878697B685A6807F1080311490BF084
:102000007BFF114B9B697A69104698477B69FA6997
:10201000002118460BF0AEFE78697B685B681A46B3
:102020000A490BF069FF084B9B697A69104698478B
:10203000054BDB69642098470346AD4618462037B8
:10204000BD46B0BDA8E8000898000020B4E800082C
:10205000B0B586B000AF786039606B461D467B68CE
:102060005B681846FEF7BCF803460C337B617C695D
:102070002346013B3B6120464FF000014FF0000238
:102080004FF00003CB0043EA5073C20020464FF0EC
:1020900000014FF000024FF00003CB0043EA507301
:1020A000C200E31DDB08DB00ADEB030D6B46003324
:1020B000FB60F8687B685B681A4609490BF01CFFF7
:1020C000084B9B69FA6810469847064B1B696421C8
:1020D000386898470346AD4618461837BD46B0BD28
:1020E000C8E8000898000020B0B588B000AF78605C
:1020F00039606B461D460023BB6007F10C030022CC
:102100001A609A807B685B681846FEF769F8034698
:102110001433FB61FC692346013BBB6120464FF051
:1021200000014FF000024FF00003CB0043EA507370
:10213000C20020464FF000014FF000024FF00003B4
:10214000CB0043EA5073C200E31DDB08DB00ADEBBC
:10215000030D6B4600337B6107F108030A22194621
:1021600038680BF0CDFF78697B685A6807F108037F
:1021700011490BF0C1FE114B9B697A6910469847D3
:102180007B69FA69002118460BF0F4FD78697B68D9
:102190005B681A460A490BF0AFFE084B9B697A69E7
:1021A00010469847054BDB69642098470346AD46C7
:1021B00018462037BD46B0BDD4E80008980000207E
:1021C000B4E80008B0B586B000AF786039606B46FF
:1021D0001D467B685B681846FEF702F803460C3321
:1021E0007B617C692346013B3B6120464FF0000147
:1021F0004FF000024FF00003CB0043EA5073C200DF
:1022000020464FF000014FF000024FF00003CB00DA
:1022100043EA5073C200E31DDB08DB00ADEB030DA6
:102220006B460033FB60F8687B685B681A460949B7
:102230000BF062FE084B9B69FA6810469847064B04
:102240001B696421386898470346AD46184618371D
:10225000BD46B0BDE0E8000898000020B0B588B0E9
:1022600000AF786039606B461D460023BB6007F104
:102270000C0300221A609A807B685B681846FDF7A1
:10228000AFFF03461433FB61FC692346013BBB618E
:1022900020464FF000014FF000024FF00003CB004A
:1022A00043EA5073C20020464FF000014FF0000295
:1022B0004FF00003CB0043EA5073C200E31DDB087C
:1022C000DB00ADEB030D6B4600337B6107F10803C8
:1022D0000A22194638680BF013FF78697B685A6840
:1022E00007F1080311490BF007FE114B9B697A694E
:1022F000104698477B69FA69002118460BF03AFDB1
:1023000078697B685B681A460A490BF0F5FD084B53
:102310009B697A6910469847054BDB6964209847AA
:102320000346AD4618462037BD46B0BDECE8000870
:1023300098000020B4E80008B0B584B000AF786021
:1023400039606B461D467B685B681846FDF748FFA1
:10235000034603F10C042346013BFB6020464FF08B
:1023600000014FF000024FF00003CB0043EA50732E
:10237000C20020464FF000014FF000024FF0000372
:10238000CB0043EA5073C200E31DDB08DB00ADEB7A
:10239000030D6B460033BB60B8687B685B681A4608
:1023A00009490BF0A9FD094B9B69BA68104698478B
:1023B000064B1B696421386898470346AD461846AA
:1023C0001037BD46B0BD00BFF8E8000898000020F7
:1023D000B0B588B000AF786039606B461D46002309
:1023E000BB6007F10C0300221A609A807B685B686F
:1023F0001846FDF7F5FE03461433FB61FC692346DE
:10240000013BBB6120464FF000014FF000024FF04E
:102410000003CB0043EA5073C20020464FF0000196
:102420004FF000024FF00003CB0043EA5073C200AC
:10243000E31DDB08DB00ADEB030D6B4600337B6176
:1024400007F108030A22194638680BF059FE78692B
:102450007B685A6807F1080311490BF04DFD114BD9
:102460009B697A69104698477B69FA69002118468A
:102470000BF080FC78697B685B681A460A490BF0B0
:102480003BFD084B9B697A6910469847054BDB6911
:10249000642098470346AD4618462037BD46B0BD78
:1024A00004E9000898000020B4E80008B0B584B042
:1024B00000AF786039606B461D467B685B681846E4
:1024C000FDF78EFE034603F10C042346013BFB603F
:1024D00020464FF000014FF000024FF00003CB0008
:1024E00043EA5073C20020464FF000014FF0000253
:1024F0004FF00003CB0043EA5073C200E31DDB083A
:10250000DB00ADEB030D6B460033BB60B8687B6846
:102510005B681A4609490BF0EFFC094B9B69BA68E6
:1025200010469847064B1B69642138689847034654
:10253000AD4618461037BD46B0BD00BF10E90008D3
:1025400098000020B0B588B000AF786039606B4665
:102550001D460023BB6007F10C0300221A609A801D
:102560007B685B681846FDF73BFE03461433FB614E
:10257000FC692346013BBB6120464FF000014FF050
:1025800000024FF00003CB0043EA5073C200204624
:102590004FF000014FF000024FF00003CB0043EA80
:1025A0005073C200E31DDB08DB00ADEB030D6B468F
:1025B00000337B6107F108030A22194638680BF0E3
:1025C0009FFD78697B685A6807F1080311490BF091
:1025D00093FC114B9B697A69104698477B69FA69AD
:1025E000002118460BF0C6FB78697B685B681A46C9
:1025F0000A490BF081FC084B9B697A6910469847A1
:10260000054BDB69642098470346AD4618462037E2
:10261000BD46B0BD1CE9000898000020B4E80008E1
:10262000B0B584B000AF786039606B461D467B68FA
:102630005B681846FDF7D4FD034603F10C042346FE
:10264000013BFB6020464FF000014FF000024FF0CD
:102650000003CB0043EA5073C20020464FF0000154
:102660004FF000024FF00003CB0043EA5073C2006A
:10267000E31DDB08DB00ADEB030D6B460033BB60F5
:10268000B8687B685B681A4609490BF035FC094B52
:102690009B69BA6810469847064B1B6964213868E5
:1026A00098470346AD4618461037BD46B0BD00BF3B
:1026B00028E9000898000020B0B588B000AF786025
:1026C00039606B461D460023BB6007F10C030022F6
:1026D0001A609A807B685B681846FDF781FD0346A7
:1026E0001433FB61FC692346013BBB6120464FF07C
:1026F00000014FF000024FF00003CB0043EA50739B
:10270000C20020464FF000014FF000024FF00003DE
:10271000CB0043EA5073C200E31DDB08DB00ADEBE6
:10272000030D6B4600337B6107F108030A2219464B
:1027300038680BF0E5FC78697B685A6807F1080394
:1027400011490BF0D9FB114B9B697A6910469847E8
:102750007B69FA69002118460BF00CFB78697B68ED
:102760005B681A460A490BF0C7FB084B9B697A69FC
:1027700010469847054BDB69642098470346AD46F1
:1027800018462037BD46B0BD34E900089800002047
:10279000B4E80008B0B584B000AF786039606B462B
:1027A0001D467B685B681846FDF71AFD034603F17A
:1027B0000C042346013BFB6020464FF000014FF024
:1027C00000024FF00003CB0043EA5073C2002046E2
:1027D0004FF000014FF000024FF00003CB0043EA3E
:1027E0005073C200E31DDB08DB00ADEB030D6B464D
:1027F0000033BB60B8687B685B681A4609490BF018
:102800007BFB094B9B69BA6810469847064B1B69CE
:102810006421386898470346AD4618461037BD46D0
:10282000B0BD00BF40E9000898000020B0B588B0F6
:1028300000AF786039606B461D467B685B68184660
:10284000FDF7CEFC03461433FB61FC692346013BD4
:10285000BB6120464FF000014FF000024FF0000333
:10286000CB0043EA5073C20020464FF000014FF006
:1028700000024FF00003CB0043EA5073C200E31D97
:10288000DB08DB00ADEB030D6B4600337B610023FF
:10289000BB6007F10C0300221A609A8007F108035D
:1028A0000A22194638680BF02BFC78697B685A6855
:1028B00007F1080311490BF01FFB114B9B697A6963
:1028C000104698477B69FA69002118460BF052FAC6
:1028D00078697B685B681A460A490BF00DFB084B68
:1028E0009B697A6910469847054BDB6964209847D5
:1028F0000346AD4618462037BD46B0BD4CE900083A
:1029000098000020B4E80008B0B584B000AF78604B
:1029100039606B461D467B685B681846FDF760FCB6
:10292000034603F10C042346013BFB6020464FF0B5
:1029300000014FF000024FF00003CB0043EA507358
:10294000C20020464FF000014FF000024FF000039C
:10295000CB0043EA5073C200E31DDB08DB00ADEBA4
:10296000030D6B460033BB60B8687B685B681A4632
:1029700009490BF0C1FA094B9B69BA6810469847A0
:10298000064B1B696421386898470346AD461846D4
:102990001037BD46B0BD00BF58E9000898000020C0
:1029A000B0B588B000AF786039606B461D46002333
:1029B000BB6007F10C0300221A609A807B685B6899
:1029C0001846FDF70DFC03461433FB61FC692346F2
:1029D000013BBB6120464FF000014FF000024FF079
:1029E0000003CB0043EA5073C20020464FF00001C1
:1029F0004FF000024FF00003CB0043EA5073C200D7
:102A0000E31DDB08DB00ADEB030D6B4600337B61A0
:102A100007F108030A22194638680BF071FB786940
:102A20007B685A6807F1080311490BF065FA114BEE
:102A30009B697A69104698477B69FA6900211846B4
:102A40000BF098F978697B685B681A460A490BF0C5
:102A500053FA084B9B697A6910469847054BDB6926
:102A6000642098470346AD4618462037BD46B0BDA2
:102A700068E9000898000020B4E80008B0B584B008
:102A800000AF786039606B461D467B685B6818460E
:102A9000FDF7A6FB034603F10C042346013BFB6054
:102AA00020464FF000014FF000024FF00003CB0032
:102AB00043EA5073C20020464FF000014FF000027D
:102AC0004FF00003CB0043EA5073C200E31DDB0864
:102AD000DB00ADEB030D6B460033BB60B8687B6871
:102AE0005B681A4609490BF007FA094B9B69BA68FB
:102AF00010469847064B1B6964213868984703467F
:102B0000AD4618461037BD46B0BD00BF74E9000899
:102B100098000020B0B588B000AF786039606B468F
:102B20001D460023BB6007F10C0300221A609A8047
:102B30007B685B681846FDF753FB03461433FB6163
:102B4000FC692346013BBB6120464FF000014FF07A
:102B500000024FF00003CB0043EA5073C20020464E
:102B60004FF000014FF000024FF00003CB0043EAAA
:102B70005073C200E31DDB08DB00ADEB030D6B46B9
:102B800000337B6107F108030A22194638680BF00D
:102B9000B7FA78697B685A6807F1080311490BF0A6
:102BA000ABF9114B9B697A69104698477B69FA69C2
:102BB000002118460BF0DEF878697B685B681A46DE
:102BC0000A490BF099F9084B9B697A6910469847B6
:102BD000054BDB69642098470346AD46184620370D
:102BE000BD46B0BD80E9000898000020B4E80008A8
:102BF000B0B584B000AF786039606B461D467B6825
:102C00005B681846FDF7ECFA034603F10C04234613
:102C1000013BFB6020464FF000014FF000024FF0F7
:102C20000003CB0043EA5073C20020464FF000017E
:102C30004FF000024FF00003CB0043EA5073C20094
:102C4000E31DDB08DB00ADEB030D6B460033BB601F
:102C5000B8687B685B681A4609490BF04DF9094B67
:102C60009B69BA6810469847064B1B69642138680F
:102C700098470346AD4618461037BD46B0BD00BF65
:102C80008CE9000898000020B0B588B000AF7860EB
:102C900039606B461D460023BB6007F10C03002220
:102CA0001A609A807B685B681846FDF799FA0346BC
:102CB0001433FB61FC692346013BBB6120464FF0A6
:102CC00000014FF000024FF00003CB0043EA5073C5
:102CD000C20020464FF000014FF000024FF0000309
:102CE000CB0043EA5073C200E31DDB08DB00ADEB11
:102CF000030D6B4600337B6107F108030A22194676
:102D000038680BF0FDF978697B685A6807F10803A9
:102D100011490BF0F1F8114B9B697A6910469847FD
:102D20007B69FA69002118460BF024F878697B6802
:102D30005B681A460A490BF0DFF8084B9B697A6911
:102D400010469847054BDB69642098470346AD461B
:102D500018462037BD46B0BD98E90008980000200D
:102D6000B4E8000880B582B000AF7860074B5B68BC
:102D7000002B03D1786801F081FB03E0034B5B6813
:102D80007868984700BF0837BD4680BD980000208E
:102D900080B584B000AF78603960214B1B68002B90
:102DA00001D1002337E00023BB600023FB607B6878
:102DB000002B01D100232EE0194B1B68D3F85832A9
:102DC00038689847164B1B68D3F8543207F108024D
:102DD0000821104698470346082B01D000231AE02B
:102DE0003B7A712B16D17B7BFF2B13D1BB7BFF2B47
:102DF00010D1FB7BFF2B0DD13B7B1A06FB7A1B040A
:102E00001343BA7A120213437A7A1A437B681A6020
:102E1000012300E0002318461037BD4680BD00BFE7
:102E20009800002080B598B000AFF8600B467A603B
:102E30007B81434B1B68002B01D100237BE0FB68A7
:102E4000002B02D07B89002B01D1002373E00023EB
:102E5000A7F85A30002387F85F30002387F85E30E8
:102E6000002387F85930002387F85D3001F0FAFA23
:102E700003467B653BE0324B1B68D3F844329847EE
:102E8000034687F8593097F85F30002B1CD097F82D
:102E90005930FF2B09D197F85E30013387F85E3047
:102EA00097F85E30022B16D91DE097F85D3007F1D8
:102EB0006002134497F8592003F84C2C97F85D30C2
:102EC000013387F85D3006E097F85930702B02D156
:102ED000012387F85F301A4B1B68D3F828329847D4
:102EE0000346002BC7D197F85E30022B08D801F0BB
:102EF000B9FA02467B6DD31A7A689A42EBD200E0A7
:102F000000BF07F114031846FDF76AF90346A7F856
:102F10005A30B7F85A207B89934228BF1346A7F846
:102F20005A30B7F85A2007F114031946F8680BF025
:102F300003F8B7F85A3018466037BD4680BD00BF69
:102F40009800002090B583B000AF786004E0194B82
:102F50001B68D3F844329847164B1B68D3F82832C5
:102F600098470346002BF2D1124B1B68D3F83C4222
:102F70007868FDF735F9034619467868A0470E4B87
:102F80005B6A79680D4898470A4B1B68D3F838325A
:102F9000FF209847074B1B68D3F83832FF2098472B
:102FA000044B1B68D3F83832FF20984700BF0C371A
:102FB000BD4690BD9800002040030020A4E9000811
:102FC00080B584B000AF78600023FB730023BB6042
:102FD000164B1B68D3F8583278689847134B1B6818
:102FE000D3F8543207F108020421104698470346EB
:102FF000042B01D0002315E00D4B1B6907F10802DB
:103000000421104698473B7A012B0AD17B7AFF2B8B
:1030100007D1BB7AFF2B04D1FB7AFF2B01D101230F
:1030200000E0002318461037BD4680BD9800002000
:103030004003002080B582B000AF0023FB71002365
:10304000BB711148FFF77EFF1048FFF77BFF64203C
:10305000FFF7B6FF0346FB710D48FFF773FF6420CF
:10306000FFF7AEFF0346BB71FB79002B04D0BB79A1
:10307000002B01D0012300E0002303F00103DBB2A9
:1030800018460837BD4680BDACE90008B0E9000825
:10309000B8E9000890B585B000AF786052E00A202A
:1030A000FFF760FE2E4B1B68D3F844329847034667
:1030B0007B732C4B5B6A7A7B11462B4898477B7B52
:1030C000652B3FD1264B1B68D3F82832984703461F
:1030D000052B37DD254A7B7B13700123FB8114E030
:1030E0001F4B1B68D3F8443298470246FB89D1B284
:1030F0001E4AD1541B4B5B6AFA891C498A5C1146F3
:1031000019489847FB890133FB81FB89062BE7D9D6
:10311000FB89164A0021D154144B1B79FF2B11D186
:10312000124B5B79FF2B0DD1104B9B79FF2B09D1F3
:103130000F4B9C6A0D4B59780C4B9A780B4BDB78F4
:103140007868A047064B1B68D3F828329847034697
:10315000002BA4DC00BF00BF1437BD4690BD00BFEC
:103160009800002040030020C0E9000894050020DA
:10317000B800002080B485B000AFF8607B600B46DB
:10318000FB721346BB72FB68FA7A1A70FB68BA7A54
:103190005A70FB687A685A60FB6800221A61FB6803
:1031A00000229A60FB6800225A61FB680022DA6004
:1031B00000BF1437BD465DF8047B704784B090B4FF
:1031C00000AF07F1080484E80F003B7A1846BD46BB
:1031D00090BC04B0704784B090B400AF07F108040D
:1031E00084E80F007B7A1846BD4690BC04B0704757
:1031F00084B090B400AF07F1080484E80F00FB68C6
:103200001846BD4690BC04B0704780B485B000AF8E
:10321000F860B9607A60FB68BA689A60FB687A689F
:10322000DA6000BF1437BD465DF8047B704780B498
:1032300083B000AF78607B6800229A607B680022D0
:10324000DA6000BF0C37BD465DF8047B704780B480
:1032500085B000AFF860B9607A60FB68BA681A613F
:10326000FB687A685A6100BF1437BD465DF8047B7D
:10327000704780B483B000AF78607B6800221A6129
:103280007B6800225A6100BF0C37BD465DF8047BA5
:10329000704780B582B000AF78607B689B68002B78
:1032A00005D07B689B687A68D2681046984700BF53
:1032B0000837BD4680BD80B582B000AF78607B68BE
:1032C0001B69002B05D07B681B697A685269104620
:1032D000984700BF0837BD4680BD000090B587B055
:1032E00000AFF8607B600B46FB721346BB72002395
:1032F0003B610023FB82214B5C6AF97ABA7A7B68D6
:103300001F48A047FB68002B04D11C4B5B6A1D487B
:1033100098472FE00023FB8221E03B691B78FA7A73
:103320009A4219D13B695B78BA7A9A4214D1134B0D
:103330005B6A3A6952681146134898477B68012BCB
:1033400003D13869FFF7A5FF13E07B68002B10D18C
:103350003869FFF7B0FF0CE0FB8A0133FB82FB8A80
:103360009B00FA6813441B683B613B69002BD4D176
:1033700000E000BF1C37BD4690BD00BF40030020E9
:10338000C8E90008E8E90008F4E9000880B582B05F
:1033900000AF78601649174800F040F9154B00223D
:1033A0001A7400BF134BDB68124A527CD2B211462A
:1033B000114A11440122184605F0CDF80346022BAC
:1033C000F0D00C4BDB687A685A600A4800F0AEF91E
:1033D0004FF480720849094805F0BDF84FF4807237
:1033E0000749064805F072F800BF0837BD4680BDA2
:1033F00024080020E400002004010020F000002048
:103400000402002080B483B000AF7860044A7B6877
:10341000536000BF0C37BD465DF8047B704700BFAA
:10342000E400002080B500AF024800F0A0F900BF22
:1034300080BD00BFE400002080B500AF024800F06E
:10344000A6F90346184680BDE400002080B500AF11
:10345000024800F0B0F90346184680BDE4000020A1
:1034600080B500AF024800F0E9F90346184680BD78
:10347000E400002080B500AF024800F0FDF900BF75
:1034800080BD00BFE400002080B582B000AF0346DD
:10349000FB71FB791946044800F015FA03461846FB
:1034A0000837BD4680BD00BFE400002080B582B073
:1034B00000AF786039603A687968044800F04FFAE4
:1034C000034618460837BD4680BD00BFE400002013
:1034D00080B500AF024800F08BF90346184680BD66
:1034E000E400002080B584B000AF0346B9607A6084
:1034F000FB73F97B7B68BA68034800F0BEFA0346A9
:1035000018461037BD4680BDE400002080B500AFEE
:10351000024800F066FA0346184680BDE400002029
:1035200080B582B000AF786039603A687968044845
:1035300000F07FFA034618460837BD4680BD00BF3D
:10354000E400002080B582B000AF786039603A684E
:1035500079680020FFF7C6FF034618460837BD46C6
:1035600080BD00000FB480B582B000AF07F1140336
:103570003B603B683A694FF480710A480AF0EEFDFF
:103580000848FCF72DFE034619460648FFF78EFF54
:1035900078607B6818460837BD46BDE8804004B0B7
:1035A000704700BF1409002080B582B000AF78607A
:1035B0007B68002B0FD07B681B68094A934202D1BD
:1035C000084800F046F87B681B68074A934202D11E
:1035D000044800F03EF800BF0837BD4680BD00BF7C
:1035E00000100140E40000200044004080B582B09B
:1035F00000AF78607B68002B08D07B681B68054AA9
:10360000934204D1044800F04FF800E000BF0837AF
:10361000BD4680BD00100140E400002080B582B0AE
:1036200000AF78603960786800F05CFA7B6800224F
:103630005A747B6800229A747B680022DA747B6873
:1036400000221A757B683A68DA6000BF0837BD4609
:1036500080BD80B584B000AF78607B68DB689B6A12
:1036600003F580727B682033D31AFB737B689B7CE5
:10367000DBB2FA7B9A4202D07B68FA7B5A7400BFB5
:103680007B68D8687B6820337A68527CD2B2134456
:103690000122194604F05FFF0346022BF0D000BF61
:1036A00000BF1037BD4680BD80B584B000AF7860E4
:1036B0007B68DB681B6A03F580727B6803F5907397
:1036C000D31ADAB27B681A757B68DB7CDAB27B6866
:1036D0001B7DDBB29A4207D27B681B7DDBB29BB2BB
:1036E000C3F58073FB8109E07B68DB7CDBB29AB2B7
:1036F0007B681B7DDBB29BB2D31AFB81FB89002B5D
:1037000010D000BF7B68D8687B6803F590737A6837
:10371000127DD2B21344FA89194604F0D7FE03464B
:10372000022BEFD000BF1037BD4680BD80B582B000
:1037300000AF78607B6800221A747B68DB681846EB
:1037400004F048FE00BF7B68D8687B6820337A6845
:10375000527CD2B213440122194604F0FCFE034607
:10376000022BF0D000BF00BF0837BD4680BD80B53A
:1037700082B000AF7860786800F07EF87B68DB6824
:10378000184604F074FE00BF0837BD4680BD80B403
:1037900083B000AF78607B685B7CDBB203F580733D
:1037A0007A68927CD2B29B1ADBB218460C37BD46BF
:1037B0005DF8047B704780B483B000AF78607B68AD
:1037C0005B7CDAB27B689B7CDBB29A4202D14FF021
:1037D000FF3307E07B689B7CDBB21A467B681344AF
:1037E00093F8203018460C37BD465DF8047B7047CF
:1037F00080B485B000AF78607B685B7CDAB27B68B0
:103800009B7CDBB29A4202D14FF0FF3310E07B6821
:103810009B7CDBB21A467B68134493F82030FB7321
:103820007B689B7CDBB20133DAB27B689A74FB7BEA
:1038300018461437BD465DF8047B704780B485B0E8
:1038400000AF78607B68DB7CFB737B681B7DBB73A0
:10385000FA7BBB7B9A4205D3FB7BC3F1FF02BB7BA8
:10386000134403E0BA7BFB7BD31A013B18461437A1
:10387000BD465DF8047B704780B584B000AF7860CA
:103880007B681B7C002B1AD0786800F090F8F860F9
:1038900003E00121786800F096F87B68DB7CDAB2FF
:1038A0007B681B7DDBB29A420AD0786800F07FF813
:1038B0000246FB68D31AB3F57A7FEAD300E000BF73
:1038C0001037BD4680BD80B584B000AF78600B4630
:1038D000FB707B6801221A747B68DB7CDBB20133EE
:1038E0005A42DBB2D2B258BF5342FB7303E001210C
:1038F000786800F068F87B681B7DDBB2FA7B9A423F
:10390000F5D07B68DB7CDBB21A467B681344FA781F
:1039100083F820217B68DB7CDAB27B681B7DDBB21D
:103920009A4214D103E00121786800F04CF87B68DA
:10393000D8687B6803F590737A68127DD2B213441D
:103940000122194604F0C2FD0346022BEBD07B682E
:10395000FA7BDA74012318461037BD4680BD80B566
:1039600086B000AFF860B9607A60BB68002B01D107
:10397000002318E000237B610DE0BB685A1CBA608D
:103980001B781946F868FFF79EFF0346002B08D006
:103990007B6901337B617B685A1E7A60002BECD116
:1039A00000E000BF7B6918461837BD4680BD80B572
:1039B00082B000AF78607B689B69984703461846E1
:1039C0000837BD4680BD80B582B000AF78603960F1
:1039D0007B68DB6938689847034618460837BD4658
:1039E00080BD80B584B000AF78607868FFF7DFFFF6
:1039F00002467B689A607868FFF7FAFEF860FB6819
:103A0000002B01DBFB6810E001217868FFF7DBFF8A
:103A10007868FFF7CCFF02467B689B68D21A7B6808
:103A20005B689A42E7D34FF0FF3318461037BD4624
:103A300080BD80B586B000AFF860B9607A600023C1
:103A40007B610FE0F868FFF7CCFF38613B69002B22
:103A50000DDBBB685A1CBA603A69D2B21A707B6936
:103A600001337B617A697B689A42EBD300E000BF47
:103A70007B6918461837BD4680BD80B586B000AF5B
:103A8000F8607A603B600B46FB7200237B6113E0B9
:103A9000F868FFF7A6FF38613B69002B10DBFB7A63
:103AA0003A699A420CD07B685A1C7A603A69D2B261
:103AB0001A707B6901337B617A693B689A42E7D36C
:103AC0007B6918461837BD4680BD80B483B000AF0F
:103AD00078607B6800221A6000BF0C37BD465DF835
:103AE000047B704780B582B000AF78607868FFF7DC
:103AF000ECFF7B684FF47A725A6000BF0837BD460E
:103B000080BD80B500AF09F095FC00BF80BD80B5D9
:103B100000AF09F096FC00BF80BD000080B500AF8B
:103B2000024800F02CF90346184680BDE80C00203E
:103B300080B582B000AF0346FB71FB1D0121184622
:103B400000F006F8034618460837BD4680BD000061
:103B500080B584B000AF786039603B68FB601CE0E2
:103B6000154800F00CF90346BB60FA68BB689A423E
:103B700001D2FB68BB60BB68002B0ED0BA687968C5
:103B80000D4800F033F9FA68BB68D31AFB607A6815
:103B9000BB6813447B6009F0F5FBFB68002B04D085
:103BA00009F0C4FB0346002BDAD13A68FB68D31A4C
:103BB00018461037BD4680BDE80C002080B500AF28
:103BC000024800F043FA0346184680BD701D0020ED
:103BD00080B582B000AF054800F068FA786009F05F
:103BE000FFFB7B6818460837BD4680BD701D00206E
:103BF00080B586B000AF786039603B689BB27B616E
:103C000000F030FC38617B699BB21A467968114834
:103C100000F0C3FA0346FB8109F0E2FBFB897A69F5
:103C2000D31A7B61FB897A6813447B607B69002B24
:103C300001D13B6809E000F015FC02463B69D31A4C
:103C4000312BE0D97B693A68D31A18461837BD463C
:103C500080BD00BF701D002080B58AB002AF034652
:103C6000B9607A60FB737B689BB2FB6100F0FAFB82
:103C7000B861FB699AB2F97B07F11403009313460C
:103C8000BA68154800F0ECFA0346FB7509F0A8FB8A
:103C9000BB8A1A46FB699B1AFB61BB8A1A46BB6842
:103CA0001344BB60FB7D002B03D0FB697A68D31AF9
:103CB0000EE0FB69002B01D17B6809E000F0D2FB2C
:103CC0000246BB69D31A312BD3D9FB697A68D31A60
:103CD00018462037BD4680BD701D002080B500AF5E
:103CE000024800F028FA0346184680BD701D0020E7
:103CF00080B500AF00BF044800F05DF80346002B1C
:103D0000F9DC00BF00BF80BDE80C00200FB480B517
:103D1000C2B000AF07F58A723B461A603B46381DB9
:103D20001B68D7F810214FF480710AF017FA3B1D79
:103D30001846FCF755FA02463B1D11461846FFF798
:103D400007FFC7F80401D7F80431184607F5847750
:103D5000BD46BDE8804004B0704780B483B000AF7A
:103D600078607B680022A3F882207B680022A3F899
:103D7000802000BF0C37BD465DF8047B704780B4DF
:103D800083B000AF78607B68B3F882309BB2803339
:103D90007A68B2F8802092B29B1A013B5A4203F033
:103DA0007F0302F07F0258BF534218460C37BD46CE
:103DB0005DF8047B704780B483B000AF78607B68A7
:103DC000B3F880309BB280337A68B2F8822092B226
:103DD0009B1A5A4203F07F0302F07F0258BF5342FE
:103DE00018460C37BD465DF8047B704780B586B039
:103DF00000AFF860B9607A60FB68B3F880309BB2BE
:103E0000C3F180037B617A697B689A420CD9FB68B5
:103E1000B3F880309BB21A46FB6813447A68B968DD
:103E2000184609F099FF15E0FB68B3F880309BB2A3
:103E30001A46FB6813447A69B968184609F08CFF82
:103E4000F868BA687B69D1187A687B69D31A1A4610
:103E500009F082FFFB68B3F880309BB21A467B689A
:103E600013449BB203F07F039AB2FB68A3F880204F
:103E700000BF1837BD4680BD80B483B000AF786006
:103E800039607B68B3F880309AB27B68B3F88230CF
:103E90009BB29A420CD37B68B3F880309AB27B68AD
:103EA000B3F882309BB2D31A9AB23B681A8008E00A
:103EB0007B68B3F882309BB2C3F180039AB23B684F
:103EC0001A803B681A887B68A3F884207B68B3F863
:103ED00082309BB21A467B68134418460C37BD46A5
:103EE0005DF8047B704780B483B000AF78607B6876
:103EF000B3F882309AB27B68B3F884309BB2134433
:103F00009BB203F07F039AB27B68A3F8822000BFC4
:103F10000C37BD465DF8047B704780B483B000AFBA
:103F200078607B680022A3F8C2207B680022A3F897
:103F3000C0207B68C022A3F8C42000BF0C37BD4658
:103F40005DF8047B704780B485B000AF7860802353
:103F5000FB817B68B3F8C230BB817B68B3F8C030AB
:103F60009BB2BA899A422CD87B68B3F8C0309BB216
:103F7000FA899A4209D87B68B3F8C0309BB2FA89B3
:103F80009A4209D1BB89002B06D07B687A68B2F8C7
:103F9000C02092B2134425E0BB89402B21D97B6815
:103FA000B3F8C0309AB27B68A3F8C4207B680022C3
:103FB000A3F8C0207B687A68B2F8C02092B213449C
:103FC00010E07B68B3F8C0309BB203F14002BB89BC
:103FD0009A4206D27B687A68B2F8C02092B2134443
:103FE00000E0002318461437BD465DF8047B704797
:103FF00080B483B000AF78600B467B807B68B3F8F9
:10400000C0309AB27B8813449AB27B68A3F8C02070
:104010007B68B3F8C0309AB27B68B3F8C4309BB207
:104020009A4203D37B68C022A3F8C4207B68B3F80C
:10403000C0309BB2BF2B03D97B680022A3F8C020FD
:1040400000BF0C37BD465DF8047B704780B485B077
:1040500000AF78607B68B3F8C0309BB2FB817B68AF
:10406000B3F8C4309BB2BB817B68B3F8C2309AB25C
:10407000FB899BB29A4208D8FB899BB21A467B689F
:10408000B3F8C2309BB2D31A0AE0BB899BB21A467E
:10409000FB899BB213447A68B2F8C22092B29B1A91
:1040A00018461437BD465DF8047B704780B485B070
:1040B00000AF78607B68B3F8C0309BB2BB817B688F
:1040C000B3F8C4309BB27B817B68B3F8C2309AB23C
:1040D0007B899BB29A4203D17B680022A3F8C2205D
:1040E0007B68B3F8C2309AB2BB899BB29A4202D1C4
:1040F0004FF0FF3319E07B68B3F8C2309BB25A1C13
:1041000091B27A68A2F8C2101A467B689B5CFB7376
:104110007B68B3F8C2309AB27B899BB29A4203D3D0
:104120007B680022A3F8C220FB7B18461437BD46EB
:104130005DF8047B704780B485B000AF78607B6821
:10414000B3F8C0309BB2FB817B68B3F8C4309BB23C
:10415000BB817B68B3F8C2309AB2BB899BB29A42EA
:1041600003D37B680022A3F8C2207B68B3F8C23077
:104170009AB2FB899BB29A4202D14FF0FF3306E01C
:104180007B68B3F8C2309BB21A467B689B5C1846CA
:104190001437BD465DF8047B704780B586B000AF2C
:1041A000F860B9601346FB80FB68B3F8C0309BB27F
:1041B000BB82FB68B3F8C4309BB27B82FB68B3F868
:1041C000C2309AB27B8A9BB29A4203D3FB68002228
:1041D000A3F8C220FB68B3F8C2309AB2BB8A9BB284
:1041E0009A4208D8BB8A9AB2FB68B3F8C2309BB235
:1041F000D31AFB8207E07B8A9AB2FB68B3F8C2301D
:104200009BB2D31AFB82FA8AFB889A4201D2FB8ABC
:10421000FB80FB68B3F8C2309BB21A46FB681344BC
:10422000FA881946B86809F097FDFB68B3F8C23000
:104230009AB2FB8813449AB2FB68A3F8C220FB68C9
:10424000B3F8C2309AB27B8A9BB29A4203D3FB681E
:104250000022A3F8C220FB8818461837BD4680BD4F
:1042600080B489B000AFF8607A601A460B46FB72E2
:1042700013463B81FB68B3F8C0309BB2BB82FB683E
:10428000B3F8C4309BB27B82FB68B3F8C2309AB2F9
:104290007B8A9BB29A4203D3FB680022A3F8C22018
:1042A000FB68B3F8C2309AB2BB8A9BB29A4208D874
:1042B000BB8A9AB2FB68B3F8C2309BB2D31AFB83B5
:1042C00007E07B8A9AB2FB68B3F8C2309BB2D31A7C
:1042D000FB83FA8B3B899A4201D2FB8B3B81FB68C3
:1042E000B3F8C2309BB21A46FB681344BB6100238B
:1042F000BB832DE0BB8BBA6913441B78FB75FA7D39
:10430000FB7A9A421CD1FB68B3F8C2309AB2BB8BDD
:1043100013449BB201339AB2FB68A3F8C220FB6836
:10432000B3F8C2309AB27B8A9BB29A4203D3FB683D
:104330000022A3F8C220BB6ABA8B1A80012325E0B1
:10434000BB8B7A681344FA7D1A70BB8B0133BB8335
:10435000BA8B3B899A42CDD3BB6A3A891A80FB68F3
:10436000B3F8C2309AB23B8913449AB2FB68A3F8FF
:10437000C220FB68B3F8C2309AB27B8A9BB29A42E1
:1043800003D3FB680022A3F8C22000231846243779
:10439000BD465DF8047B704780B500AF0E4B1B68CF
:1043A0000D4A43F4007313600B4B1B680A4A43F435
:1043B00080631360084B1B68074A43F480731360E3
:1043C000032000F073F9002000F008F8FCF70AFE63
:1043D0000023184680BD00BF003C024080B582B07B
:1043E00000AF7860124B1A68124B1B7819464FF4D5
:1043F0007A73B3FBF1F3B2FBF3F3184600F099F9CB
:104400000346002B01D001230EE07B680F2B0AD856
:10441000002279684FF0FF3000F053F9064A7B68BC
:104420001360002300E0012318460837BD4680BD15
:1044300000000020740300207003002080B400AF4F
:10444000064B1B781A46064B1B681344044A13603C
:1044500000BFBD465DF8047B704700BF74030020B9
:10446000140A002080B400AF034B1B681846BD46F9
:104470005DF8047B704700BF140A002080B584B04B
:1044800000AF7860FFF7EEFFB8607B68FB60FB6809
:10449000B3F1FF3F05D00A4B1B781A46FB68134463
:1044A000FB6000BFFFF7DEFF0246BB68D31AFA6865
:1044B0009A42F7D800BF00BF1037BD4680BD00BF8D
:1044C0007403002080B485B000AF78607B6803F08F
:1044D0000703FB600C4BDB68BB60BA684FF6FF0359
:1044E0001340BB60FB681A02BB68134343F0BF6311
:1044F00043F40033BB60044ABB68D36000BF143789
:10450000BD465DF8047B704700ED00E080B400AF6D
:10451000044BDB681B0A03F007031846BD465DF831
:10452000047B704700ED00E080B483B000AF034629
:10453000FB7197F90730002B0BDBFB7903F01F02AF
:10454000074997F907305B09012000FA02F241F8A8
:10455000232000BF0C37BD465DF8047B704700BFC9
:1045600000E100E080B483B000AF0346FB7197F92F
:104570000730002B12DBFB7903F01F020A4997F981
:1045800007305B09012000FA02F2203341F82320B2
:10459000BFF34F8F00BFBFF36F8F00BF00BF0C375B
:1045A000BD465DF8047B704700E100E080B483B055
:1045B00000AF03463960FB7197F90730002B0ADB27
:1045C0003B68DAB20C4997F907301201D2B20B44BA
:1045D00083F800230AE03B68DAB20849FB7903F06C
:1045E0000F03043B1201D2B20B441A7600BF0C3702
:1045F000BD465DF8047B704700E100E000ED00E09F
:1046000080B489B000AFF860B9607A60FB6803F0ED
:104610000703FB61FB69C3F10703042B28BF0423D5
:10462000BB61FB690433062B02D9FB69033B00E045
:1046300000237B614FF0FF32BB6902FA03F3DA43D8
:10464000BB681A407B699A404FF0FF317B6901FAE1
:1046500003F3D9437B680B40134318462437BD4608
:104660005DF8047B7047000080B582B000AF7860D1
:104670007B68013BB3F1807F01D301230FE00A4A3D
:104680007B68013B53600F214FF0FF30FFF78EFF37
:10469000054B00229A60044B07221A60002318463B
:1046A0000837BD4680BD00BF10E000E080B582B095
:1046B00000AF78607868FFF705FF00BF0837BD4698
:1046C00080BD80B586B000AF0346B9607A60FB73E9
:1046D00000237B61FFF71AFF78617A68B96878690F
:1046E000FFF78EFF024697F90F3011461846FFF785
:1046F0005DFF00BF1837BD4680BD80B582B000AFFA
:104700000346FB7197F907301846FFF70DFF00BF0E
:104710000837BD4680BD80B582B000AF0346FB714F
:1047200097F907301846FFF71DFF00BF0837BD4651
:1047300080BD80B582B000AF78607868FFF794FFE5
:10474000034618460837BD4680BD80B584B000AF2B
:1047500078607B689B6DFB60FFF784FEB8607B68C8
:1047600093F83530DBB2022B08D07B6880225A6583
:104770007B68002283F83420012352E07B681B68A9
:104780001A687B681B6822F016021A607B681B6837
:104790005A697B681B6822F080025A617B681B6C37
:1047A000002B03D17B689B6C002B07D07B681B68B8
:1047B0001A687B681B6822F008021A607B681B6815
:1047C0001A687B681B6822F001021A6013E0FFF789
:1047D00049FE0246BB68D31A052B0CD97B68202200
:1047E0005A657B68002283F834207B68032283F8B3
:1047F0003520032315E07B681B681B6803F0010369
:10480000002BE4D17B68DB6D3F229A40FB689A6005
:104810007B68002283F834207B68012283F83520EE
:10482000002318461037BD4680BD80B483B000AF6A
:1048300078607B6893F83530DBB2022B04D07B685C
:1048400080225A6501230CE07B68052283F835201D
:104850007B681B681A687B681B6822F001021A607B
:10486000002318460C37BD465DF8047B70470000F6
:1048700080B489B000AF7860396000237B61002389
:104880003B610023BB610023FB6159E10122FB690D
:1048900002FA03F37B613B681B687A6913403B6152
:1048A0003A697B699A4240F048813B685B6803F053
:1048B0000303012B05D03B685B6803F00303022B65
:1048C00030D17B689B68BB61FB695B00032202FA05
:1048D00003F3DB43BA691340BB613B68DA68FB69E9
:1048E0005B0002FA03F3BA691343BB617B68BA69E0
:1048F0009A607B685B68BB610122FB6902FA03F383
:10490000DB43BA691340BB613B685B681B0903F07A
:104910000102FB6902FA03F3BA691343BB617B68C6
:10492000BA695A603B685B6803F00303032B17D036
:104930007B68DB68BB61FB695B00032202FA03F35F
:10494000DB43BA691340BB613B689A68FB695B0053
:1049500002FA03F3BA691343BB617B68BA69DA6090
:104960003B685B6803F00303022B23D1FB69DA0881
:104970007B68083253F82230BB61FB6903F0070300
:104980009B000F2202FA03F3DB43BA691340BB61B9
:104990003B681A69FB6903F007039B0002FA03F303
:1049A000BA691343BB61FB69DA087B680832B969ED
:1049B00043F822107B681B68BB61FB695B00032224
:1049C00002FA03F3DB43BA691340BB613B685B68DF
:1049D00003F00302FB695B0002FA03F3BA691343B5
:1049E000BB617B68BA691A603B685B6803F08053FF
:1049F000002B00F0A2800023FB60574B5B6C564AF3
:104A000043F480435364544B5B6C03F48043FB607A
:104A1000FB68524AFB699B08023352F82330BB61A2
:104A2000FB6903F003039B000F2202FA03F3DB434D
:104A3000BA691340BB617B68494A934219D07B68CD
:104A4000484A934213D07B68474A93420DD07B6813
:104A5000464A934207D07B68454A934201D10423DA
:104A600008E0072306E0032304E0022302E0012319
:104A700000E00023FA6902F0030292009340BA6951
:104A80001343BB613549FB699B080233BA6941F89E
:104A90002320384B1B68BB613B69DB43BA69134079
:104AA000BB613B685B6803F48033002B03D0BA69B9
:104AB0003B691343BB612F4ABB6913602D4B5B6895
:104AC000BB613B69DB43BA691340BB613B685B6810
:104AD00003F40033002B03D0BA693B691343BB6175
:104AE000244ABB695360234B9B68BB613B69DB4332
:104AF000BA691340BB613B685B6803F48013002B09
:104B000003D0BA693B691343BB611A4ABB6993601E
:104B1000184BDB68BB613B69DB43BA691340BB617F
:104B20003B685B6803F40013002B03D0BA693B6950
:104B30001343BB610F4ABB69D360FB690133FB615F
:104B4000FB690F2B7FF6A2AE00BF00BF2437BD4626
:104B50005DF8047B704700BF003802400038014018
:104B6000000002400004024000080240000C024025
:104B700000100240003C014080B487B000AF786074
:104B8000396000233B610023FB600023BB600023EE
:104B90007B61BBE001227B6902FA03F33B613A6867
:104BA0003B691340FB60FA683B699A4240F0AB8076
:104BB0005C4A7B699B08023352F82330BB607B69F7
:104BC00003F003039B000F2202FA03F3BA681340B9
:104BD000BB607B68544A934219D07B68534A934226
:104BE00013D07B68524A93420DD07B68514A93425E
:104BF00007D07B68504A934201D1042308E0072381
:104C000006E0032304E0022302E0012300E0002386
:104C10007A6902F0030292009340BA689A4232D154
:104C2000464B1A68FB68DB43444913400B60434B17
:104C30005A68FB68DB43414913404B603F4B9A681D
:104C4000FB68DB433D4913408B603C4BDA68FB68F3
:104C5000DB433A491340CB607B6903F003039B00BD
:104C60000F2202FA03F3BB602E4A7B699B080233D2
:104C700052F82310BB68DA432A487B699B080A4034
:104C8000023340F823207B681A687B695B000321AC
:104C900001FA03F3DB431A407B681A607B69DA0888
:104CA0007B68083253F822107B6903F007039B00EE
:104CB0000F2202FA03F3DB437A69D20819407B68BA
:104CC000083243F822107B68DA687B695B000321B5
:104CD00001FA03F3DB431A407B68DA607B685A68A9
:104CE00001217B6901FA03F3DB431A407B685A60B8
:104CF0007B689A687B695B00032101FA03F3DB435D
:104D00001A407B689A607B6901337B617B690F2B5A
:104D10007FF640AF00BF00BF1C37BD465DF8047B87
:104D2000704700BF0038014000000240000402400C
:104D300000080240000C024000100240003C01400C
:104D400080B485B000AF78600B467B807B681A69C1
:104D50007B881340002B02D00123FB7301E000236A
:104D6000FB73FB7B18461437BD465DF8047B704728
:104D700080B483B000AF78600B467B8013467B70B5
:104D80007B78002B03D07A887B689A6103E07B886C
:104D90001A047B689A6100BF0C37BD465DF8047B3E
:104DA000704780B485B000AF78600B467B807B682D
:104DB0005B69FB607A88FB6813401A04FB68D9437F
:104DC0007B880B401A437B689A6100BF1437BD464D
:104DD0005DF8047B7047000080B584B000AF786058
:104DE0007B68002B01D101232BE17B6893F83D30D8
:104DF000DBB2002B06D17B68002283F83C20786868
:104E0000FCF718F97B68242283F83D207B681B6837
:104E10001A687B681B6822F001021A607B681B68B5
:104E20001A687B681B6842F400421A607B681B6842
:104E30001A687B681B6822F400421A6002F032FE96
:104E4000F8607B685B68814A934207D8FB68804AB8
:104E5000934294BF01230023DBB206E0FB687D4A46
:104E6000934294BF01230023DBB2002B01D0012326
:104E7000E7E0FB68784AA2FB03239B0CBB607B68DE
:104E80001B685B6823F03F017B681B68BA680A43B4
:104E90005A607B681B681B6A23F03F017B685B6874
:104EA0006A4A934202D8BB68013309E0BB684FF4F9
:104EB000967202FB03F3694AA2FB03239B090133A9
:104EC0007A6812680B4313627B681B68DB6923F402
:104ED0004F4222F0FF027B685B685C498B4219D825
:104EE000FB68591E7B685B685B00B1FBF3F3591CE0
:104EF00040F6FC730B40002B0AD0FB68591E7B6800
:104F00005B685B00B1FBF3F30133C3F30B0351E0C8
:104F100004234FE07B689B68002B11D1FB68581E6F
:104F20007B6859680B465B000B44B0FBF3F301331D
:104F3000C3F30B03002B0CBF01230023DBB212E0F1
:104F4000FB68581E7B6859680B469B000B44990010
:104F50000B44B0FBF3F30133C3F30B03002B0CBF83
:104F600001230023DBB2002B01D0012322E07B6868
:104F70009B68002B0ED1FB68581E7B6859680B4656
:104F80005B000B44B0FBF3F30133C3F30B0343F4B7
:104F900000430FE0FB68581E7B6859680B469B0076
:104FA0000B4499000B44B0FBF3F30133C3F30B0341
:104FB00043F44043796809681343CB617B681B68FD
:104FC0001B6823F0C0017B68DA697B681B6A1A439F
:104FD0007B681B680A431A607B681B689B6823F424
:104FE000034323F0FF037A6811697A68D26811439A
:104FF0007A6812680B4393607B681B68DB6823F058
:10500000FF017B685A697B689B691A437B681B6850
:105010000A43DA607B681B681A687B681B6842F089
:1050200001021A607B6800221A647B68202283F8E0
:105030003D207B6800221A637B68002283F83E20B3
:10504000002318461037BD4680BD00BFA086010072
:105050007F841E00FF083D0083DE1B43D34D62109A
:1050600080B588B002AFF8607A601A460B467B8143
:1050700013463B81FFF7F6F97861FB6893F83D3002
:10508000DBB2202B40F0E0807B69009319230122E2
:105090007049F86800F086FD0346002B01D002231A
:1050A000D3E0FB6893F83C30012B01D10223CCE024
:1050B000FB68012283F83C20FB681B681B6803F037
:1050C0000103012B07D0FB681B681A68FB681B688B
:1050D00042F001021A60FB681B681A68FB681B68D3
:1050E00022F400621A60FB68212283F83D20FB68ED
:1050F000102283F83E20FB6800221A64FB687A685D
:105100005A62FB683A895A85FB685B8D9AB2FB68E4
:105110001A85FB68504ADA6279897B693A6AF868CD
:1051200000F0F0FB0346002B01D001238DE00023AB
:105130003B61FB681B685B693B61FB681B689B69A3
:105140003B613B6966E07A69396AF86800F000FE05
:105150000346002B0DD0FB681B6C042B07D1FB68AA
:105160001B681A68FB681B6842F400721A6001230E
:105170006BE0FB685B6A1A78FB681B681A61FB6866
:105180005B6A5A1CFB685A62FB685B8D9BB2013BF1
:105190009AB2FB685A85FB681B8D013B9AB2FB688B
:1051A0001A85FB681B685B6903F00403042B1BD1A1
:1051B000FB681B8D002B17D0FB685B6A1A78FB68B5
:1051C0001B681A61FB685B6A5A1CFB685A62FB68C1
:1051D0005B8D9BB2013B9AB2FB685A85FB681B8DC5
:1051E000013B9AB2FB681A857A69396AF86800F05F
:1051F000F0FD0346002B0DD0FB681B6C042B07D180
:10520000FB681B681A68FB681B6842F400721A602E
:1052100001231AE0FB681B8D002B94D1FB681B68EF
:105220001A68FB681B6842F400721A60FB6820224F
:1052300083F83D20FB68002283F83E20FB680022B3
:1052400083F83C20002300E0022318461837BD46AF
:1052500080BD00BF020010000000FFFF80B58CB0D1
:1052600002AFF8607A601A460B467B8113463B8199
:10527000FFF7F8F87862FB6893F83D30DBB2202B3B
:1052800040F00B827B6A0093192301227C49F86865
:1052900000F088FC0346002B01D00223FEE1FB68EE
:1052A00093F83C30012B01D10223F7E1FB68012286
:1052B00083F83C20FB681B681B6803F00103012B8B
:1052C00007D0FB681B681A68FB681B6842F0010284
:1052D0001A60FB681B681A68FB681B6822F400628E
:1052E0001A60FB68222283F83D20FB68102283F8B5
:1052F0003E20FB6800221A64FB687A685A62FB68E9
:105300003A895A85FB685B8D9AB2FB681A85FB68FF
:105310005C4ADA6279897B6A3A6BF86800F074FB60
:105320000346002B01D00123B8E1FB681B8D002B45
:1053300013D100233B62FB681B685B693B62FB681F
:105340001B689B693B623B6AFB681B681A68FB68C9
:105350001B6842F400721A608CE1FB681B8D012B04
:105360001BD1FB681B681A68FB681B6822F480620B
:105370001A600023FB61FB681B685B69FB61FB68CB
:105380001B689B69FB61FB69FB681B681A68FB680B
:105390001B6842F400721A606CE1FB681B8D022BE3
:1053A0001BD1FB681B681A68FB681B6822F48062CB
:1053B0001A60FB681B681A68FB681B6842F400628D
:1053C0001A600023BB61FB681B685B69BB61FB68FB
:1053D0001B689B69BB61BB694CE1FB681B681A6871
:1053E000FB681B6842F480621A6000237B61FB68E3
:1053F0001B685B697B61FB681B689B697B617B69E0
:1054000038E1FB681B8D032B00F2F180FB681B8DDC
:10541000012B23D17A6A396BF86800F01BFD034633
:10542000002B01D0012339E1FB681B681A69FB6876
:105430005B6AD2B21A70FB685B6A5A1CFB685A62DC
:10544000FB681B8D013B9AB2FB681A85FB685B8D7C
:105450009BB2013B9AB2FB685A850BE1FB681B8D3E
:10546000022B4ED17B6A00933B6B00220649F86801
:1054700000F098FB0346002B08D001230EE100BF8B
:10548000020010000000FFFF04000100FB681B6821
:105490001A68FB681B6842F400721A60FB681B689C
:1054A0001A69FB685B6AD2B21A70FB685B6A5A1CA5
:1054B000FB685A62FB681B8D013B9AB2FB681A8538
:1054C000FB685B8D9BB2013B9AB2FB685A85FB6817
:1054D0001B681A69FB685B6AD2B21A70FB685B6A68
:1054E0005A1CFB685A62FB681B8D013B9AB2FB6831
:1054F0001A85FB685B8D9BB2013B9AB2FB685A85AB
:10550000B8E07B6A00933B6B00226649F86800F0C4
:1055100049FB0346002B01D00123BFE0FB681B6859
:105520001A68FB681B6822F480621A60FB681B68BB
:105530001A69FB685B6AD2B21A70FB685B6A5A1C14
:10554000FB685A62FB681B8D013B9AB2FB681A85A7
:10555000FB685B8D9BB2013B9AB2FB685A857B6A04
:1055600000933B6B00224F49F86800F01BFB034699
:10557000002B01D0012391E0FB681B681A68FB68CF
:105580001B6842F400721A60FB681B681A69FB68AA
:105590005B6AD2B21A70FB685B6A5A1CFB685A627B
:1055A000FB681B8D013B9AB2FB681A85FB685B8D1B
:1055B0009BB2013B9AB2FB685A85FB681B681A696B
:1055C000FB685B6AD2B21A70FB685B6A5A1CFB68A4
:1055D0005A62FB681B8D013B9AB2FB681A85FB6817
:1055E0005B8D9BB2013B9AB2FB685A8542E07A6AB6
:1055F000396BF86800F02EFC0346002B01D0012324
:105600004CE0FB681B681A69FB685B6AD2B21A70CF
:10561000FB685B6A5A1CFB685A62FB681B8D013B86
:105620009AB2FB681A85FB685B8D9BB2013B9AB20C
:10563000FB685A85FB681B685B6903F00403042B55
:1056400018D1FB681B681A69FB685B6AD2B21A70D2
:10565000FB685B6A5A1CFB685A62FB681B8D013B46
:105660009AB2FB681A85FB685B8D9BB2013B9AB2CC
:10567000FB685A85FB681B8D002B7FF4C2AEFB686C
:10568000202283F83D20FB68002283F83E20FB683F
:10569000002283F83C20002300E00223184628372C
:1056A000BD4680BD0400010080B58AB002AFF8603D
:1056B0007A603B600B467B81FEF7D4FEF8610123E4
:1056C000BB61FB6893F83D30DBB2202B40F01181C9
:1056D000FB690093192301228849F86800F062FAF7
:1056E0000346002B01D0022304E1FB6893F83C3011
:1056F000012B01D10223FDE0FB68012283F83C204D
:10570000FB681B681B6803F00103012B07D0FB68D3
:105710001B681A68FB681B6842F001021A60FB688C
:105720001B681A68FB681B6822F400621A60FB6839
:10573000242283F83D20FB6800221A64FB68704A2B
:10574000DA62FB681B681A68FB681B6842F48072A7
:105750001A60FB6900933B6800224FF00111F86862
:1057600000F020FA0346002B0DD0FB681B681B6875
:1057700003F48073B3F5807F03D1FB684FF40072AC
:105780001A640323B6E07B89DBB21A46FB681B6808
:1057900002F0FE021A61FEF765FEF861FB681B6805
:1057A0005B6903F00203022B0CBF01230023DBB271
:1057B000FB75FB681B685B6903F48063B3F5806F5E
:1057C0000CBF01230023DBB2BB7525E0FEF74AFEC8
:1057D0000246FB69D31A3A689A4202D33B68002B0F
:1057E00003D1FB68A02283F83D20FB681B685B693E
:1057F00003F00203022B0CBF01230023DBB2FB7575
:10580000FB681B685B6903F48063B3F5806F0CBFB2
:1058100001230023DBB2BB75FB6893F83D30DBB29C
:10582000A02B05D0FB7D002B02D1BB7D002BCDD062
:10583000FB68202283F83D20FB681B685B6903F04E
:105840000203022B29D1FB681B681A68FB681B68DE
:1058500042F400721A6000233B61FB681B685B69BD
:105860003B61FB681B689B693B613B69FB6900937B
:10587000192301222149F86800F094F90346002B0E
:1058800001D0012336E0FB68202283F83D20FB682D
:10589000002283F83C2000232CE0FB681B681A6878
:1058A000FB681B6842F400721A60FB681B686FF4A7
:1058B00080625A61FB690093192301220F49F8683D
:1058C00000F070F90346002B01D0012312E0BB6900
:1058D0000133BB61BA697B689A42FFF432AFFB685F
:1058E000202283F83D20FB68002283F83C2001231E
:1058F00000E0022318462037BD4680BD020010009C
:105900000000FFFF80B588B002AFF8607A603B60AE
:105910000B467B81FB68DB6A7B617B69082B06D0C9
:105920007B69012B03D07B6913F5803F08D1FB68AD
:105930001B681A68FB681B6842F480721A600BE0EF
:10594000FB681B6B122B07D1FB681B681A68FB688E
:105950001B6842F480721A603B6800937B680022E7
:105960004FF00111F86800F01DF90346002B0DD02F
:10597000FB681B681B6803F48073B3F5807F03D159
:10598000FB684FF400721A64032335E0FB681B695F
:10599000B3F5804F08D17B89DBB21A46FB681B68E0
:1059A00002F0FE021A611BE07B89DB11DBB203F01F
:1059B0000603DBB263F00F03DAB2FB681B681A61FF
:1059C0003B687A680E49F86800F043F90346002BFB
:1059D00001D0012310E07B89DAB2FB681B681A61F1
:1059E0003B687A680749F86800F033F90346002BF2
:1059F00001D0012300E0002318461837BD4680BDC2
:105A0000080001000200010080B588B002AFF86014
:105A10007A603B600B467B81FB68DB6A7B61FB68DD
:105A20001B681A68FB681B6842F480621A607B6915
:105A3000082B06D07B69012B03D07B6913F5803FCF
:105A400008D1FB681B681A68FB681B6842F4807207
:105A50001A600BE0FB681B6B112B07D1FB681B68FE
:105A60001A68FB681B6842F480721A603B680093F6
:105A70007B6800224FF00111F86800F093F80346AC
:105A8000002B0DD0FB681B681B6803F48073B3F513
:105A9000807F03D1FB684FF400721A64032379E01E
:105AA000FB681B69B3F5804F08D17B89DBB243F0FB
:105AB0000103DAB2FB681B681A615FE07B89DB11C6
:105AC000DBB203F00603DBB263F00F03DAB2FB686C
:105AD0001B681A613B687A683049F86800F0B9F8C9
