:020000040800F2
:10000000000002206D0C0008750B00087B0B000837
:10001000810B0008870B00088D0B00080000000012
:10002000000000000000000000000000930B00082A
:10003000A10B000800000000AF0B0008BD0B00087A
:10004000BD0C0008BD0C0008BD0C0008BD0C00086C
:10005000BD0C0008BD0C0008BD0C0008BD0C00085C
:10006000BD0C0008BD0C0008BD0C0008BD0C00084C
:10007000BD0C0008BD0C0008BD0C0008BD0C00083C
:10008000BD0C0008BD0C0008BD0C000800000000FD
:10009000000000000000000000000000BD0C00088F
:1000A000BD0C0008BD0C0008BD0C0008BD0C00080C
:1000B000BD0C0008BD0C0008BD0C0008BD0C0008FC
:1000C000BD0C0008BD0C0008BD0C0008BD0C0008EC
:1000D000BD0C0008BD0C0008BD0C000800000000AD
:1000E000BD0C0008BD0C0008BD0C0008000000009D
:1000F000000000000000000000000000BD0C00082F
:1001000000000000BD0C0008BD0C0008BD0C00087C
:1001100000000000000000000000000000000000DF
:10012000BD0C0008BD0C0008BD0C0008BD0C00088B
:10013000BD0C0008000000000000000000000000EE
:10014000000000000000000000000000C90B0008D3
:10015000BD0C0008BD0C0008BD0C0008BD0C00085B
:10016000BD0C0008BD0C00080000000000000000ED
:10017000000000000000000000000000000000007F
:1001800000000000BD0C000800000000000000009E
:08019000BD0C0008BD0C0008C5
:1001A00010B5054C237833B9044B13B10448AFF3B1
:1001B00000800123237010BD2C02002000000000ED
:1001C000388C000808B5034B1BB103490348AFF353
:1001D000008008BD0000000030020020388C0008BC
:1001E000034613F8012B002AFBD1181A0138704777
:1001F00001F0FF01102A2BDB10F0070F08D010F8D8
:10020000013B013A8B422DD010F0070F42B3F6D1DB
:10021000F0B441EA012141EA014122F007047FF0F4
:1002200000070023F0E80256083C85EA010586EA4B
:10023000010685FA47F5A3FA87F586FA47F6A5FA87
:1002400087F68EB9EED1F0BC01F0FF0102F0070293
:1002500032B110F8013B013A83EA010313B1F8D13E
:100260000020704701387047002D06BF354603381F
:10027000073815F0010F07D1013015F4807F02BF58
:10028000013015F4C03F0130F0BC0138704700BFA9
:1002900053B94AB9002908BF00281CBF4FF0FF31ED
:1002A0004FF0FF3000F06EB9ADF1080C6DE904CEEF
:1002B00000F006F8DDF804E0DDE9022304B0704741
:1002C0002DE9F047089D04468C46002B40F08380C2
:1002D0008A42174647D9B2FA82F242B1C2F12000EF
:1002E00024FA00F09140974040EA010C94404FEA14
:1002F0001748230CBCFBF8F61FFA87FE08FB16C153
:1003000043EA014306FB0EF1994209D9FB1806F1B5
:10031000FF3080F01981994240F21681023E3B4441
:100320005B1AA4B2B3FBF8F008FB103344EA0344B1
:1003300000FB0EFEA64509D93C1900F1FF3380F001
:100340000581A64540F2028102383C4440EA06405D
:10035000A4EB0E0400261DB1D4400023C5E90043E0
:100360003146BDE8F08702B9FFDEB2FA82F2002A18
:1003700050D1CB1B4FEA174E1FFA87F80126B3FB6B
:10038000FEFC210C0EFB1C3341EA034108FB0CF37D
:100390008B4207D979180CF1FF3002D28B4200F260
:1003A000E9808446C91AA3B2B1FBFEF00EFB10111E
:1003B00043EA014408FB00F8A04507D93C1900F1C5
:1003C000FF3302D2A04500F2D9801846A4EB0804FE
:1003D00040EA0C40BFE78B4209D9002D00F0B18004
:1003E0000026C5E9000130463146BDE8F087B3FA82
:1003F00083F6002E4AD18B4202D3824200F2B880AB
:10040000841A61EB030101208C46002DA8D0C5E9B8
:10041000004CA5E7C2F1200320FA03F6974001FA49
:1004200002F04FEA174ED9403043030CB1FBFEF601
:100430001FFA87F80EFB161143EA014306FB08F189
:10044000994204FA02F409D9FB1806F1FF3C80F046
:100450008D80994240F28A80023E3B445B1A81B211
:10046000B3FBFEF00EFB103341EA034100FB08F33F
:100470008B4207D9791800F1FF3C73D28B4271D9B6
:1004800002383944CB1A40EA064678E7C6F1200C18
:1004900003FA06F422FA0CF31C4320FA0CF701FAD3
:1004A00006F34FEA144E21FA0CF11F433B0CB1FB4B
:1004B000FEF91FFA84F80EFB191143EA014109FB0A
:1004C00008FA8A4502FA06F200FA06F308D961181A
:1004D00009F1FF3048D28A4546D9A9F102092144E1
:1004E000A1EB0A01BFB2B1FBFEF00EFB101147EA0F
:1004F000014700FB08F8B84507D9E71900F1FF31BB
:100500002ED2B8452CD90238274440EA0940A7EB3F
:100510000807A0FB02894F45C64649461AD317D0A3
:100520005DB1B3EB0E0267EB010707FA0CFCF2407A
:100530004CEA0202F740C5E9002700263146BDE833
:10054000F0872E4628460BE70646E9E61846FDE604
:100550004345E5D2B8EB020E69EB04010138DFE751
:100560000846D2E760468DE78146B9E7664675E7FB
:1005700030464AE7ACF1020C394413E702383C44F8
:1005800024E700BF704700BF80B582B000AF3B4694
:1005900083E803003B68BA881146184601F0A5FCC1
:1005A00000BF0837BD4680BD90B5A3B002AF01F0D3
:1005B0003FF900F08BF800F0ABF900F07FF900F0A4
:1005C0002DF900F005F907F0B1F8384A07F1780382
:1005D00092E80300186004331980354A07F170036C
:1005E00092E80300186004331980324A07F1680367
:1005F00092E803001860043319802F4B1B6898475A
:1006000000F05EFB2D4B2E4A1A602C4B5C6807F104
:10061000580019230193B7F87430ADF800303B6FE0
:1006200007F1680206CAA047264A07F1440307CA31
:1006300003C31A800233120C1A7007F14F03002211
:100640001A605A601A721C4B5B6A984703463F2B2C
:1006500002D9194B9B6A984700233B60174BDB6814
:10066000394607F158004FF47A7298470346002B39
:1006700010D13A683B1D1449184607F0BDFE0E4BD9
:100680001C693B1D1846FFF7ABFD02463B1D11469A
:100690001846A0474FF4FA7001F03CF907F17803CF
:1006A00093E80300FFF770FFCDE700BF688C0008F8
:1006B000708C0008788C00081800002004000020CE
:1006C000150D0008808C0008508C000880B59AB089
:1006D00000AF07F1380330220021184607F084FEEE
:1006E00007F1240300221A605A609A60DA601A61E6
:1006F00007F10C0300221A605A609A60DA601A61EE
:100700005A610023BB60304B1B6C2F4A43F080536F
:1007100013642D4B1B6C03F08053BB60BB6800233C
:100720007B602A4B1B68294A43F440431360274BE4
:100730001B6803F440437B607B680523BB634FF475
:100740008033FB6301233B6402233B654FF480034A
:100750007B650F23BB659023FB6504233B66052364
:100760007B6607F13803184602F05CFD0346002B58
:1007700001D000F051F90F237B620223BB620023FA
:10078000FB624FF480533B6300237B6307F1240338
:100790000121184602F0BEFF0346002B01D000F0F5
:1007A0003BF90223FB604FF48073FB6107F10C03FC
:1007B000184603F07FF90346002B01D000F02CF916
:1007C00000BF6837BD4680BD003802400070004061
:1007D00080B500AF0F4B104A1A600E4B00225A60D2
:1007E0000C4B7F229A600B4BFF22DA60094B0022F0
:1007F0001A61084B00225A61064B00229A61054893
:1008000003F048FA0346002B01D000F005F900BFC1
:1008100080BD00BFC40400200028004080B586B021
:1008200000AF07F1080300221A605A609A60DA608C
:100830003B4600221A605A601E4B1F4A1A601D4B2D
:1008400047225A601B4B00229A601A4B4FF6FE72E9
:10085000DA60184B00221A61164B00225A61154BC0
:1008600000229A61134803F0FAFA0346002B01D0E4
:1008700000F0D2F84FF48053BB6007F1080319462B
:100880000C4803F03BFB0346002B01D000F0C4F8FA
:1008900000233B6000237B603B461946054803F07C
:1008A0000BFD0346002B01D000F0B6F800BF18374F
:1008B000BD4680BDE40400200000014080B500AFCB
:1008C000114B124A1A60104B4FF416525A600E4BDD
:1008D00000229A600C4B0022DA600B4B00221A6156
:1008E000094B0C225A61084B00229A61064B0022E8
:1008F000DA61054803F04EFD0346002B01D000F0FD
:100900008BF800BF80BD00BF8004002000100140B4
:1009100080B58AB000AF07F1140300221A605A6054
:100920009A60DA601A6100233B61384B1B6B374ACF
:1009300043F004031363354B1B6B03F004033B616B
:100940003B690023FB60314B1B6B304A43F0800353
:1009500013632E4B1B6B03F08003FB60FB680023CB
:10096000BB602A4B1B6B294A43F001031363274BDF
:100970001B6B03F00103BB60BB6800237B60234B50
:100980001B6B224A43F002031363204B1B6B03F0E3
:1009900002037B607B6800224FF400511C4801F089
:1009A0008BFA00224FF480711A4801F085FA4FF457
:1009B00000537B610123BB610023FB6100233B6289
:1009C00007F114031946124801F0DAF84FF4807366
:1009D0007B610123BB610023FB6100233B6207F1C4
:1009E000140319460B4801F0CBF84FF400737B61F8
:1009F0000023BB610023FB6107F11403194605487E
:100A000001F0BEF800BF2837BD4680BD0038024067
:100A1000000802400004024080B400AF72B600BF7C
:100A2000FEE7000080B483B000AF00237B60104B72
:100A30005B6C0F4A43F4804353640D4B5B6C03F4CF
:100A400080437B607B6800233B60094B1B6C084A3A
:100A500043F080531364064B1B6C03F080533B60E0
:100A60003B6800BF0C37BD465DF8047B704700BF94
:100A70000038024080B483B000AF78607B681B68A8
:100A8000054A934202D1054B01221A6000BF0C3780
:100A9000BD465DF8047B7047002800403C0E47428D
:100AA00080B485B000AF78607B681B680B4A9342C6
:100AB0000DD10023FB600A4B5B6C094A43F0010334
:100AC0005364074B5B6C03F00103FB60FB6800BFE2
:100AD0001437BD465DF8047B704700BF000001403D
:100AE0000038024080B58AB000AF786007F1140387
:100AF00000221A605A609A60DA601A617B681B688B
:100B0000194A93422CD100233B61184B5B6C174A66
:100B100043F010035364154B5B6C03F010033B610F
:100B20003B690023FB60114B1B6B104A43F0010330
:100B300013630E4B1B6B03F00103FB60FB684FF468
:100B4000C0637B610223BB610023FB6103233B6223
:100B500007237B6207F114031946054801F010F8DA
:100B600000BF2837BD4680BD00100140003802405C
:100B70000000024080B400AFFEE780B400AFFEE7A3
:100B800080B400AFFEE780B400AFFEE780B400AFF2
:100B9000FEE780B400AF00BFBD465DF8047B704740
:100BA00080B400AF00BFBD465DF8047B704780B4E1
:100BB00000AF00BFBD465DF8047B704780B500AF55
:100BC00000F088FE00BF80BD80B500AF024801F094
:100BD000F6FA00BF80BD00BF501B002080B586B074
:100BE00000AF7860144A154BD31A7B617B693B6177
:100BF000134B1B68002B02D1114B124A1A60104B89
:100C00001A687B6813443A699A4207D207F0B4FB2A
:100C100003460C221A604FF0FF3309E0084B1B68B3
:100C2000FB60074B1A687B681344054A1360FB6836
:100C300018461837BD4680BD0000022000040000A1
:100C400048020020681F002080B400AF064BD3F894
:100C50008830054A43F47003C2F8883000BFBD46AF
:100C60005DF8047B704700BF00ED00E0DFF834D092
:100C70000D480E490E4A002302E0D458C4500433F4
:100C8000C4188C42F9D30B4A0B4C002301E01360CB
:100C90000432A242FBD3FFF7D7FF07F073FBFFF745
:100CA00083FC704700000220000000202C0200207E
:100CB000388D00082C020020681F0020FEE700008D
:100CC00080B400AF114BDB6803F08073002B0ED1B2
:100CD0000E4BDB680D4A43F08073D3600C4B00224F
:100CE0005A600B4B1B680A4A43F00103136000BFB4
:100CF00000BF00BF064B5B68002B01D0002300E063
:100D000001231846BD465DF8047B7047F0ED00E016
:100D1000001000E090B585B000AF7860154B5B68BF
:100D2000FB60144B5C6802F091FE0346124AA2FB82
:100D300003239B0C7A6802FB03F32344BB60BA686D
:100D4000FB689A4206D900BF0A4B5B68BA689A42B0
:100D5000FAD80AE000BF074B5B68FA689A42FAD3F8
:100D6000044B5B68BA689A42F5D800BF1437BD4699
:100D700090BD00BF001000E083DE1B4380B584B04F
:100D800000AF07F1080383E803001346FB71BB685B
:100D9000B989FA79184601F08FF800BF1037BD46BF
:100DA00080BD80B582B000AF3B4683E803003B685E
:100DB000BA881146184601F067F803461846083706
:100DC000BD4680BD80B584B000AF7860396000F06A
:100DD00095FDF86023E000F091FDB860BA68FB680B
:100DE0009A4206D2BA68FB68D31A002BB8BF5B429E
:100DF000FB6000F083FD0246FB689B1A3A689A424A
:100E000001D803231FE0124B1B68002B04D0104BAA
:100E10001B680A20984702E0052000F07BFD7B68F4
:100E2000D3F80620002111469A7ADB7A1B021A4376
:100E3000002362F30F0308461946FFF7B2FF03468B
:100E4000002BC8D1002318461037BD4680BD00BF17
:100E50000400002080B586B000AFF860B9607A6009
:100E6000FB681A68002111461A795B791B021A4344
:100E7000002362F30F03002208461946FFF77EFFA6
:100E80007968F868FFF79EFF0346002B69D10023BD
:100E9000FB7500233B610023FB7545E000BF00BFED
:100EA00000BFFB681A68002111461A795B791B02A2
:100EB0001A43002362F30F03012208461946FFF785
:100EC0005DFF00BF00BF00BFFB681A68002111462C
:100ED0001A795B791B021A43002362F30F03002285
:100EE00008461946FFF74AFFFB7D172B19D83B69C7
:100EF0005B003B61FB68D3F80620002111469A7A1B
:100F0000DB7A1B021A43002362F30F0308461946DB
:100F1000FFF747FF0346012B03D13B6943F0010371
:100F20003B61FB7D0133FB75FB681B7BFA7D9A42BD
:100F3000B4D3FB681A68002111461A795B791B0249
:100F40001A43002362F30F03012208461946FFF7F4
:100F500015FF3B6983F400031A46BB681A6000233F
:100F600000E0032318461837BD4680BD80B582B027
:100F700000AF78600B46FB701346BB70BB781A4617
:100F800000217868FFF766FF034618460837BD461C
:100F900080BD82B080B584B000AFF860381D80E8B5
:100FA0000600FB61FB68063307F11C02106818603D
:100FB00092889A80FB681A463B1D186810609B88CF
:100FC0009380FB6897F824201A7397F82430F42252
:100FD0001946F868FFF7CAFF034618461037BD46A2
:100FE000BDE8804002B0704780B500AF06F08AFDD2
:100FF00000BF80BD80B500AF06F08BFD00BF80BD97
:1010000080B500AF024800F005F90346184680BDE0
:101010000008002080B582B000AF0346FB71FB1DC5
:101020000121184600F006F8034618460837BD4669
:1010300080BD000080B584B000AF786039603B6847
:10104000FB601CE0154800F0E5F80346BB60FA6859
:10105000BB689A4201D2FB68BB60BB68002B0ED014
:10106000BA6879680D4800F00CF9FA68BB68D31AC1
:10107000FB607A68BB6813447B6006F0EBFCFB689E
:10108000002B04D006F0BAFC0346002BDAD13A68F4
:10109000FB68D31A18461037BD4680BD00080020F3
:1010A00080B500AF024800F01CFA0346184680BD28
:1010B0008818002080B582B000AF054800F041FAE2
:1010C000786006F0F5FC7B6818460837BD4680BDA1
:1010D0008818002080B586B000AF786039603B6822
:1010E0009BB27B6100F00AFC38617B699BB21A46B7
:1010F0007968114800F09CFA0346FB8106F0D8FCA1
:10110000FB897A69D31A7B61FB897A6813447B6017
:101110007B69002B01D13B6809E000F0EFFB024640
:101120003B69D31A312BE0D97B693A68D31A184648
:101130001837BD4680BD00BF8818002080B58AB032
:1011400002AF0346B9607A60FB737B689BB2FB61B8
:1011500000F0D4FBB861FB699AB2F97B07F1140384
:1011600000931346BA68154800F0C5FA0346FB75AC
:1011700006F09EFCBB8A1A46FB699B1AFB61BB8A80
:101180001A46BB681344BB60FB7D002B03D0FB6990
:101190007A68D31A0EE0FB69002B01D17B6809E065
:1011A00000F0ACFB0246BB69D31A312BD3D9FB69E3
:1011B0007A68D31A18462037BD4680BD88180020AB
:1011C00080B500AF024800F001FA0346184680BD22
:1011D0008818002080B500AF00BF044800F036F842
:1011E0000346002BF9DC00BF00BF80BD00080020D3
:1011F00080B483B000AF78607B680022A3F88220BF
:101200007B680022A3F8802000BF0C37BD465DF844
:10121000047B704780B483B000AF78607B68B3F81C
:1012200082309BB280337A68B2F8802092B29B1AE7
:10123000013B5A4203F07F0302F07F0258BF534242
:1012400018460C37BD465DF8047B704780B483B008
:1012500000AF78607B68B3F880309BB280337A68E7
:10126000B2F8822092B29B1A5A4203F07F0302F036
:101270007F0258BF534218460C37BD465DF8047BC9
:10128000704780B586B000AFF860B9607A60FB68DF
:10129000B3F880309BB2C3F180037B617A697B68CD
:1012A0009A420CD9FB68B3F880309BB21A46FB68AF
:1012B00013447A68B968184607F088F815E0FB68A7
:1012C000B3F880309BB21A46FB6813447A69B96858
:1012D000184607F07BF8F868BA687B69D1187A6815
:1012E0007B69D31A1A4607F071F8FB68B3F88030AF
:1012F0009BB21A467B6813449BB203F07F039AB2F9
:10130000FB68A3F8802000BF1837BD4680BD80B4BD
:1013100083B000AF786039607B68B3F880309AB2F0
:101320007B68B3F882309BB29A420CD37B68B3F8E7
:1013300080309AB27B68B3F882309BB2D31A9AB2EB
:101340003B681A8008E07B68B3F882309BB2C3F137
:1013500080039AB23B681A803B681A887B68A3F8BE
:1013600084207B68B3F882309BB21A467B681344B2
:1013700018460C37BD465DF8047B704780B483B0D7
:1013800000AF78607B68B3F882309AB27B68B3F8BC
:1013900084309BB213449BB203F07F039AB27B6804
:1013A000A3F8822000BF0C37BD465DF8047B704770
:1013B00080B483B000AF78607B680022A3F8C220BD
:1013C0007B680022A3F8C0207B68C022A3F8C42059
:1013D00000BF0C37BD465DF8047B704780B485B014
:1013E00000AF78608023FB817B68B3F8C230BB819B
:1013F0007B68B3F8C0309BB2BA899A422CD87B681C
:10140000B3F8C0309BB2FA899A4209D87B68B3F826
:10141000C0309BB2FA899A4209D1BB89002B06D011
:101420007B687A68B2F8C02092B2134425E0BB8989
:10143000402B21D97B68B3F8C0309AB27B68A3F8FF
:10144000C4207B680022A3F8C0207B687A68B2F8C9
:10145000C02092B2134410E07B68B3F8C0309BB256
:1014600003F14002BB899A4206D27B687A68B2F8DF
:10147000C02092B2134400E0002318461437BD4642
:101480005DF8047B704780B483B000AF78600B4692
:101490007B807B68B3F8C0309AB27B8813449AB2E1
:1014A0007B68A3F8C0207B68B3F8C0309AB27B6831
:1014B000B3F8C4309BB29A4203D37B68C022A3F82E
:1014C000C4207B68B3F8C0309BB2BF2B03D97B68C4
:1014D0000022A3F8C02000BF0C37BD465DF8047B96
:1014E000704780B485B000AF78607B68B3F8C030D7
:1014F0009BB2FB817B68B3F8C4309BB2BB817B6835
:10150000B3F8C2309AB2FB899BB29A4208D8FB89E1
:101510009BB21A467B68B3F8C2309BB2D31A0AE07A
:10152000BB899BB21A46FB899BB213447A68B2F816
:10153000C22092B29B1A18461437BD465DF8047B50
:10154000704780B485B000AF78607B68B3F8C03076
:101550009BB2BB817B68B3F8C4309BB27B817B6854
:10156000B3F8C2309AB27B899BB29A4203D17B68AE
:101570000022A3F8C2207B68B3F8C2309AB2BB89BC
:101580009BB29A4202D14FF0FF3319E07B68B3F867
:10159000C2309BB25A1C91B27A68A2F8C2101A46A5
:1015A0007B689B5CFB737B68B3F8C2309AB27B8923
:1015B0009BB29A4203D37B680022A3F8C220FB7B34
:1015C00018461437BD465DF8047B704780B485B07B
:1015D00000AF78607B68B3F8C0309BB2FB817B685A
:1015E000B3F8C4309BB2BB817B68B3F8C2309AB207
:1015F000BB899BB29A4203D37B680022A3F8C22026
:101600007B68B3F8C2309AB2FB899BB29A4202D18E
:101610004FF0FF3306E07B68B3F8C2309BB21A4646
:101620007B689B5C18461437BD465DF8047B7047A9
:1016300080B586B000AFF860B9601346FB80FB68E8
:10164000B3F8C0309BB2BB82FB68B3F8C4309BB226
:101650007B82FB68B3F8C2309AB27B8A9BB29A4213
:1016600003D3FB680022A3F8C220FB68B3F8C230A2
:101670009AB2BB8A9BB29A4208D8BB8A9AB2FB68DC
:10168000B3F8C2309BB2D31AFB8207E07B8A9AB2CE
:10169000FB68B3F8C2309BB2D31AFB82FA8AFB888C
:1016A0009A4201D2FB8AFB80FB68B3F8C2309BB23E
:1016B0001A46FB681344FA881946B86806F086FE95
:1016C000FB68B3F8C2309AB2FB8813449AB2FB6845
:1016D000A3F8C220FB68B3F8C2309AB27B8A9BB2EF
:1016E0009A4203D3FB680022A3F8C220FB88184665
:1016F0001837BD4680BD80B489B000AFF8607A600D
:101700001A460B46FB7213463B81FB68B3F8C030A8
:101710009BB2BB82FB68B3F8C4309BB27B82FB6890
:10172000B3F8C2309AB27B8A9BB29A4203D3FB6869
:101730000022A3F8C220FB68B3F8C2309AB2BB8A79
:101740009BB29A4208D8BB8A9AB2FB68B3F8C230FF
:101750009BB2D31AFB8307E07B8A9AB2FB68B3F88B
:10176000C2309BB2D31AFB83FA8B3B899A4201D2D7
:10177000FB8B3B81FB68B3F8C2309BB21A46FB6817
:101780001344BB610023BB832DE0BB8BBA691344B8
:101790001B78FB75FA7DFB7A9A421CD1FB68B3F883
:1017A000C2309AB2BB8B13449BB201339AB2FB682E
:1017B000A3F8C220FB68B3F8C2309AB27B8A9BB20E
:1017C0009A4203D3FB680022A3F8C220BB6ABA8BFB
:1017D0001A80012325E0BB8B7A681344FA7D1A70C6
:1017E000BB8B0133BB83BA8B3B899A42CDD3BB6A97
:1017F0003A891A80FB68B3F8C2309AB23B89134425
:101800009AB2FB68A3F8C220FB68B3F8C2309AB260
:101810007B8A9BB29A4203D3FB680022A3F8C220C2
:10182000002318462437BD465DF8047B704700004E
:1018300080B500AF0E4B1B680D4A43F40073136074
:101840000B4B1B680A4A43F480631360084B1B6808
:10185000074A43F480731360032000F04FF900201F
:1018600000F008F8FFF7DEF80023184680BD00BF3F
:10187000003C024080B582B000AF7860124B1A681D
:10188000124B1B7819464FF47A73B3FBF1F3B2FB9A
:10189000F3F3184600F067F90346002B01D001234B
:1018A0000EE07B680F2B0AD8002279684FF0FF30DA
:1018B00000F02FF9064A7B681360002300E0012343
:1018C00018460837BD4680BD0000002048000020B3
:1018D0004400002080B400AF064B1B781A46064B2C
:1018E0001B681344044A136000BFBD465DF8047BC7
:1018F000704700BF480000202C05002080B400AFD6
:10190000034B1B681846BD465DF8047B704700BF5B
:101910002C05002080B584B000AF7860FFF7EEFFA3
:10192000B8607B68FB60FB68B3F1FF3F05D00A4BF2
:101930001B781A46FB681344FB6000BFFFF7DEFF0D
:101940000246BB68D31AFA689A42F7D800BF00BFB4
:101950001037BD4680BD00BF4800002080B485B070
:1019600000AF78607B6803F00703FB600C4BDB681B
:10197000BB60BA684FF6FF031340BB60FB681A02F6
:10198000BB68134343F0BF6343F40033BB60044AB6
:10199000BB68D36000BF1437BD465DF8047B704759
:1019A00000ED00E080B400AF044BDB681B0A03F0DD
:1019B00007031846BD465DF8047B704700ED00E064
:1019C00080B483B000AF0346FB7197F90730002B5A
:1019D0000BDBFB7903F01F02074997F907305B091E
:1019E000012000FA02F241F8232000BF0C37BD4667
:1019F0005DF8047B704700BF00E100E080B483B075
:101A000000AF03463960FB7197F90730002B0ADB02
:101A10003B68DAB20C4997F907301201D2B20B4495
:101A200083F800230AE03B68DAB20849FB7903F047
:101A30000F03043B1201D2B20B441A7600BF0C37DD
:101A4000BD465DF8047B704700E100E000ED00E07A
:101A500080B489B000AFF860B9607A60FB6803F0C9
:101A60000703FB61FB69C3F10703042B28BF0423B1
:101A7000BB61FB690433062B02D9FB69033B00E021
:101A800000237B614FF0FF32BB6902FA03F3DA43B4
:101A9000BB681A407B699A404FF0FF317B6901FABD
:101AA00003F3D9437B680B40134318462437BD46E4
:101AB0005DF8047B7047000080B582B000AF7860AD
:101AC0007B68013BB3F1807F01D301230FE00A4A19
:101AD0007B68013B53600F214FF0FF30FFF78EFF13
:101AE000054B00229A60044B07221A600023184617
:101AF0000837BD4680BD00BF10E000E080B582B071
:101B000000AF78607868FFF729FF00BF0837BD464F
:101B100080BD80B586B000AF0346B9607A60FB73C4
:101B200000237B61FFF73EFF78617A68B9687869C6
:101B3000FFF78EFF024697F90F3011461846FFF760
:101B40005DFF00BF1837BD4680BD80B582B000AFD5
:101B50000346FB7197F907301846FFF731FF00BFC6
:101B60000837BD4680BD80B582B000AF7860786828
:101B7000FFF7A2FF034618460837BD4680BD0000A8
:101B800080B489B000AF7860396000237B610023A6
:101B90003B610023BB610023FB6159E10122FB692A
:101BA00002FA03F37B613B681B687A6913403B616F
:101BB0003A697B699A4240F048813B685B6803F070
:101BC0000303012B05D03B685B6803F00303022B82
:101BD00030D17B689B68BB61FB695B00032202FA22
:101BE00003F3DB43BA691340BB613B68DA68FB6906
:101BF0005B0002FA03F3BA691343BB617B68BA69FD
:101C00009A607B685B68BB610122FB6902FA03F39F
:101C1000DB43BA691340BB613B685B681B0903F097
:101C20000102FB6902FA03F3BA691343BB617B68E3
:101C3000BA695A603B685B6803F00303032B17D053
:101C40007B68DB68BB61FB695B00032202FA03F37C
:101C5000DB43BA691340BB613B689A68FB695B0070
:101C600002FA03F3BA691343BB617B68BA69DA60AD
:101C70003B685B6803F00303022B23D1FB69DA089E
:101C80007B68083253F82230BB61FB6903F007031D
:101C90009B000F2202FA03F3DB43BA691340BB61D6
:101CA0003B681A69FB6903F007039B0002FA03F320
:101CB000BA691343BB61FB69DA087B680832B9690A
:101CC00043F822107B681B68BB61FB695B00032241
:101CD00002FA03F3DB43BA691340BB613B685B68FC
:101CE00003F00302FB695B0002FA03F3BA691343D2
:101CF000BB617B68BA691A603B685B6803F080531C
:101D0000002B00F0A2800023FB60574B5B6C564A0F
:101D100043F480435364544B5B6C03F48043FB6097
:101D2000FB68524AFB699B08023352F82330BB61BF
:101D3000FB6903F003039B000F2202FA03F3DB436A
:101D4000BA691340BB617B68494A934219D07B68EA
:101D5000484A934213D07B68474A93420DD07B6830
:101D6000464A934207D07B68454A934201D10423F7
:101D700008E0072306E0032304E0022302E0012336
:101D800000E00023FA6902F0030292009340BA696E
:101D90001343BB613549FB699B080233BA6941F8BB
:101DA0002320384B1B68BB613B69DB43BA69134096
:101DB000BB613B685B6803F48033002B03D0BA69D6
:101DC0003B691343BB612F4ABB6913602D4B5B68B2
:101DD000BB613B69DB43BA691340BB613B685B682D
:101DE00003F40033002B03D0BA693B691343BB6192
:101DF000244ABB695360234B9B68BB613B69DB434F
:101E0000BA691340BB613B685B6803F48013002B25
:101E100003D0BA693B691343BB611A4ABB6993603B
:101E2000184BDB68BB613B69DB43BA691340BB619C
:101E30003B685B6803F40013002B03D0BA693B696D
:101E40001343BB610F4ABB69D360FB690133FB617C
:101E5000FB690F2B7FF6A2AE00BF00BF2437BD4643
:101E60005DF8047B704700BF003802400038014035
:101E7000000002400004024000080240000C024042
:101E800000100240003C014080B485B000AF786093
:101E90000B467B807B681A697B881340002B02D03D
:101EA0000123FB7301E00023FB73FB7B184614370F
:101EB000BD465DF8047B704780B483B000AF7860A6
:101EC0000B467B8013467B707B78002B03D07A888F
:101ED0007B689A6103E07B881A047B689A6100BF83
:101EE0000C37BD465DF8047B704780B485B000AF09
:101EF00078600B467B807B685B69FB607A88FB6857
:101F000013401A04FB68D9437B880B401A437B6853
:101F10009A6100BF1437BD465DF8047B7047F0B589
:101F20008FB00AAF78607B68002B01D101230FE1ED
:101F30007B681B68BB607B6893F8BD33DBB2002B0A
:101F400006D17B68002283F8BC23786805F00AFF7D
:101F50007B68032283F8BD23BB68DB6B03F48073CB
:101F6000002B02D17B6800221A617B681B6818462F
:101F700002F03BFD7B681B683B607E686D4606F1A6
:101F800010040FCC0FC50FCC0FC594E8030085E8F3
:101F90000300331D0ECB386802F012FC0346002B01
:101FA00005D07B68022283F8BD230123D0E07B6843
:101FB0001B680021184602F029FD0023FB734AE04C
:101FC000FA7B79681346DB009B1A9B000B443D3378
:101FD00001221A70FA7B79681346DB009B1A9B007A
:101FE0000B443C33FA7B1A70FA7BFB7B98B279681E
:101FF0001346DB009B1A9B000B44423302461A80B7
:10200000FA7B79681346DB009B1A9B000B443F3335
:1020100000221A70FA7B79681346DB009B1A9B003A
:102020000B44443300221A60FA7B79681346DB00C4
:102030009B1A9B000B44483300221A60FA7B796894
:102040001346DB009B1A9B000B44503300221A609E
:10205000FB7B0133FB73FA7B7B685B689A42AFD3EF
:102060000023FB7344E0FA7B79681346DB009B1A7C
:102070009B000B4403F2FD1300221A70FA7B79686F
:102080001346DB009B1A9B000B4403F5FE73FA7B9F
:102090001A70FA7B79681346DB009B1A9B000B448D
:1020A00003F2FF1300221A70FA7B79681346DB00F3
:1020B0009B1A9B000B4403F5017300221A60FA7B04
:1020C00079681346DB009B1A9B000B4403F50273EF
:1020D00000221A60FA7B79681346DB009B1A9B008A
:1020E0000B4403F5047300221A60FB7B0133FB737E
:1020F000FA7B7B685B689A42B5D37B681B683B6060
:102100007E686D4606F110040FCC0FC50FCC0FC5CD
:1021100094E8030085E80300331D0ECB386802F015
:102120009FFC0346002B05D07B68022283F8BD2369
:1021300001230DE07B68002283F838207B680122B0
:1021400083F8BD237B681B68184603F0E7FC002377
:1021500018461437BD46F0BD80B584B000AF786036
:102160007B681B68FB607B6893F8BC33012B01D153
:10217000022320E07B68012283F8BC237B689B6AF2
:10218000012B09D17B689B69012B05D0FB689B6BF8
:1021900043F48032FB689A637B681B68184602F040
:1021A00013FC7B681B68184603F097FC7B680022D1
:1021B00083F8BC23002318461037BD4680BD90B578
:1021C0008DB000AF78607B681B683B623B6AFB6147
:1021D0007B681B68184603F055FD0346002B40F052
:1021E0009D837B681B68184603F0B9FC0346002BEF
:1021F00000F093837B681B68184603F0B0FC03462D
:1022000003F00203022B07D17B681B685A697B68C5
:102210001B6802F002025A617B681B68184603F0D3
:102220009EFC034603F01003102B61D17B681B68F2
:102230009A697B681B6822F010029A613B6A1B6AEC
:10224000BB61BB6903F00F021346DB009B1A9B00C6
:1022500003F5FC737A68134404337B61BB695B0C40
:1022600003F00F03022B24D1BA6947F6F073134031
:10227000002B35D07B69D968BB691B099BB2C3F3BE
:102280000A039BB21A46386A03F004FB7B69DA68DA
:10229000BB691B09C3F30A031A447B69DA607B69D3
:1022A0009A69BB691B09C3F30A031A447B699A61E3
:1022B00016E0BB695B0C03F00F03062B10D17B68A3
:1022C00003F5717308221946386A03F0E3FA7B6953
:1022D0009A69BB691B09C3F30A031A447B699A61B3
:1022E0007B681B689A697B681B6842F010029A61E0
:1022F0007B681B68184603F032FC034603F4002396
:10230000B3F5002F6ED100237B627B681B681846F3
:1023100003F038FCB86262E0BB6A03F00103002BF3
:1023200057D07B681B687A6AD2B21146184603F010
:102330005DFC38613B6903F00103002B0CD07B6A24
:102340005A01FB69134403F530631A460123936075
:10235000796A786800F0B0FD3B6903F00803002B50
:102360000CD07B6A5A01FB69134403F530631A46AB
:1023700008239360796A786800F0AAFE3B6903F04D
:102380001003002B08D07B6A5A01FB69134403F544
:1023900030631A46102393603B6903F02003002B3F
:1023A00008D07B6A5A01FB69134403F530631A466F
:1023B000202393603B6903F40053002B09D07B6A10
:1023C0005A01FB69134403F530631A464FF4005376
:1023D00093607B6A01337B62BB6A5B08BB62BB6A4A
:1023E000002B99D17B681B68184603F0B8FB0346A5
:1023F00003F48023B3F5802F40F0C0807B681B6816
:10240000184603F0D9FBB86200237B62B2E0BB6AD6
:1024100003F00103002B00F0A7807B681B687A6A39
:10242000D2B21146184603F0FFFB38613B6903F056
:102430000103002B57D07B6A03F00F03012202FA3D
:1024400003F3FB60FB6903F500635A6BFB68DB4336
:10245000F96901F5006113404B637B6A5A01FB691E
:10246000134403F510631A46012393607B681B69CC
:10247000012B32D179687A6A1346DB009B1A9B00E4
:102480000B444833196878687A6A1346DB009B1A54
:102490009B00034444331B68194478687A6A1346E6
:1024A000DB009B1A9B000344483319607B6A002BB6
:1024B00013D179687A6A1346DB009B1A9B000B44A0
:1024C00050331B68002B08D17B6818687B6803F5C4
:1024D00071731A46012103F007FC7B6ADBB21946CF
:1024E000786805F0C0FC3B6903F00803002B08D0B6
:1024F0007B6A5A01FB69134403F510631A460823EB
:1025000093603B6903F01003002B08D07B6A5A01EB
:10251000FB69134403F510631A46102393603B696B
:1025200003F04003002B08D07B6A5A01FB69134477
:1025300003F510631A46402393603B6903F00203DE
:10254000002B08D07B6A5A01FB69134403F5106322
:102550001A46022393603B6903F08003002B03D0EB
:10256000796A786800F01BFC7B6A01337B62BB6A86
:102570005B08BB62BB6A002B7FF449AF7B681B68BA
:10258000184603F0ECFA034603F00043B3F1004FA2
:1025900022D1FB6903F500635B68FA6902F500620A
:1025A00023F0010353607B6893F8F433012B08D1C7
:1025B0007B68002283F8F4230021786800F026FE6F
:1025C00002E0786805F0BCFC7B681B685A697B6890
:1025D0001B6802F000425A617B681B68184603F0D2
:1025E000BEFA034603F40063B3F5006F12D1FB6932
:1025F00003F500639B6803F00103012B02D17868A7
:1026000005F078FC7B681B685A697B681B6802F4DC
:1026100000625A617B681B68184603F0A0FA034603
:1026200003F48053B3F5805F40F0C780FB6903F586
:1026300000635B68FA6902F5006223F001035360EE
:102640007B681B681021184602F06EFB0023FB62BA
:1026500056E0FB6A5A01FB69134403F510631A46FE
:102660004FF67F339360FB6A5A01FB69134403F50D
:1026700010631B68FA6A5101FA690A4402F5106294
:1026800023F400131360FB6A5A01FB69134403F53A
:1026900010631B68FA6A5101FA690A4402F5106274
:1026A00043F000631360FB6A5A01FB69134403F5AE
:1026B00030631A464FF67F339360FB6A5A01FB6919
:1026C000134403F530631B68FA6A5101FA690A443E
:1026D00002F5306223F400131360FB6A5A01FB69B0
:1026E000134403F530631B68FA6A5101FA690A441E
:1026F00002F5306243F000631360FB6A0133FB6252
:102700007B685B68FA6A9A42A3D3FB6903F50063AE
:10271000DB69FA6902F5006243F00113D3617B685B
:102720001B6B002B16D0FB6903F50063D3F88430D4
:10273000FA6902F5006243F00B03C2F88430FB69CA
:1027400003F500635B6CFA6902F5006243F00B036A
:10275000536415E0FB6903F500635B69FA6902F5F0
:10276000006243F4005343F02B035361FB6903F50C
:1027700000631B69FA6902F5006243F00B03136101
:10278000FB6903F500631B68FA6902F5006223F434
:10279000FE6313607B6818687B681B69D9B27B682D
:1027A00003F571731A4603F09FFA7B681B685A6938
:1027B0007B681B6802F480525A617B681B6818466C
:1027C00003F0CDF9034603F40053B3F5005F24D1C1
:1027D0007B681B68184603F063FA7B681B68184621
:1027E00002F003FB03461A467B68DA607B681C68CC
:1027F00001F02CF901467B68DB68DBB21A46204603
:1028000002F040F8786805F056FB7B681B685A694F
:102810007B681B6802F400525A617B681B6818468B
:1028200003F09DF9034603F00803082B0AD17868EA
:1028300005F033FB7B681B685A697B681B6802F0F4
:1028400008025A617B681B68184603F088F9034642
:1028500003F48013B3F5801F0FD100237B627B6AE2
:10286000DBB21946786805F08BFB7B681B685A69F8
:102870007B681B6802F480125A617B681B681846EB
:1028800003F06DF9034603F40013B3F5001F0FD1F5
:1028900000237B627B6ADBB21946786805F05EFB39
:1028A0007B681B685A697B681B6802F400125A61D6
:1028B0007B681B68184603F052F9034603F0804317
:1028C000B3F1804F0AD1786805F06CFB7B681B6818
:1028D0005A697B681B6802F080425A617B681B68FA
:1028E000184603F03CF9034603F00403042B15D10A
:1028F0007B681B685B68BB61BB6903F00403002B4A
:1029000002D0786805F05CFB7B681B6859687B68BF
:102910001B68BA690A435A6000E000BF3437BD46FD
:1029200090BD80B582B000AF78600B46FB707B68CD
:1029300093F8BC33012B01D1022313E07B68012201
:1029400083F8BC237B68FA7883F838207B681B689F
:10295000FA781146184603F09AF87B68002283F84B
:10296000BC23002318460837BD4680BD80B584B01F
:1029700000AF7860084611461A460346FB700B46C6
:102980003B801346BB700023FB7297F90330002B8A
:102990000FDAFB7803F00F021346DB009B1A9B0053
:1029A00038337A6813440433FB60FB6801225A70A1
:1029B0000FE0FB7803F00F021346DB009B1A9B002D
:1029C00003F5FC737A6813440433FB60FB68002250
:1029D0005A70FB7803F00F03DAB2FB681A703A887A
:1029E000FB689A60FB68BA78DA70FB685B78002B4A
:1029F00004D0FB681B789AB2FB68DA80BB78022BA4
:102A000002D1FB6800221A717B6893F8BC33012B5A
:102A100001D102230EE07B68012283F8BC237B688E
:102A20001B68F968184602F005FA7B68002283F8F3
:102A3000BC23FB7A18461037BD4680BD80B584B0F4
:102A400000AF78600B46FB7097F90330002B0FDA6C
:102A5000FB7803F00F021346DB009B1A9B00383310
:102A60007A6813440433FB60FB6801225A700FE05C
:102A7000FB7803F00F021346DB009B1A9B0003F563
:102A8000FC737A6813440433FB60FB6800225A70BD
:102A9000FB7803F00F03DAB2FB681A707B6893F8D7
:102AA000BC33012B01D102230EE07B68012283F8A5
:102AB000BC237B681B68F968184602F043FA7B6800
:102AC000002283F8BC23002318461037BD4680BD82
:102AD00080B586B000AFF8607A603B600B46FB7251
:102AE000FB7A03F00F021346DB009B1A9B0003F5F1
:102AF000FC73FA68134404337B617B697A68DA609B
:102B00007B693A685A617B6900229A617B6900227D
:102B10005A70FB7A03F00F03DAB27B691A70FB6814
:102B20001B69012B02D17A687B691A61FB7A03F079
:102B30000F03002B09D1FB681868FB681B69DBB227
:102B40001A46796902F01EFD08E0FB681868FB6808
:102B50001B69DBB21A46796902F0D0FA00231846E5
:102B60001837BD4680BD80B483B000AF78600B4697
:102B7000FB70FB7803F00F0279681346DB009B1AA9
:102B80009B000B4403F505731B6818460C37BD46C4
:102B90005DF8047B704780B586B000AFF8607A605E
:102BA0003B600B46FB72FB7A03F00F021346DB001F
:102BB0009B1A9B003833FA68134404337B617B69AA
:102BC0007A68DA607B693A685A617B6900229A61A7
:102BD0007B6901225A70FB7A03F00F03DAB27B693A
:102BE0001A70FB681B69012B02D17A687B691A6134
:102BF000FB7A03F00F03002B09D1FB681868FB6810
:102C00001B69DBB21A46796902F0BCFC08E0FB687C
:102C10001868FB681B69DBB21A46796902F06EFA24
:102C2000002318461837BD4680BD80B584B000AF7C
:102C300078600B46FB70FB7803F00F027B685B68E3
:102C40009A4201D9012350E097F90330002B0FDAA3
:102C5000FB7803F00F021346DB009B1A9B0038330E
:102C60007A6813440433FB60FB6801225A700DE05C
:102C7000FA781346DB009B1A9B0003F5FC737A6815
:102C800013440433FB60FB6800225A70FB68012286
:102C90009A70FB7803F00F03DAB2FB681A707B6856
:102CA00093F8BC33012B01D102231EE07B68012283
:102CB00083F8BC237B681B68F968184602F013FE92
:102CC000FB7803F00F03002B0AD17B6818687B6840
:102CD0001B69D9B27B6803F571731A4603F004F8D7
:102CE0007B68002283F8BC23002318461037BD46BA
:102CF00080BD80B584B000AF78600B46FB70FB7878
:102D000003F00F027B685B689A4201D9012342E01D
:102D100097F90330002B0FDAFB7803F00F0213460C
:102D2000DB009B1A9B0038337A6813440433FB6042
:102D3000FB6801225A700FE0FB7803F00F02134684
:102D4000DB009B1A9B0003F5FC737A681344043381
:102D5000FB60FB6800225A70FB6800229A70FB78C7
:102D600003F00F03DAB2FB681A707B6893F8BC3388
:102D7000012B01D102230EE07B68012283F8BC23E2
:102D80007B681B68F968184602F01BFE7B6800220E
:102D900083F8BC23002318461037BD4680BD80B59C
:102DA0008AB002AF786039607B681B687B617B69A1
:102DB0003B613A681346DB009B1A9B0038337A6804
:102DC00013440433FB60FB689A69FB685B699A42B1
:102DD00001D901236CE0FB685A69FB689B69D31A2F
:102DE000FB61FB689B68FA699A4202D9FB689B68A1
:102DF000FB61FB6903339B08BB612BE0FB685A69ED
:102E0000FB689B69D31AFB61FB689B68FA699A426D
:102E100002D9FB689B68FB61FB6903339B08BB61BC
:102E2000FB68D9683B68DAB2FB6998B27B681B69BA
:102E3000DBB200930346786902F0F7FCFB68DA68BE
:102E4000FB691A44FB68DA60FB689A69FB691A44FB
:102E5000FB689A613B685A013B69134403F51063B0
:102E60009B699BB2BA699A4209D8FB689A69FB6868
:102E70005B699A4203D2FB685B69002BBED1FB6899
:102E80005A69FB689B699A4211D83B6803F00F03AB
:102E9000012202FA03F3BB603B6903F500635A6B3E
:102EA000BB68DB43396901F5006113404B630023C4
:102EB00018462037BD4680BD80B586B000AF78602B
:102EC00039607B681B687B617B693B617B693C3354
:102ED00004331B68FB603B685A013B69134403F5EC
:102EE00030639B68BB607B681B69012B40F0A0804E
:102EF000BB6803F00803002B15D0FB68724A9342AD
:102F000040F2DD80BB6803F40043002B00F0D78063
:102F10003B685A013B69134403F530631A464FF48A
:102F200000439360CBE0BB6803F02003002B09D083
:102F30003B685A013B69134403F530631A4620236A
:102F40009360BCE0BB6803F02803002B40F0B7801F
:102F5000FB685D4A93420FD9BB6803F40043002B22
:102F60000AD03B685A013B69134403F530631A46A3
:102F70004FF400439360A2E079683A681346DB009F
:102F80009B1A9B000B4403F501731A683B685901B7
:102F90003B690B4403F530631B69C3F31203D11A79
:102FA00078683A681346DB009B1A9B00034403F5DC
:102FB0000573196079683A681346DB009B1A9B0019
:102FC0000B4403F50273196878683A681346DB000E
:102FD0009B1A9B00034403F501731B68194478682E
:102FE0003A681346DB009B1A9B00034403F5027307
:102FF00019603B68002B14D179683A681346DB00EE
:103000009B1A9B000B4403F504731B68002B08D12B
:103010007B6818687B6803F571731A46012102F01A
:1030200063FE3B68DBB21946786804F001FF46E0B6
:10303000FB68264A934224D1BB6803F40043002B6B
:103040000AD03B685A013B69134403F530631A46C2
:103050004FF40043936032E0BB6803F02003002B81
:1030600008D03B685A013B69134403F530631A46A4
:10307000202393603B68DBB21946786804F0D8FEE1
:103080001DE03B68002B14D179683A681346DB00D9
:103090009B1A9B000B4403F504731B68002B08D19B
:1030A0007B6818687B6803F571731A46002102F08B
:1030B0001BFE3B68DBB21946786804F0B9FE0023BA
:1030C00018461837BD4680BD0A30544F0A31544F58
:1030D00080B586B000AF786039607B681B687B6123
:1030E0007B693B617B693C3304331B68FB603B6855
:1030F0005A013B69134403F530639B68BB60FB686E
:10310000154A93420ED9BB6803F40043002B09D043
:103110003B685A013B69134403F530631A464FF488
:1031200000439360786804F071FEFB680A4A93429A
:103130000CD97B681B69012B08D17B6818687B68F8
:1031400003F571731A46012102F0CEFD00231846E3
:103150001837BD4680BD00BF0A30544F80B485B0DB
:1031600000AF78600B46FB7013463B807B681B68A2
:103170005B6ABB60FB78002B07D13B8819047B6836
:103180001B68BA680A439A6228E07B681B689B6ADE
:103190001B0CBA681344BB600023FB730DE07B6813
:1031A0001A68FB7B40339B0013445B681B0CBA68B6
:1031B0001344BB60FB7B0133FB73FA7BFB78013B61
:1031C0009A42ECD33B8818047B681968FB78013B72
:1031D000BA68024340339B000B445A6000231846F0
:1031E0001437BD465DF8047B704780B483B000AFF0
:1031F00078600B467B807B681B687A885A62002364
:1032000018460C37BD465DF8047B704780B483B028
:1032100000AF78600B46FB7000BF0C37BD465DF811
:10322000047B704780B586B000AF78607B68002B68
:1032300001D1012364E27B681B6803F00103002BCA
:1032400075D0A34B9B6803F00C03042B0CD0A04B50
:103250009B6803F00C03082B12D19D4B5B6803F4B1
:103260008003B3F5800F0BD1994B1B6803F4003337
:10327000002B5BD07B685B68002B57D101233FE2BA
:103280007B685B68B3F5803F06D1914B1B68904A21
:1032900043F4803313601DE07B685B68B3F5A02FB7
:1032A0000CD18B4B1B688A4A43F480231360884BF4
:1032B0001B68874A43F4803313600BE0844B1B6820
:1032C000834A23F480331360814B1B68804A23F4C4
:1032D000802313607B685B68002B13D0FEF70EFB26
:1032E000386108E0FEF70AFB02463B69D31A642BFB
:1032F00001D9032304E2764B1B6803F40033002B4F
:10330000F0D014E0FEF7FAFA386108E0FEF7F6FABA
:1033100002463B69D31A642B01D90323F0E16C4BBD
:103320001B6803F40033002BF0D100E000BF7B6882
:103330001B6803F00203002B63D0654B9B6803F00E
:103340000C03002B0BD0624B9B6803F00C03082B83
:103350001CD15F4B5B6803F48003002B16D15C4BE0
:103360001B6803F00203002B05D07B68DB68012B90
:1033700001D00123C4E1564B1B6823F0F8027B689F
:103380001B69DB00524913430B603AE07B68DB6842
:10339000002B20D04F4B01221A60FEF7AFFA3861A4
:1033A00008E0FEF7ABFA02463B69D31A022B01D9BB
:1033B0000323A5E1464B1B6803F00203002BF0D06A
:1033C000434B1B6823F0F8027B681B69DB00404914
:1033D00013430B6015E03F4B00221A60FEF78EFA94
:1033E000386108E0FEF78AFA02463B69D31A022BDD
:1033F00001D9032384E1364B1B6803F00203002B41
:10340000F0D17B681B6803F00803002B30D07B6889
:103410005B69002B16D0304B01221A60FEF76EFA62
:10342000386108E0FEF76AFA02463B69D31A022BBC
:1034300001D9032364E1264B5B6F03F00203002BE9
:10344000F0D015E0244B00221A60FEF757FA3861DD
:1034500008E0FEF753FA02463B69D31A022B01D962
:1034600003234DE11A4B5B6F03F00203002BF0D1F5
:103470007B681B6803F00403002B00F0A08000238E
:10348000FB75134B1B6C03F08053002B0FD10023F3
:10349000BB600F4B1B6C0E4A43F0805313640C4B04
:1034A0001B6C03F08053BB60BB680123FB750B4BA7
:1034B0001B6803F48073002B21D1084B1B68074A5B
:1034C00043F480731360FEF719FA386111E000BF0E
:1034D0000038024000004742800E47420070004022
:1034E000FEF70CFA02463B69D31A022B01D90323DB
:1034F00006E1854B1B6803F48073002BF0D07B68DA
:103500009B68012B06D1814B1B6F804A43F001035E
:1035100013671CE07B689B68052B0CD17B4B1B6FF2
:103520007A4A43F004031367784B1B6F774A43F0E2
:10353000010313670BE0754B1B6F744A23F0010303
:103540001367724B1B6F714A23F0040313677B6888
:103550009B68002B15D0FEF7D1F938610AE0FEF721
:10356000CDF902463B69D31A41F28832934201D920
:103570000323C5E0654B1B6F03F00203002BEED065
:1035800014E0FEF7BBF938610AE0FEF7B7F902462E
:103590003B69D31A41F28832934201D90323AFE049
:1035A0005A4B1B6F03F00203002BEED1FB7D012B66
:1035B00005D1564B1B6C554A23F0805313647B682E
:1035C0009B69002B00F09B80504B9B6803F00C0321
:1035D000082B5CD07B689B69022B41D14C4B0022AD
:1035E0001A60FEF78BF9386108E0FEF787F90246AA
:1035F0003B69D31A022B01D9032381E0434B1B689B
:1036000003F00073002BF0D17B68DA697B681B6ADA
:103610001A437B685B6A9B011A437B689B6A5B0861
:10362000013B1B041A437B68DB6A1B0637491343C3
:103630004B60374B01221A60FEF760F9386108E0F1
:10364000FEF75CF902463B69D31A022B01D903232A
:1036500056E02E4B1B6803F00073002BF0D04EE0B9
:103660002B4B00221A60FEF749F9386108E0FEF79B
:1036700045F902463B69D31A022B01D903233FE0E7
:10368000224B1B6803F00073002BF0D137E07B68FE
:103690009B69012B01D1012332E01C4B5B68FB606D
:1036A0007B689B69012B28D0FB6803F480027B6850
:1036B000DB699A4221D1FB6803F03F027B681B6AF9
:1036C0009A421AD1FA6847F6C07313407A68526A70
:1036D0009201934211D1FB6803F440327B689B6AEC
:1036E0005B08013B1B049A4207D1FB6803F0706240
:1036F0007B68DB6A1B069A4201D0012300E00023AD
:1037000018461837BD4680BD0070004000380240A2
:103710006000474280B584B000AF786039607B6854
:10372000002B01D10123CCE0684B1B6803F0070399
:103730003A689A420CD9654B3A68D2B21A70634B18
:103740001B6803F007033A689A4201D00123B8E0EE
:103750007B681B6803F00203002B20D07B681B688A
:1037600003F00403002B05D0594B9B68584A43F4DF
:10377000E05393607B681B6803F00803002B05D0BF
:10378000534B9B68524A43F460439360504B9B6891
:1037900023F0F0027B689B684D4913438B607B6884
:1037A0001B6803F00103002B44D07B685B68012B8E
:1037B00007D1474B1B6803F40033002B19D10123B9
:1037C0007FE07B685B68022B03D07B685B68032B20
:1037D00007D13F4B1B6803F00073002B09D1012375
:1037E0006FE03B4B1B6803F00203002B01D1012368
:1037F00067E0374B9B6823F003027B685B683449C2
:1038000013438B60FEF77AF8F8600AE0FEF776F86B
:103810000246FB68D31A41F28832934201D903234E
:103820004FE02B4B9B6803F00C027B685B689B00AE
:103830009A42EBD1254B1B6803F007033A689A4282
:103840000CD2224B3A68D2B21A70204B1B6803F09C
:1038500007033A689A4201D0012332E07B681B6873
:1038600003F00403002B08D0194B9B6823F4E052AB
:103870007B68DB68164913438B607B681B6803F029
:103880000803002B09D0124B9B6823F460427B682D
:103890001B69DB000E4913438B6000F021F80246E0
:1038A0000B4B9B681B0903F00F030A49CB5C22FA00
:1038B00003F3094A1360094B1B681846FDF7DAFF4A
:1038C000002318461037BD4680BD00BF003C0240B3
:1038D00000380240DC8C000800000020440000207A
:1038E000B0B584B000AF002179600021F9600021FB
:1038F00039600021B9605249896801F00C0108293A
:103900000DD0082900F29480002902D0042903D0A8
:103910008EE04C4BBB608EE04B4BBB608BE048496C
:10392000496801F03F0179604549496801F4800127
:10393000002924D042494968890908464FF000010E
:1039400040F2FF144FF0000500EA040201EA05030B
:103950003D4901FB03F0002101FB02F144183A4903
:10396000A2FB0101631819467B681A464FF0000359
:10397000FCF78EFC02460B461346FB604AE0304BD8
:103980005B689B091A464FF0000340F2FF104FF0AE
:10399000000102EA000403EA0105204629464FF02F
:1039A00000024FF000034B0143EAD063420110468E
:1039B0001946001B61EB05014FF000024FF00003B8
:1039C0008B0143EA90638201121A63EB01034FF00B
:1039D00000004FF00001D90041EA5271D0000246C8
:1039E0000B46121945EB03034FF000004FF00001A6
:1039F000990241EA9251900202460B46104619463E
:103A00007B681A464FF00003FCF742FC02460B4667
:103A10001346FB600A4B5B681B0C03F00303013386
:103A20005B003B60FA683B68B2FBF3F3BB6002E00B
:103A3000044BBB6000BFBB6818461037BD46B0BD25
:103A4000003802400024F40040787D0180B400AFCB
:103A5000034B1B681846BD465DF8047B704700BFEA
:103A60000000002080B500AFFFF7F0FF0246054BD5
:103A70009B689B0A03F007030349CB5C22FA03F31C
:103A8000184680BD00380240EC8C000880B500AFBD
:103A9000FFF7DCFF0246054B9B685B0B03F0070357
:103AA0000349CB5C22FA03F3184680BD003802407C
:103AB000EC8C000880B586B000AF786000237B6195
:103AC00000233B617B681B6803F00103002B05D1D9
:103AD0007B681B6803F00403002B38D0684B00227E
:103AE0001A60FDF70BFF786108E0FDF707FF02465B
:103AF0007B69D31A022B01D90323BDE0614B1B68FC
:103B000003F00063002BF0D17B685A687B689B68E8
:103B10009B011A437B68DB681B075A491343C1F8B2
:103B20008430574B01221A60FDF7E8FE786108E007
:103B3000FDF7E4FE02467B69D31A022B01D9032369
:103B40009AE0504B1B6803F00063002BF0D07B68B9
:103B50001B6803F00203002B00F083800023FB604E
:103B6000484B1B6C474A43F080531364454B1B6C16
:103B700003F08053FB60FB68434B1B68424A43F4ED
:103B800080731360FDF7BAFE786108E0FDF7B6FEBA
:103B900002467B69D31A022B01D903236CE03A4B0E
:103BA0001B6803F48073002BF0D0364B1B6F03F4BB
:103BB00040733B613B69002B2FD07B681B6903F48A
:103BC00040733A699A4228D02E4B1B6F23F44073FE
:103BD0003B612E4B01221A602C4B00221A60294AAD
:103BE0003B691367274B1B6F03F00103012B14D1B3
:103BF000FDF784FE78610AE0FDF780FE02467B69EE
:103C0000D31A41F28832934201D9032334E01D4B89
:103C10001B6F03F00203002BEED07B681B6903F4DB
:103C20004073B3F5407F0DD1164B9B6823F4F81217
:103C30007B681B6923F0704323F4407311491343DD
:103C40008B6005E00F4B9B680E4A23F4F8139360DA
:103C50000C4B1A6F7B681B69C3F30B0309491343B1
:103C60000B677B681B6803F00803002B03D07B689D
:103C70001A7D074B1A60002318461837BD4680BDD1
:103C8000680047420038024000700040400E474242
:103C9000E011474280B582B000AF78607B68002BAE
:103CA00001D1012383E07B685B7FDBB2002B05D170
:103CB0007B6800221A777868FCF7DCFE7B680222BA
:103CC0005A777B681B68CA225A627B681B6853223A
:103CD0005A62786800F097F80346002B08D07B689A
:103CE0001B68FF225A627B6804225A7701235EE038
:103CF0007B681B689B687A68126823F4E00323F0F2
:103D0000400393607B681B6899687B685A687B688E
:103D10001B691A437B685B691A437B681B680A430B
:103D20009A607B681B687A68D2681A617B681B6836
:103D300019697B689B681A047B681B680A431A61CF
:103D40007B681B68DA687B681B6822F08002DA6097
:103D50007B681B689B6803F02003002B0ED17868FA
:103D600000F029F80346002B08D07B681B68FF226F
:103D70005A627B6804225A77012318E07B681B682B
:103D80001A6C7B681B6822F480221A647B681B68AB
:103D9000196C7B689A697B681B680A431A647B68A4
:103DA0001B68FF225A627B6801225A77002318465B
:103DB0000837BD4680BD80B584B000AF7860002371
:103DC000FB607B681B68DA687B681B6822F0A002D6
:103DD000DA60FDF793FDF86009E0FDF78FFD02461C
:103DE000FB68D31AB3F57A7F01D9032307E07B6818
:103DF0001B68DB6803F02003002BEED0002318467D
:103E00001037BD4680BD80B584B000AF7860002318
:103E1000FB607B681B68DB6803F04003002B19D153
:103E20007B681B684FF0FF32DA60FDF767FDF860D2
:103E300009E0FDF763FD0246FB68D31AB3F57A7F0C
:103E400001D9032307E07B681B68DB6803F04003AC
:103E5000002BEED0002318461037BD4680BD80B53C
:103E600082B000AF78607B68002B01D1012341E074
:103E70007B6893F83D30DBB2002B06D17B680022D3
:103E800083F83C207868FCF70BFE7B68022283F8FD
:103E90003D207B681A687B6804331946104600F0A1
:103EA000F1F87B68012283F846207B68012283F8C1
:103EB0003E207B68012283F83F207B68012283F843
:103EC00040207B68012283F841207B68012283F82F
:103ED00042207B68012283F843207B68012283F81B
:103EE00044207B68012283F845207B68012283F807
:103EF0003D20002318460837BD4680BD80B584B0FC
:103F000000AF786039607B6893F83C30012B01D1B9
:103F10000223B3E07B68012283F83C207B68022205
:103F200083F83D207B681B689B68FB60FB6823F07F
:103F30007703FB60FB6823F47F43FB607B681B68AF
:103F4000FA689A603B681B68B3F5005F3ED0B3F532
:103F5000005F00F28780B3F5805F00F08580B3F5E5
:103F6000805F7FD8702B1AD0702B7BD8602B50D0FD
:103F7000602B77D8502B3CD0502B73D8402B58D087
:103F8000402B6FD8302B64D0302B6BD8202B60D0D7
:103F9000202B67D8002B5CD0102B5AD062E07B68B6
:103FA00018683B6899683B685A683B68DB6800F0B2
:103FB00063F97B681B689B68FB60FB6843F07703D1
:103FC000FB607B681B68FA689A604EE07B68186843
:103FD0003B6899683B685A683B68DB6800F04CF9BD
:103FE0007B681B689A687B681B6842F480429A6011
:103FF0003BE07B6818683B6859683B68DB681A4699
:1040000000F0C0F87B681B685021184600F019F9D1
:104010002BE07B6818683B6859683B68DB681A4688
:1040200000F0DFF87B681B686021184600F009F992
:104030001BE07B6818683B6859683B68DB681A4678
:1040400000F0A0F87B681B684021184600F0F9F8E2
:104050000BE07B681A683B681B681946104600F045
:10406000F0F802E000BF00E000BF7B68012283F8A7
:104070003D207B68002283F83C200023184610373F
:10408000BD4680BD80B485B000AF786039607B6884
:104090001B68FB607B68344A93420FD07B68B3F1A6
:1040A000804F0BD07B68314A934207D07B68304AFF
:1040B000934203D07B682F4A934208D1FB6823F0D8
:1040C0007003FB603B685B68FA681343FB607B68C6
:1040D000254A93421BD07B68B3F1804F17D07B6891
:1040E000224A934213D07B68214A93420FD07B68C7
:1040F000204A93420BD07B681F4A934207D07B68CB
:104100001E4A934203D07B681D4A934208D1FB6844
:1041100023F44073FB603B68DB68FA681343FB6081
:10412000FB6823F080023B685B691343FB607B689C
:10413000FA681A603B689A687B68DA623B681A68BA
:104140007B689A627B68084A934203D13B681A698C
:104150007B681A637B6801225A6100BF1437BD4631
:104160005DF8047B704700BF000001400004004080
:1041700000080040000C00400040014000440140A5
:104180000048014080B487B000AFF860B9607A6041
:10419000FB681B6A7B61FB681B6A23F00102FB68FA
:1041A0001A62FB689B693B613B6923F0F0033B614A
:1041B0007B681B013A6913433B617B6923F00A0367
:1041C0007B617A69BB6813437B61FB683A699A61DA
:1041D000FB687A691A6200BF1C37BD465DF8047B34
:1041E000704780B487B000AFF860B9607A60FB6850
:1041F0001B6A23F01002FB681A62FB689B697B61F3
:10420000FB681B6A3B617B6923F470437B617B68BD
:104210001B037A6913437B613B6923F0A0033B6175
:10422000BB681B013A6913433B61FB687A699A6179
:10423000FB683A691A6200BF1C37BD465DF8047B13
:10424000704780B485B000AF786039607B689B6848
:10425000FB60FB6823F07003FB603A68FB68134364
:1042600043F00703FB607B68FA689A6000BF14376D
:10427000BD465DF8047B704780B487B000AFF8603E
:10428000B9607A603B60FB689B687B617B6923F463
:104290007F437B613B681A027B681A43BB68134308
:1042A0007A6913437B61FB687A699A6000BF1C37A7
:1042B000BD465DF8047B704780B485B000AF786080
:1042C00039607B6893F83C30012B01D1022350E028
:1042D0007B68012283F83C207B68022283F83D2022
:1042E0007B681B685B68FB607B681B689B68BB60C6
:1042F000FB6823F07003FB603B681B68FA6813439C
:10430000FB607B681B68FA685A607B681B681C4A04
:10431000934218D07B681B68B3F1804F13D07B6841
:104320001B68184A93420ED07B681B68164A93425A
:1043300009D07B681B68154A934204D07B681B68D0
:10434000134A93420CD1BB6823F08003BB603B68E7
:104350005B68BA681343BB607B681B68BA689A6085
:104360007B68012283F83D207B68002283F83C2093
:10437000002318461437BD465DF8047B704700BF24
:10438000000001400004004000080040000C004014
:104390000040014080B582B000AF78607B68002BA0
:1043A00001D101233FE07B6893F83D30DBB2002B65
:1043B00006D17B68002283F83C207868FCF792FBEA
:1043C0007B68242283F83D207B681B68DA687B6861
:1043D0001B6822F40052DA60786800F029F87B68E4
:1043E0001B681A697B681B6822F490421A617B681B
:1043F0001B685A697B681B6822F02A025A617B6835
:104400001B68DA687B681B6842F40052DA607B68DC
:1044100000221A647B68202283F83D207B682022DA
:1044200083F83E20002318460837BD4680BD0000B3
:104430002DE9F04F9FB000AFF866FB6E1B681B695B
:1044400023F44050FB6ED968FB6E1A6840EA010302
:104450001361FB6E9A68FB6E1B691A43FB6E5B6906
:104460001A43FB6EDB6913433B67FB6E1B68DB681B
:1044700023F4164121F00C01FB6E1A683B6F0B43CD
:10448000D360FB6E1B685B6923F44070FB6E996917
:10449000FB6E1A6840EA01035361FB6E1A68C54B54
:1044A0009A4204D0FB6E1A68C34B9A4203D1FFF7BD
:1044B000EDFA786702E0FFF7D5FA7867FB6EDB6903
:1044C000B3F5004F40F0B6807B6F1C464FF00005FF
:1044D00022462B46911839645B417B64D7E910234F
:1044E000121945EB03034FF000004FF00001D90013
:1044F00041EA5271D00002460B46111939666B41F0
:104500007B66FB6E5B681A464FF000039118B96337
:104510005B41FB63D7E90E23D7E91801FBF7B8FE2F
:1045200002460B46A54BA3FB02235B091E017B6FD2
:104530001C464FF0000522462B46911839635B411B
:104540007B63D7E90C23121945EB03034FF00000FE
:104550004FF00001D90041EA5271D00002460B46EB
:104560001119B9656B41FB65FB6E5B681A464FF02C
:1045700000039118B9625B41FB62D7E90A23D7E9CE
:104580001601FBF785FE02460B468C4BA3FB02137C
:104590005B09642101FB03F3D31ADB003233874A42
:1045A000A2FB03235B095B0003F4F8731E447B6FDB
:1045B00018464FF0000102460B4694183C625B41DE
:1045C0007B62D7E90823121841EB03034FF0000484
:1045D0004FF00005DD0045EA5275D40022462B4617
:1045E00014183C654B417B65FB6E5B681A464FF0C7
:1045F00000039118B9615B41FB61D7E90623D7E954
:104600001401FBF745FE02460B466C4BA3FB02135D
:104610005B09642101FB03F3D31ADB003233674AE1
:10462000A2FB03235B0903F00702FB6E1B68324405
:104630009A60B9E07B6F1C464FF0000522462B467E
:10464000911839615B417B61D7E90423121945EB6D
:1046500003034FF000004FF00001D90041EA52710E
:10466000D00002460B4612EB040843EB0509FB6E33
:104670005B6818464FF000014FF000024FF0000356
:104680008B0043EA9073820040464946FBF700FEE8
:1046900002460B46494BA3FB02235B091E017B6FBD
:1046A00018464FF0000102460B469418BC605B416F
:1046B000FB60D7E90223121841EB03034FF000041B
:1046C0004FF00005DD0045EA5275D40022462B4626
:1046D0001418BC644B41FB64FB6E5B6818464FF0DA
:1046E00000014FF000024FF000038B0043EA90738B
:1046F0008200D7E91201FBF7CBFD02460B462F4B98
:10470000A3FB02135B09642101FB03F3D31A1B0112
:1047100032332A4AA2FB03235B0903F0F0031E4451
:104720007B6F18464FF0000102460B4694183C6020
:104730005B417B60D7E90023121841EB03034FF084
:1047400000044FF00005DD0045EA5275D400224612
:104750002B4612EB000A43EB010BFB6E5B6818461D
:104760004FF000014FF000024FF000038B0043EACE
:104770009073820050465946FBF78AFD02460B466D
:104780000E4BA3FB02135B09642101FB03F3D31A55
:104790001B013233094AA2FB03235B0903F00F021A
:1047A000FB6E1B6832449A6000BF7C37BD46BDE893
:1047B000F08F00BF00100140001401401F85EB5135
:1047C00084B080B584B000AF786007F11C0080E849
:1047D0000E003B6B012B22D17B689B6B23F4803254
:1047E0007B689A637B68DB6823F4840323F04003CF
:1047F0007A68D3607B68DB6823F440127B68DA60F8
:10480000FB6C012B05D17B68DB6843F480127B686D
:10481000DA60786801F0C6FA0346FB731AE07B6839
:10482000DB6843F040027B68DA60786801F0BAFA2E
:104830000346FB733B6C002B06D17B689B6B43F4F8
:1048400080327B689A6305E07B689B6B23F480323F
:104850007B689A63BB6A012B0BD17B689B6843F032
:1048600006027B689A607B689B6843F020027B6845
:104870009A60FB7B18461037BD46BDE8804004B007
:104880007047000080B487B000AFF860B96013468D
:10489000FB71FB79022B65D1BB68414A934206D973
:1048A000BB68404A934202D20F237B6162E0BB683F
:1048B0003C4A934206D3BB683B4A934202D20E2342
:1048C0007B6157E0BB68384A934206D3BB68374ADE
:1048D000934202D20D237B614CE0BB68334A934282
:1048E00006D3BB68324A934202D80C237B6141E075
:1048F000BB682F4A934206D9BB682E4A934202D81E
:104900000B237B6136E0BB682A4A934206D9BB6819
:10491000294A934202D80A237B612BE0BB68264ACE
:10492000934206D9BB68254A934202D209237B6190
:1049300020E0BB68214A934206D3BB68204A9342D9
:1049400002D808237B6115E0BB681D4A934206D953
:10495000BB681C4A934202D207237B610AE006230C
:104960007B6107E0FB79002B02D109237B6101E029
:1049700009237B61FB68DB6823F47052FB68DA6013
:10498000FB68DA687B699B0203F470531A43FB6887
:10499000DA60002318461C37BD465DF8047B70477B
:1049A000BFACD800C0E1E4000024F400807306012D
:1049B0009F491A01FF2C31013FA44C0100366E01C2
:1049C0001FABA6010048E80180B483B000AF786057
:1049D0007B689B6843F001027B689A60002318465D
:1049E0000C37BD465DF8047B704780B483B000AFE0
:1049F00078607B689B6823F001027B689A600023E3
:104A000018460C37BD465DF8047B704780B582B010
:104A100000AF78600B46FB707B68DB6823F0C04218
:104A20007B68DA60FB78012B06D17B68DB6843F09A
:104A300000527B68DA600BE0FB78002B06D17B68C4
:104A4000DB6843F080427B68DA6001E0012303E029
:104A50003220FCF75FFF002318460837BD4680BDB3
:104A600084B080B586B000AF786007F1240080E89C
:104A70000E000023FB757B68FB6000233B6109E0AF
:104A80007A683B6940339B00134400225A603B69BB
:104A900001333B613B690E2BF2D9FB6C002B1CD11F
:104AA000FB6803F500635B68FA6802F5006243F097
:104AB000020353607B689B6B43F400127B689A632C
:104AC0007B689B6B23F400227B689A637B689B6BFB
:104AD00023F480227B689A630BE07B689B6B23F452
:104AE00000127B689A637B689B6B43F400227B68AF
:104AF0009A63FB6803F560631A4600231360FB6842
:104B000003F500631946FB6803F500631A460B685A
:104B10001360BB6B012B0CD1FB6A002B04D100216D
:104B2000786800F049F908E00121786800F044F95C
:104B300003E00321786800F03FF91021786800F065
:104B4000F3F80346002B01D00123FB75786800F0D1
:104B500011F90346002B01D00123FB75FB6803F517
:104B600000631A4600231361FB6803F500631A46CD
:104B700000235361FB6803F500631A460023D361E9
:104B800000233B6143E03B695A01FB68134403F592
:104B900010631B6803F00043B3F1004F18D13B6969
:104BA000002B0AD13B695A01FB68134403F51063DB
:104BB0001A464FF00063136013E03B695A01FB682B
:104BC000134403F510631A464FF09043136008E056
:104BD0003B695A01FB68134403F510631A4600232E
:104BE00013603B695A01FB68134403F510631A46CE
:104BF000002313613B695A01FB68134403F51063FA
:104C00001A464FF67F3393603B6901333B617B6A01
:104C10003A699A42B7D300233B6143E03B695A01AA
:104C2000FB68134403F530631B6803F00043B3F1E2
:104C3000004F18D13B69002B0AD13B695A01FB6830
:104C4000134403F530631A464FF00063136013E01A
:104C50003B695A01FB68134403F530631A464FF071
:104C60009043136008E03B695A01FB68134403F565
:104C700030631A46002313603B695A01FB681344F2
:104C800003F530631A46002313613B695A01FB6840
:104C9000134403F530631A464FF67F3393603B6944
:104CA00001333B617B6A3A699A42B7D3FB6803F5EB
:104CB00000631B69FA6802F5006223F480731361D4
:104CC0007B6800229A617B686FF080425A613B6B7F
:104CD000002B05D17B689B6943F010027B689A61C9
:104CE0007B689A690F4B13437A689361FB6B002BC7
:104CF00005D07B689B6943F008027B689A61FB6C76
:104D0000012B07D17B689B6943F0804343F0040388
:104D10007A689361FB7D18461837BD46BDE8804030
:104D200004B0704700383C8080B485B000AF786034
:104D300039600023FB603B689B0143F020027B68E5
:104D40001A61FB680133FB60FB68094A934201D991
:104D5000032306E07B681B6903F02003202BF0D0BF
:104D6000002318461437BD465DF8047B704700BF2A
:104D7000400D030080B485B000AF78600023FB6075
:104D80007B6810221A61FB680133FB60FB68094AEB
:104D9000934201D9032306E07B681B6903F01003EB
:104DA000102BF0D0002318461437BD465DF8047B65
:104DB000704700BF400D030080B485B000AF78603D
:104DC0000B46FB707B68FB60FB6803F500631A68A9
:104DD000FB78F96801F5006113430B600023184666
:104DE0001437BD465DF8047B704780B487B000AFD0
:104DF00078607B683B613B6903F500639B6803F067
:104E00000603FB60FB68002B02D10023FB750AE060
:104E1000FB68022B02D0FB68062B02D10223FB7534
:104E200001E00F23FB75FB7D18461C37BD465DF87E
:104E3000047B704780B485B000AF786039607B68D0
:104E4000FB603B681B78BB603B685B78012B3AD109
:104E5000FB6803F50063DA693B681B7803F00F0316
:104E6000012101FA03F39BB2F96801F500611343D4
:104E7000CB61BB685A01FB68134403F510631B68E0
:104E800003F40043002B55D1BB685A01FB6813445F
:104E900003F510631A683B689B68C3F30A013B681B
:104EA000DB789B041943BB689B050B431343BA682B
:104EB0005101FA680A4402F5106243F0805343F44A
:104EC0000043136036E0FB6803F50063DA693B6872
:104ED0001B7803F00F03012101FA03F31B04F968A7
:104EE00001F500611343CB61BB685A01FB681344B1
:104EF00003F530631B6803F40043002B1AD1BB6831
:104F00005A01FB68134403F530631A683B689B68D9
:104F1000C3F30A013B68DB789B040B431343BA6875
:104F20005101FA680A4402F5306243F0805343F4B9
:104F300000431360002318461437BD465DF8047B18
:104F40007047000080B485B000AF786039607B683E
:104F5000FB603B681B78BB603B685B78012B61D1D1
:104F6000BB685A01FB68134403F510631B6803F028
:104F70000043B3F1004F1FD1BB685A01FB681344D3
:104F800003F510631B68BA685101FA680A4402F518
:104F9000106243F000631360BB685A01FB6813445E
:104FA00003F510631B68BA685101FA680A4402F5F8
:104FB000106243F080431360FB6803F50063DA6B13
:104FC0003B681B7803F00F03012101FA03F39BB246
:104FD000DB43F96801F500611340CB63FB6803F51F
:104FE0000063DA693B681B7803F00F03012101FAC3
:104FF00003F39BB2DB43F96801F500611340CB6119
:10500000BB685A01FB68134403F510631A68BB6858
:105010005901FB680B4403F510631946354B1340E7
:105020000B6060E0BB685A01FB68134403F5306312
:105030001B6803F00043B3F1004F1FD1BB685A0156
:10504000FB68134403F530631B68BA685101FA68C2
:105050000A4402F5306243F000631360BB685A01F2
:10506000FB68134403F530631B68BA685101FA68A2
:105070000A4402F5306243F080431360FB6803F595
:105080000063DA6B3B681B7803F00F03012101FA20
:1050900003F31B04DB43F96801F500611340CB63A4
:1050A000FB6803F50063DA693B681B7803F00F03C4
:1050B000012101FA03F31B04DB43F96801F50061E8
:1050C0001340CB61BB685A01FB68134403F530639E
:1050D0001A68BB685901FB680B4403F53063194635
:1050E000054B13400B60002318461437BD465DF88E
:1050F000047B7047007833EC0078F3EF80B58AB01A
:1051000002AFF860B9601346FB71FB68FB61BB68D6
:105110001B78BB61BB685B78012B40F05C81BB688E
:105120005B69002B32D1BB695A01FB69134403F55B
:1051300010631B69BA695101FA690A4402F51062E9
:1051400023F0FF5323F4C0131361BB695A01FB69B9
:10515000134403F510631B69BA695101FA690A44E3
:1051600002F5106243F400231361BB695A01FB6925
:10517000134403F510631B69BA695101FA690A44C3
:1051800002F51062DB0CDB04136174E0BB695A01A9
:10519000FB69134403F510631B69BA695101FA698D
:1051A0000A4402F51062DB0CDB041361BB695A018F
:1051B000FB69134403F510631B69BA695101FA696D
:1051C0000A4402F5106223F0FF5323F4C013136165
:1051D000BB695A01FB69134403F510631A69BB6884
:1051E0005969BB689B680B44591EBB689B68B1FB3F
:1051F000F3F3D9049D4B0B40B9694801F9690144A7
:1052000001F5106113430B61BB695A01FB6913443B
:1052100003F510631A69BB685B69C3F31203B969CC
:105220004801F969014401F5106113430B61BB6842
:10523000DB78012B1FD1BB695A01FB69134403F5CD
:1052400010631B69BA695101FA690A4402F51062D8
:1052500023F0C0431361BB695A01FB69134403F592
:1052600010631B69BA695101FA690A4402F51062B8
:1052700043F000531361FB79012B4BD1BB681B69D1
:10528000002B09D0BB695A01FB69134403F5106375
:105290001A46BB681B695361BB68DB78012B28D1B8
:1052A000FB6903F500639B6803F48073002B10D146
:1052B000BB695A01FB69134403F510631B68BA69A3
:1052C0005101FA690A4402F5106243F00053136079
:1052D0000FE0BB695A01FB69134403F510631B68B7
:1052E000BA695101FA690A4402F5106243F0805329
:1052F0001360BB695A01FB69134403F510631B6813
:10530000BA695101FA690A4402F5106243F0044394
:1053100013602FE1BB695A01FB69134403F5106365
:105320001B68BA695101FA690A4402F5106243F038
:1053300004431360BB68DB78012B15D0BB685B6945
:10534000002B00F01781FB6903F500635A6BBB6803
:105350001B7803F00F03012101FA03F3F96901F54A
:10536000006113434B6305E1FB6903F500639B6830
:1053700003F48073002B10D1BB695A01FB691344FD
:1053800003F510631B68BA695101FA690A4402F512
:10539000106243F0005313600FE0BB695A01FB69D0
:1053A000134403F510631B68BA695101FA690A4492
:1053B00002F5106243F080531360BB68D968BB6884
:1053C0001A78BB685B6998B2FB7900930346F8686A
:1053D00000F02BFACEE0BB695A01FB69134403F5D8
:1053E00030631B69BA695101FA690A4402F53062F7
:1053F000DB0CDB041361BB695A01FB69134403F541
:1054000030631B69BA695101FA690A4402F53062D6
:1054100023F0FF5323F4C0131361BB685B69002BB7
:1054200026D1BB695A01FB69134403F530631A693D
:10543000BB689B68C3F31203B9694801F969014469
:1054400001F5306113430B61BB695A01FB691344D9
:1054500003F530631B69BA695101FA690A4402F520
:10546000306243F40023136136E000BF0000F81FF0
:10547000BB685A69BB689B6813445A1EBB689B682B
:10548000B2FBF3F3FB82BB695A01FB69134403F5DA
:1054900030631A69FB8AD904394B0B40B96948015A
:1054A000F969014401F5306113430B61BB695A018D
:1054B000FB69134403F530631A69BB689B68F98A7A
:1054C00001FB03F3C3F31203B9694801F96901440D
:1054D00001F5306113430B61FB79012B0DD1BB68E2
:1054E000DB68002B09D0BB68D968BB695A01FB692E
:1054F000134403F530630A465A61BB68DB78012B1D
:1055000028D1FB6903F500639B6803F48073002BCB
:1055100010D1BB695A01FB69134403F530631B6862
:10552000BA695101FA690A4402F5306243F0005346
:1055300013600FE0BB695A01FB69134403F5306344
:105540001B68BA695101FA690A4402F5306243F0F6
:1055500080531360BB695A01FB69134403F5306340
:105560001B68BA695101FA690A4402F5306243F0D6
:1055700004431360002318462037BD4680BD00BF9A
:105580000000F81F80B487B000AFF860B960134620
:10559000FB71FB687B61BB681B783B61BB685B7818
:1055A000012B40F0CD80BB685B69002B32D13B6999
:1055B0005A017B69134403F510631B693A69510171
:1055C0007A690A4402F5106223F0FF5323F4C013F2
:1055D00013613B695A017B69134403F510631B692E
:1055E0003A6951017A690A4402F5106243F40023D2
:1055F00013613B695A017B69134403F510631B690E
:105600003A6951017A690A4402F51062DB0CDB0445
:1056100013614EE03B695A017B69134403F5106343
:105620001B693A6951017A690A4402F51062DB0C80
:10563000DB0413613B695A017B69134403F5106372
:105640001B693A6951017A690A4402F5106223F034
:10565000FF5323F4C0131361BB685A69BB689B688E
:105660009A4203D9BB689A68BB685A613B695A0180
:105670007B69134403F510631B693A6951017A6928
:105680000A4402F5106243F4002313613B695A0196
:105690007B69134403F510631A69BB685B69C3F344
:1056A0001203396948017969014401F51061134316
:1056B0000B61FB79012B1ED1BB681B69002B09D044
:1056C0003B695A017B69134403F510631A46BB68B2
:1056D0001B6953613B695A017B69134403F51063ED
:1056E0001B683A6951017A690A4402F5106243F075
:1056F0000443136092E03B695A017B69134403F54C
:1057000010631B683A6951017A690A4402F5106214
:1057100043F004431360BB685B69002B7ED07B6958
:1057200003F500635A6BBB681B7803F00F0301217C
:1057300001FA03F3796901F5006113434B636DE0EE
:105740003B695A017B69134403F530631B693A696D
:1057500051017A690A4402F53062DB0CDB04136103
:105760003B695A017B69134403F530631B693A694D
:1057700051017A690A4402F5306223F0FF5323F4A1
:10578000C0131361BB685B69002B03D0BB689A68C8
:10579000BB685A613B695A017B69134403F5306366
:1057A0001B693A6951017A690A4402F5306243F48F
:1057B000002313613B695A017B69134403F530638D
:1057C0001A69BB689B68C3F3120339694801796998
:1057D000014401F5306113430B61FB79012B0DD1BD
:1057E000BB68DB68002B09D0BB68D9683B695A01EC
:1057F0007B69134403F530630A465A613B695A01D9
:105800007B69134403F530631B683A6951017A6977
:105810000A4402F5306243F0044313600023184643
:105820001C37BD465DF8047B704780B489B000AF7B
:10583000F860B96011461A460B46FB711346BB80EF
:10584000FB687B61BB68FB6197F82830002B1AD19D
:10585000BB8803339B083B610023BB610FE0FB79EE
:105860001A037B69134403F580531A46FB691B68CE
:105870001360FB690433FB61BB690133BB61BA6927
:105880003B699A42EBD3002318462437BD465DF8A6
:10589000047B704780B489B000AFF860B9601346EC
:1058A000FB80FB687B61BB68FB61FB8803339B0863
:1058B0003B610023BB610BE07B6903F580531A68F1
:1058C000FB691A60FB690433FB61BB690133BB618F
:1058D000BA693B699A42EFD3FB6918462437BD4643
:1058E0005DF8047B704780B485B000AF78603960A4
:1058F0007B68FB603B681B78BB603B685B78012B77
:105900002CD1BB685A01FB68134403F510631B6874
:10591000002B12DBBB68002B0FD0BB685A01FB6861
:10592000134403F510631B68BA685101FA680A440E
:1059300002F5106223F080431360BB685A01FB68D4
:10594000134403F510631B68BA685101FA680A44EE
:1059500002F5106243F4001313602BE0BB685A0198
:10596000FB68134403F530631B68002B12DBBB6834
:10597000002B0FD0BB685A01FB68134403F530635A
:105980001B68BA685101FA680A4402F5306223F0D4
:1059900080431360BB685A01FB68134403F530630E
:1059A0001B68BA685101FA680A4402F5306243F490
:1059B00000131360002318461437BD465DF8047BBE
:1059C000704780B485B000AF786039607B68FB6059
:1059D0003B681B78BB603B685B78012B28D1BB68B8
:1059E0005A01FB68134403F510631B68BA68510140
:1059F000FA680A4402F5106223F4001313603B684E
:105A0000DB78032B03D03B68DB78022B38D1BB68F3
:105A10005A01FB68134403F510631B68BA6851010F
:105A2000FA680A4402F5106243F08053136027E0DD
:105A3000BB685A01FB68134403F530631B68BA68FE
:105A40005101FA680A4402F5306223F4001313602E
:105A50003B68DB78032B03D03B68DB78022B0FD14C
:105A6000BB685A01FB68134403F530631B68BA68CE
:105A70005101FA680A4402F5306243F08053136022
:105A8000002318461437BD465DF8047B704780B488
:105A900085B000AF78600B46FB707B68FB60FB68ED
:105AA00003F500631B68FA6802F5006223F4FE63E5
:105AB0001360FB6803F500631A68FB781B0103F4AD
:105AC000FE63F96801F5006113430B60002318467B
:105AD0001437BD465DF8047B704780B485B000AFD5
